{
  "_format": "hh-sol-artifact-1",
  "contractName": "IotaBeeSwapLibrary",
  "sourceName": "contracts/periphery/libraries/IotaBeeSwapLibrary.sol",
  "abi": [
    {
      "inputs": [],
      "name": "FEE_DIV_CONST",
      "outputs": [
        {
          "internalType": "uint24",
          "name": "",
          "type": "uint24"
        }
      ],
      "stateMutability": "view",
      "type": "function"
    }
  ],
  "bytecode": "0x608f610038600b82828239805160001a607314602b57634e487b7160e01b600052600060045260246000fd5b30600052607381538281f3fe730000000000000000000000000000000000000000301460806040526004361060335760003560e01c80639ca6ce12146038575b600080fd5b6041620186a081565b60405162ffffff909116815260200160405180910390f3fea2646970667358221220617f437dda29c9f8f027818ad2d55877528d5877b4af995167da421d59ee300464736f6c63430008110033",
  "linkReferences": {},
  "deployedLinkReferences": {}
}