{
  "_format": "hh-sol-artifact-1",
  "contractName": "IotaBeeSwapRouter",
  "sourceName": "contracts/periphery/IotaBeeSwapRouter.sol",
  "abi": [
    {
      "inputs": [
        {
          "internalType": "address",
          "name": "_factory",
          "type": "address"
        },
        {
          "internalType": "address",
          "name": "_WETH",
          "type": "address"
        }
      ],
      "stateMutability": "nonpayable",
      "type": "constructor"
    },
    {
      "inputs": [],
      "name": "WETH",
      "outputs": [
        {
          "internalType": "address",
          "name": "",
          "type": "address"
        }
      ],
      "stateMutability": "view",
      "type": "function"
    },
    {
      "inputs": [
        {
          "internalType": "address",
          "name": "tokenA",
          "type": "address"
        },
        {
          "internalType": "address",
          "name": "tokenB",
          "type": "address"
        },
        {
          "internalType": "uint24",
          "name": "feeRate",
          "type": "uint24"
        },
        {
          "internalType": "uint256",
          "name": "amountADesired",
          "type": "uint256"
        },
        {
          "internalType": "uint256",
          "name": "amountBDesired",
          "type": "uint256"
        },
        {
          "internalType": "uint256",
          "name": "amountAMin",
          "type": "uint256"
        },
        {
          "internalType": "uint256",
          "name": "amountBMin",
          "type": "uint256"
        },
        {
          "internalType": "address",
          "name": "to",
          "type": "address"
        },
        {
          "internalType": "uint256",
          "name": "deadline",
          "type": "uint256"
        }
      ],
      "name": "addLiquidity",
      "outputs": [
        {
          "internalType": "uint256",
          "name": "amountA",
          "type": "uint256"
        },
        {
          "internalType": "uint256",
          "name": "amountB",
          "type": "uint256"
        },
        {
          "internalType": "uint256",
          "name": "liquidity",
          "type": "uint256"
        }
      ],
      "stateMutability": "nonpayable",
      "type": "function"
    },
    {
      "inputs": [
        {
          "internalType": "address",
          "name": "token",
          "type": "address"
        },
        {
          "internalType": "uint24",
          "name": "feeRate",
          "type": "uint24"
        },
        {
          "internalType": "uint256",
          "name": "amountTokenDesired",
          "type": "uint256"
        },
        {
          "internalType": "uint256",
          "name": "amountTokenMin",
          "type": "uint256"
        },
        {
          "internalType": "uint256",
          "name": "amountETHMin",
          "type": "uint256"
        },
        {
          "internalType": "address",
          "name": "to",
          "type": "address"
        },
        {
          "internalType": "uint256",
          "name": "deadline",
          "type": "uint256"
        }
      ],
      "name": "addLiquidityETH",
      "outputs": [
        {
          "internalType": "uint256",
          "name": "amountToken",
          "type": "uint256"
        },
        {
          "internalType": "uint256",
          "name": "amountETH",
          "type": "uint256"
        },
        {
          "internalType": "uint256",
          "name": "liquidity",
          "type": "uint256"
        }
      ],
      "stateMutability": "payable",
      "type": "function"
    },
    {
      "inputs": [],
      "name": "factory",
      "outputs": [
        {
          "internalType": "address",
          "name": "",
          "type": "address"
        }
      ],
      "stateMutability": "view",
      "type": "function"
    },
    {
      "inputs": [
        {
          "internalType": "uint256",
          "name": "amountOut",
          "type": "uint256"
        },
        {
          "internalType": "uint256",
          "name": "reserveIn",
          "type": "uint256"
        },
        {
          "internalType": "uint256",
          "name": "reserveOut",
          "type": "uint256"
        },
        {
          "internalType": "uint24",
          "name": "feeRate",
          "type": "uint24"
        }
      ],
      "name": "getAmountIn",
      "outputs": [
        {
          "internalType": "uint256",
          "name": "amountIn",
          "type": "uint256"
        }
      ],
      "stateMutability": "pure",
      "type": "function"
    },
    {
      "inputs": [
        {
          "internalType": "uint256",
          "name": "amountIn",
          "type": "uint256"
        },
        {
          "internalType": "uint256",
          "name": "reserveIn",
          "type": "uint256"
        },
        {
          "internalType": "uint256",
          "name": "reserveOut",
          "type": "uint256"
        },
        {
          "internalType": "uint24",
          "name": "feeRate",
          "type": "uint24"
        }
      ],
      "name": "getAmountOut",
      "outputs": [
        {
          "internalType": "uint256",
          "name": "amountOut",
          "type": "uint256"
        }
      ],
      "stateMutability": "pure",
      "type": "function"
    },
    {
      "inputs": [
        {
          "internalType": "uint256",
          "name": "amountOut",
          "type": "uint256"
        },
        {
          "internalType": "address[]",
          "name": "path",
          "type": "address[]"
        },
        {
          "internalType": "uint24[]",
          "name": "feeRates",
          "type": "uint24[]"
        }
      ],
      "name": "getAmountsIn",
      "outputs": [
        {
          "internalType": "uint256[]",
          "name": "amounts",
          "type": "uint256[]"
        }
      ],
      "stateMutability": "view",
      "type": "function"
    },
    {
      "inputs": [
        {
          "internalType": "uint256",
          "name": "amountIn",
          "type": "uint256"
        },
        {
          "internalType": "address[]",
          "name": "path",
          "type": "address[]"
        },
        {
          "internalType": "uint24[]",
          "name": "feeRates",
          "type": "uint24[]"
        }
      ],
      "name": "getAmountsOut",
      "outputs": [
        {
          "internalType": "uint256[]",
          "name": "amounts",
          "type": "uint256[]"
        }
      ],
      "stateMutability": "view",
      "type": "function"
    },
    {
      "inputs": [
        {
          "internalType": "uint256",
          "name": "amountA",
          "type": "uint256"
        },
        {
          "internalType": "uint256",
          "name": "reserveA",
          "type": "uint256"
        },
        {
          "internalType": "uint256",
          "name": "reserveB",
          "type": "uint256"
        }
      ],
      "name": "quote",
      "outputs": [
        {
          "internalType": "uint256",
          "name": "amountB",
          "type": "uint256"
        }
      ],
      "stateMutability": "pure",
      "type": "function"
    },
    {
      "inputs": [
        {
          "internalType": "address",
          "name": "tokenA",
          "type": "address"
        },
        {
          "internalType": "address",
          "name": "tokenB",
          "type": "address"
        },
        {
          "internalType": "uint24",
          "name": "feeRate",
          "type": "uint24"
        },
        {
          "internalType": "uint256",
          "name": "liquidity",
          "type": "uint256"
        },
        {
          "internalType": "uint256",
          "name": "amountAMin",
          "type": "uint256"
        },
        {
          "internalType": "uint256",
          "name": "amountBMin",
          "type": "uint256"
        },
        {
          "internalType": "address",
          "name": "to",
          "type": "address"
        },
        {
          "internalType": "uint256",
          "name": "deadline",
          "type": "uint256"
        }
      ],
      "name": "removeLiquidity",
      "outputs": [
        {
          "internalType": "uint256",
          "name": "amountA",
          "type": "uint256"
        },
        {
          "internalType": "uint256",
          "name": "amountB",
          "type": "uint256"
        }
      ],
      "stateMutability": "nonpayable",
      "type": "function"
    },
    {
      "inputs": [
        {
          "internalType": "address",
          "name": "token",
          "type": "address"
        },
        {
          "internalType": "uint24",
          "name": "feeRate",
          "type": "uint24"
        },
        {
          "internalType": "uint256",
          "name": "liquidity",
          "type": "uint256"
        },
        {
          "internalType": "uint256",
          "name": "amountTokenMin",
          "type": "uint256"
        },
        {
          "internalType": "uint256",
          "name": "amountETHMin",
          "type": "uint256"
        },
        {
          "internalType": "address",
          "name": "to",
          "type": "address"
        },
        {
          "internalType": "uint256",
          "name": "deadline",
          "type": "uint256"
        }
      ],
      "name": "removeLiquidityETH",
      "outputs": [
        {
          "internalType": "uint256",
          "name": "amountToken",
          "type": "uint256"
        },
        {
          "internalType": "uint256",
          "name": "amountETH",
          "type": "uint256"
        }
      ],
      "stateMutability": "nonpayable",
      "type": "function"
    },
    {
      "inputs": [
        {
          "internalType": "address",
          "name": "token",
          "type": "address"
        },
        {
          "internalType": "uint24",
          "name": "feeRate",
          "type": "uint24"
        },
        {
          "internalType": "uint256",
          "name": "liquidity",
          "type": "uint256"
        },
        {
          "internalType": "uint256",
          "name": "amountTokenMin",
          "type": "uint256"
        },
        {
          "internalType": "uint256",
          "name": "amountETHMin",
          "type": "uint256"
        },
        {
          "internalType": "address",
          "name": "to",
          "type": "address"
        },
        {
          "internalType": "uint256",
          "name": "deadline",
          "type": "uint256"
        }
      ],
      "name": "removeLiquidityETHSupportingFeeOnTransferTokens",
      "outputs": [
        {
          "internalType": "uint256",
          "name": "amountETH",
          "type": "uint256"
        }
      ],
      "stateMutability": "nonpayable",
      "type": "function"
    },
    {
      "inputs": [
        {
          "internalType": "address",
          "name": "token",
          "type": "address"
        },
        {
          "internalType": "uint24",
          "name": "feeRate",
          "type": "uint24"
        },
        {
          "internalType": "uint256",
          "name": "liquidity",
          "type": "uint256"
        },
        {
          "internalType": "uint256",
          "name": "amountTokenMin",
          "type": "uint256"
        },
        {
          "internalType": "uint256",
          "name": "amountETHMin",
          "type": "uint256"
        },
        {
          "internalType": "address",
          "name": "to",
          "type": "address"
        },
        {
          "internalType": "uint256",
          "name": "deadline",
          "type": "uint256"
        },
        {
          "components": [
            {
              "internalType": "bool",
              "name": "approveMax",
              "type": "bool"
            },
            {
              "internalType": "uint8",
              "name": "v",
              "type": "uint8"
            },
            {
              "internalType": "bytes32",
              "name": "r",
              "type": "bytes32"
            },
            {
              "internalType": "bytes32",
              "name": "s",
              "type": "bytes32"
            }
          ],
          "internalType": "struct IIotaBeeSwapRouter.PermitData",
          "name": "pd",
          "type": "tuple"
        }
      ],
      "name": "removeLiquidityETHWithPermit",
      "outputs": [
        {
          "internalType": "uint256",
          "name": "amountToken",
          "type": "uint256"
        },
        {
          "internalType": "uint256",
          "name": "amountETH",
          "type": "uint256"
        }
      ],
      "stateMutability": "nonpayable",
      "type": "function"
    },
    {
      "inputs": [
        {
          "internalType": "address",
          "name": "token",
          "type": "address"
        },
        {
          "internalType": "uint24",
          "name": "feeRate",
          "type": "uint24"
        },
        {
          "internalType": "uint256",
          "name": "liquidity",
          "type": "uint256"
        },
        {
          "internalType": "uint256",
          "name": "amountTokenMin",
          "type": "uint256"
        },
        {
          "internalType": "uint256",
          "name": "amountETHMin",
          "type": "uint256"
        },
        {
          "internalType": "address",
          "name": "to",
          "type": "address"
        },
        {
          "internalType": "uint256",
          "name": "deadline",
          "type": "uint256"
        },
        {
          "components": [
            {
              "internalType": "bool",
              "name": "approveMax",
              "type": "bool"
            },
            {
              "internalType": "uint8",
              "name": "v",
              "type": "uint8"
            },
            {
              "internalType": "bytes32",
              "name": "r",
              "type": "bytes32"
            },
            {
              "internalType": "bytes32",
              "name": "s",
              "type": "bytes32"
            }
          ],
          "internalType": "struct IIotaBeeSwapRouter.PermitData",
          "name": "pd",
          "type": "tuple"
        }
      ],
      "name": "removeLiquidityETHWithPermitSupportingFeeOnTransferTokens",
      "outputs": [
        {
          "internalType": "uint256",
          "name": "amountETH",
          "type": "uint256"
        }
      ],
      "stateMutability": "nonpayable",
      "type": "function"
    },
    {
      "inputs": [
        {
          "internalType": "address",
          "name": "tokenA",
          "type": "address"
        },
        {
          "internalType": "address",
          "name": "tokenB",
          "type": "address"
        },
        {
          "internalType": "uint24",
          "name": "feeRate",
          "type": "uint24"
        },
        {
          "internalType": "uint256",
          "name": "liquidity",
          "type": "uint256"
        },
        {
          "internalType": "uint256",
          "name": "amountAMin",
          "type": "uint256"
        },
        {
          "internalType": "uint256",
          "name": "amountBMin",
          "type": "uint256"
        },
        {
          "internalType": "address",
          "name": "to",
          "type": "address"
        },
        {
          "internalType": "uint256",
          "name": "deadline",
          "type": "uint256"
        },
        {
          "components": [
            {
              "internalType": "bool",
              "name": "approveMax",
              "type": "bool"
            },
            {
              "internalType": "uint8",
              "name": "v",
              "type": "uint8"
            },
            {
              "internalType": "bytes32",
              "name": "r",
              "type": "bytes32"
            },
            {
              "internalType": "bytes32",
              "name": "s",
              "type": "bytes32"
            }
          ],
          "internalType": "struct IIotaBeeSwapRouter.PermitData",
          "name": "pd",
          "type": "tuple"
        }
      ],
      "name": "removeLiquidityWithPermit",
      "outputs": [
        {
          "internalType": "uint256",
          "name": "amountA",
          "type": "uint256"
        },
        {
          "internalType": "uint256",
          "name": "amountB",
          "type": "uint256"
        }
      ],
      "stateMutability": "nonpayable",
      "type": "function"
    },
    {
      "inputs": [
        {
          "internalType": "uint256",
          "name": "amountOut",
          "type": "uint256"
        },
        {
          "internalType": "address[]",
          "name": "path",
          "type": "address[]"
        },
        {
          "internalType": "uint24[]",
          "name": "feeRates",
          "type": "uint24[]"
        },
        {
          "internalType": "address",
          "name": "to",
          "type": "address"
        },
        {
          "internalType": "uint256",
          "name": "deadline",
          "type": "uint256"
        }
      ],
      "name": "swapETHForExactTokens",
      "outputs": [
        {
          "internalType": "uint256[]",
          "name": "amounts",
          "type": "uint256[]"
        }
      ],
      "stateMutability": "payable",
      "type": "function"
    },
    {
      "inputs": [
        {
          "internalType": "uint256",
          "name": "amountOutMin",
          "type": "uint256"
        },
        {
          "internalType": "address[]",
          "name": "path",
          "type": "address[]"
        },
        {
          "internalType": "uint24[]",
          "name": "feeRates",
          "type": "uint24[]"
        },
        {
          "internalType": "address",
          "name": "to",
          "type": "address"
        },
        {
          "internalType": "uint256",
          "name": "deadline",
          "type": "uint256"
        }
      ],
      "name": "swapExactETHForTokens",
      "outputs": [
        {
          "internalType": "uint256[]",
          "name": "amounts",
          "type": "uint256[]"
        }
      ],
      "stateMutability": "payable",
      "type": "function"
    },
    {
      "inputs": [
        {
          "internalType": "uint256",
          "name": "amountOutMin",
          "type": "uint256"
        },
        {
          "internalType": "address[]",
          "name": "path",
          "type": "address[]"
        },
        {
          "internalType": "uint24[]",
          "name": "feeRates",
          "type": "uint24[]"
        },
        {
          "internalType": "address",
          "name": "to",
          "type": "address"
        },
        {
          "internalType": "uint256",
          "name": "deadline",
          "type": "uint256"
        }
      ],
      "name": "swapExactETHForTokensSupportingFeeOnTransferTokens",
      "outputs": [],
      "stateMutability": "payable",
      "type": "function"
    },
    {
      "inputs": [
        {
          "internalType": "uint256",
          "name": "amountIn",
          "type": "uint256"
        },
        {
          "internalType": "uint256",
          "name": "amountOutMin",
          "type": "uint256"
        },
        {
          "internalType": "address[]",
          "name": "path",
          "type": "address[]"
        },
        {
          "internalType": "uint24[]",
          "name": "feeRates",
          "type": "uint24[]"
        },
        {
          "internalType": "address",
          "name": "to",
          "type": "address"
        },
        {
          "internalType": "uint256",
          "name": "deadline",
          "type": "uint256"
        }
      ],
      "name": "swapExactTokensForETH",
      "outputs": [
        {
          "internalType": "uint256[]",
          "name": "amounts",
          "type": "uint256[]"
        }
      ],
      "stateMutability": "nonpayable",
      "type": "function"
    },
    {
      "inputs": [
        {
          "internalType": "uint256",
          "name": "amountIn",
          "type": "uint256"
        },
        {
          "internalType": "uint256",
          "name": "amountOutMin",
          "type": "uint256"
        },
        {
          "internalType": "address[]",
          "name": "path",
          "type": "address[]"
        },
        {
          "internalType": "uint24[]",
          "name": "feeRates",
          "type": "uint24[]"
        },
        {
          "internalType": "address",
          "name": "to",
          "type": "address"
        },
        {
          "internalType": "uint256",
          "name": "deadline",
          "type": "uint256"
        }
      ],
      "name": "swapExactTokensForETHSupportingFeeOnTransferTokens",
      "outputs": [],
      "stateMutability": "nonpayable",
      "type": "function"
    },
    {
      "inputs": [
        {
          "internalType": "uint256",
          "name": "amountIn",
          "type": "uint256"
        },
        {
          "internalType": "uint256",
          "name": "amountOutMin",
          "type": "uint256"
        },
        {
          "internalType": "address[]",
          "name": "path",
          "type": "address[]"
        },
        {
          "internalType": "uint24[]",
          "name": "feeRates",
          "type": "uint24[]"
        },
        {
          "internalType": "address",
          "name": "to",
          "type": "address"
        },
        {
          "internalType": "uint256",
          "name": "deadline",
          "type": "uint256"
        }
      ],
      "name": "swapExactTokensForTokens",
      "outputs": [
        {
          "internalType": "uint256[]",
          "name": "amounts",
          "type": "uint256[]"
        }
      ],
      "stateMutability": "nonpayable",
      "type": "function"
    },
    {
      "inputs": [
        {
          "internalType": "uint256",
          "name": "amountIn",
          "type": "uint256"
        },
        {
          "internalType": "uint256",
          "name": "amountOutMin",
          "type": "uint256"
        },
        {
          "internalType": "address[]",
          "name": "path",
          "type": "address[]"
        },
        {
          "internalType": "uint24[]",
          "name": "feeRates",
          "type": "uint24[]"
        },
        {
          "internalType": "address",
          "name": "to",
          "type": "address"
        },
        {
          "internalType": "uint256",
          "name": "deadline",
          "type": "uint256"
        }
      ],
      "name": "swapExactTokensForTokensSupportingFeeOnTransferTokens",
      "outputs": [],
      "stateMutability": "nonpayable",
      "type": "function"
    },
    {
      "inputs": [
        {
          "internalType": "uint256",
          "name": "amountOut",
          "type": "uint256"
        },
        {
          "internalType": "uint256",
          "name": "amountInMax",
          "type": "uint256"
        },
        {
          "internalType": "address[]",
          "name": "path",
          "type": "address[]"
        },
        {
          "internalType": "uint24[]",
          "name": "feeRates",
          "type": "uint24[]"
        },
        {
          "internalType": "address",
          "name": "to",
          "type": "address"
        },
        {
          "internalType": "uint256",
          "name": "deadline",
          "type": "uint256"
        }
      ],
      "name": "swapTokensForExactETH",
      "outputs": [
        {
          "internalType": "uint256[]",
          "name": "amounts",
          "type": "uint256[]"
        }
      ],
      "stateMutability": "nonpayable",
      "type": "function"
    },
    {
      "inputs": [
        {
          "internalType": "uint256",
          "name": "amountOut",
          "type": "uint256"
        },
        {
          "internalType": "uint256",
          "name": "amountInMax",
          "type": "uint256"
        },
        {
          "internalType": "address[]",
          "name": "path",
          "type": "address[]"
        },
        {
          "internalType": "uint24[]",
          "name": "feeRates",
          "type": "uint24[]"
        },
        {
          "internalType": "address",
          "name": "to",
          "type": "address"
        },
        {
          "internalType": "uint256",
          "name": "deadline",
          "type": "uint256"
        }
      ],
      "name": "swapTokensForExactTokens",
      "outputs": [
        {
          "internalType": "uint256[]",
          "name": "amounts",
          "type": "uint256[]"
        }
      ],
      "stateMutability": "nonpayable",
      "type": "function"
    },
    {
      "stateMutability": "payable",
      "type": "receive"
    }
  ],
  "bytecode": "0x60c06040523480156200001157600080fd5b506040516200473b3803806200473b833981016040819052620000349162000069565b6001600160a01b039182166080521660a052620000a1565b80516001600160a01b03811681146200006457600080fd5b919050565b600080604083850312156200007d57600080fd5b62000088836200004c565b915062000098602084016200004c565b90509250929050565b60805160a051614516620002256000396000818161015f015281816103c801528181610501015281816106ca01528181610d4d01528181610e6301528181611094015281816112000152818161136e015281816113eb0152818161145f01528181611870015281816119b301528181611a4101528181611c2c01528181611d9301528181611e5701528181611fa60152818161203401528181612379015281816123d0015281816124050152818161249a0152612712015260008181610447015281816105c4015281816106a8015281816107c8015281816108bf01528181610a2301528181610c6301528181610d2b01528181610edf0152818161111001528181611279015281816114910152818161177b015281816117dc015281816118eb01528181611a7301528181611cd401528181611ed201528181612066015281816123ae01528181612c6401528181612cda01528181612ec501528181612f6c01528181612ff20152818161344401528181613484015261359e01526145166000f3fe60806040526004361061014f5760003560e01c806393a2e9ed116100b6578063bf228ea81161006f578063bf228ea814610422578063c45a015514610435578063db24105d14610469578063e8677b0a14610489578063edcbbd461461049c578063f0b54b09146104bc57600080fd5b806393a2e9ed146103435780639e881335146103635780639ec505b5146103765780639f48b43914610396578063ad5c4648146103b6578063ad615dec1461040257600080fd5b80634e1ae772116101085780634e1ae772146102a357806367a86300146102c35780637d342839146102e3578063886ee7b5146102c3578063899c25ce146103035780638df947671461032357600080fd5b8063076e4b6d146101935780631d58730b146101c65780631e82f87b146101fb5780632be591cf1461021b578063337141b1146102485780634a60791e1461026857600080fd5b3661018e57336001600160a01b037f0000000000000000000000000000000000000000000000000000000000000000161461018c5761018c6139a9565b005b600080fd5b34801561019f57600080fd5b506101b36101ae3660046139ef565b6104cf565b6040519081526020015b60405180910390f35b3480156101d257600080fd5b506101e66101e1366004613b32565b6105ba565b604080519283526020830191909152016101bd565b34801561020757600080fd5b506101e6610216366004613bc5565b61069e565b34801561022757600080fd5b5061023b610236366004613c8a565b6107a0565b6040516101bd9190613d2a565b34801561025457600080fd5b506101e6610263366004613d6e565b6109f8565b34801561027457600080fd5b50610288610283366004613df1565b610c22565b604080519384526020840192909252908201526060016101bd565b3480156102af57600080fd5b506101b36102be366004613bc5565b610d23565b3480156102cf57600080fd5b506101b36102de366004613e7e565b610e1f565b3480156102ef57600080fd5b5061023b6102fe366004613c8a565b610e36565b34801561030f57600080fd5b5061023b61031e366004613c8a565b611067565b34801561032f57600080fd5b506101e661033e3660046139ef565b6111d6565b34801561034f57600080fd5b5061023b61035e366004613c8a565b611251565b61018c610371366004613ebd565b61134b565b34801561038257600080fd5b5061023b610391366004613f54565b611774565b3480156103a257600080fd5b5061023b6103b1366004613f54565b6117d5565b3480156103c257600080fd5b506103ea7f000000000000000000000000000000000000000000000000000000000000000081565b6040516001600160a01b0390911681526020016101bd565b34801561040e57600080fd5b506101b361041d366004614036565b611836565b61023b610430366004613ebd565b61184b565b34801561044157600080fd5b506103ea7f000000000000000000000000000000000000000000000000000000000000000081565b34801561047557600080fd5b5061018c610484366004613c8a565b611c01565b61023b610497366004613ebd565b611e32565b3480156104a857600080fd5b5061018c6104b7366004613c8a565b6121a3565b6102886104ca3660046139ef565b61234d565b600081428110156104fb5760405162461bcd60e51b81526004016104f290614062565b60405180910390fd5b61052b897f00000000000000000000000000000000000000000000000000000000000000008a8a8a8a308a6109f8565b6040516370a0823160e01b81523060048201529093506105a491508a9086906001600160a01b038316906370a0823190602401602060405180830381865afa15801561057b573d6000803e3d6000fd5b505050506040513d601f19601f8201168201806040525081019061059f919061408e565b6125aa565b6105ae84836126db565b50979650505050505050565b60008060006105eb7f00000000000000000000000000000000000000000000000000000000000000008d8d8d612784565b9050600084600001516105fe5789610602565b6000195b9050816001600160a01b031663d505accf3330848a8a602001518b604001518c606001516040518863ffffffff1660e01b815260040161064897969594939291906140a7565b600060405180830381600087803b15801561066257600080fd5b505af1158015610676573d6000803e3d6000fd5b5050505061068a8d8d8d8d8d8d8d8d6109f8565b909e909d509b505050505050505050505050565b60008060006106ef7f00000000000000000000000000000000000000000000000000000000000000008c7f00000000000000000000000000000000000000000000000000000000000000008d612784565b9050600084600001516107025789610706565b6000195b9050816001600160a01b031663d505accf3330848a8a602001518b604001518c606001516040518863ffffffff1660e01b815260040161074c97969594939291906140a7565b600060405180830381600087803b15801561076657600080fd5b505af115801561077a573d6000803e3d6000fd5b5050505061078d8c8c8c8c8c8c8c6111d6565b909d909c509a5050505050505050505050565b606081428110156107c35760405162461bcd60e51b81526004016104f290614062565b6108527f00000000000000000000000000000000000000000000000000000000000000008b8a8a8080602002602001604051908101604052809392919081815260200183836020028082843760009201919091525050604080516020808e0282810182019093528d82529093508d92508c91829185019084908082843760009201919091525061284b92505050565b91508882600081518110610868576108686140e8565b6020026020010151111561088e5760405162461bcd60e51b81526004016104f2906140fe565b61097b888860008181106108a4576108a46140e8565b90506020020160208101906108b9919061413f565b3361095b7f00000000000000000000000000000000000000000000000000000000000000008c8c60008181106108f1576108f16140e8565b9050602002016020810190610906919061413f565b8d8d6001818110610919576109196140e8565b905060200201602081019061092e919061413f565b8c8c6000818110610941576109416140e8565b90506020020160208101906109569190614163565b612784565b8560008151811061096e5761096e6140e8565b6020026020010151612a43565b6109eb8289898080602002602001604051908101604052809392919081815260200183836020028082843760009201919091525050604080516020808d0282810182019093528c82529093508c92508b9182918501908490808284376000920191909152508a9250612b81915050565b5098975050505050505050565b6000808242811015610a1c5760405162461bcd60e51b81526004016104f290614062565b6000610a4a7f00000000000000000000000000000000000000000000000000000000000000008d8d8d612784565b6040516323b872dd60e01b81523360048201526001600160a01b03821660248201819052604482018c90529192506323b872dd906064016020604051808303816000875af1158015610aa0573d6000803e3d6000fd5b505050506040513d601f19601f82011682018060405250810190610ac4919061417e565b5060405163226bf2d160e21b81526001600160a01b03878116600483015260009182918416906389afcb449060240160408051808303816000875af1158015610b11573d6000803e3d6000fd5b505050506040513d601f19601f82011682018060405250810190610b35919061419b565b915091506000610b458f8f612db6565b509050806001600160a01b03168f6001600160a01b031614610b68578183610b6b565b82825b90975095508a871015610bc05760405162461bcd60e51b815260206004820181905260248201527f494253526f757465723a20494e53554646494349454e545f415f414d4f554e5460448201526064016104f2565b89861015610c105760405162461bcd60e51b815260206004820181905260248201527f494253526f757465723a20494e53554646494349454e545f425f414d4f554e5460448201526064016104f2565b50505050509850989650505050505050565b60008060008342811015610c485760405162461bcd60e51b81526004016104f290614062565b610c578d8d8d8d8d8d8d612eaf565b90945092506000610c8a7f00000000000000000000000000000000000000000000000000000000000000008f8f8f612784565b9050610c988e338388612a43565b610ca48d338387612a43565b6040516335313c2160e11b81526001600160a01b038881166004830152821690636a627842906024016020604051808303816000875af1158015610cec573d6000803e3d6000fd5b505050506040513d601f19601f82011682018060405250810190610d10919061408e565b9250505099509950999650505050505050565b600080610d727f00000000000000000000000000000000000000000000000000000000000000008b7f00000000000000000000000000000000000000000000000000000000000000008c612784565b905060008360000151610d855788610d89565b6000195b9050816001600160a01b031663d505accf3330848989602001518a604001518b606001516040518863ffffffff1660e01b8152600401610dcf97969594939291906140a7565b600060405180830381600087803b158015610de957600080fd5b505af1158015610dfd573d6000803e3d6000fd5b50505050610e108b8b8b8b8b8b8b6104cf565b9b9a5050505050505050505050565b6000610e2d85858585613131565b95945050505050565b60608142811015610e595760405162461bcd60e51b81526004016104f290614062565b6001600160a01b037f0000000000000000000000000000000000000000000000000000000000000000168888610e906001826141d5565b818110610e9f57610e9f6140e8565b9050602002016020810190610eb4919061413f565b6001600160a01b031614610eda5760405162461bcd60e51b81526004016104f2906141ee565b610f697f00000000000000000000000000000000000000000000000000000000000000008b8a8a8080602002602001604051908101604052809392919081815260200183836020028082843760009201919091525050604080516020808e0282810182019093528d82529093508d92508c91829185019084908082843760009201919091525061321292505050565b9150888260018451610f7b91906141d5565b81518110610f8b57610f8b6140e8565b60200260200101511015610fb15760405162461bcd60e51b81526004016104f290614225565b610fc7888860008181106108a4576108a46140e8565b6110378289898080602002602001604051908101604052809392919081815260200183836020028082843760009201919091525050604080516020808d0282810182019093528c82529093508c92508b918291850190849080828437600092019190915250309250612b81915050565b6109eb84836001855161104a91906141d5565b8151811061105a5761105a6140e8565b60200260200101516126db565b6060814281101561108a5760405162461bcd60e51b81526004016104f290614062565b6001600160a01b037f00000000000000000000000000000000000000000000000000000000000000001688886110c16001826141d5565b8181106110d0576110d06140e8565b90506020020160208101906110e5919061413f565b6001600160a01b03161461110b5760405162461bcd60e51b81526004016104f2906141ee565b61119a7f00000000000000000000000000000000000000000000000000000000000000008b8a8a8080602002602001604051908101604052809392919081815260200183836020028082843760009201919091525050604080516020808e0282810182019093528d82529093508d92508c91829185019084908082843760009201919091525061284b92505050565b915088826000815181106111b0576111b06140e8565b60200260200101511115610fb15760405162461bcd60e51b81526004016104f2906140fe565b60008082428110156111fa5760405162461bcd60e51b81526004016104f290614062565b61122a8a7f00000000000000000000000000000000000000000000000000000000000000008b8b8b8b308b6109f8565b909350915061123a8a86856125aa565b61124485836126db565b5097509795505050505050565b606081428110156112745760405162461bcd60e51b81526004016104f290614062565b6113037f00000000000000000000000000000000000000000000000000000000000000008b8a8a8080602002602001604051908101604052809392919081815260200183836020028082843760009201919091525050604080516020808e0282810182019093528d82529093508d92508c91829185019084908082843760009201919091525061321292505050565b915088826001845161131591906141d5565b81518110611325576113256140e8565b6020026020010151101561088e5760405162461bcd60e51b81526004016104f290614225565b804281101561136c5760405162461bcd60e51b81526004016104f290614062565b7f00000000000000000000000000000000000000000000000000000000000000006001600160a01b0316878760008181106113a9576113a96140e8565b90506020020160208101906113be919061413f565b6001600160a01b0316146113e45760405162461bcd60e51b81526004016104f2906141ee565b60003490507f00000000000000000000000000000000000000000000000000000000000000006001600160a01b031663d0e30db0826040518263ffffffff1660e01b81526004016000604051808303818588803b15801561144457600080fd5b505af1158015611458573d6000803e3d6000fd5b50505050507f00000000000000000000000000000000000000000000000000000000000000006001600160a01b031663a9059cbb6115137f00000000000000000000000000000000000000000000000000000000000000008b8b60008181106114c3576114c36140e8565b90506020020160208101906114d8919061413f565b8c8c60018181106114eb576114eb6140e8565b9050602002016020810190611500919061413f565b8b8b6000818110610941576109416140e8565b6040516001600160e01b031960e084901b1681526001600160a01b039091166004820152602481018490526044016020604051808303816000875af1158015611560573d6000803e3d6000fd5b505050506040513d601f19601f82011682018060405250810190611584919061417e565b611590576115906139a9565b6000888861159f6001826141d5565b8181106115ae576115ae6140e8565b90506020020160208101906115c3919061413f565b6040516370a0823160e01b81526001600160a01b03878116600483015291909116906370a0823190602401602060405180830381865afa15801561160b573d6000803e3d6000fd5b505050506040513d601f19601f8201168201806040525081019061162f919061408e565b90506116a089898080602002602001604051908101604052809392919081815260200183836020028082843760009201919091525050604080516020808d0282810182019093528c82529093508c92508b9182918501908490808284376000920191909152508a92506133cf915050565b89818a8a6116af6001826141d5565b8181106116be576116be6140e8565b90506020020160208101906116d3919061413f565b6040516370a0823160e01b81526001600160a01b03898116600483015291909116906370a08231906024015b602060405180830381865afa15801561171c573d6000803e3d6000fd5b505050506040513d601f19601f82011682018060405250810190611740919061408e565b61174a91906141d5565b10156117685760405162461bcd60e51b81526004016104f290614225565b50505050505050505050565b6060610e2d7f0000000000000000000000000000000000000000000000000000000000000000868686868080602002602001604051908101604052809392919081815260200183836020028082843760009201919091525061284b92505050565b6060610e2d7f0000000000000000000000000000000000000000000000000000000000000000868686868080602002602001604051908101604052809392919081815260200183836020028082843760009201919091525061321292505050565b6000611843848484613686565b949350505050565b6060814281101561186e5760405162461bcd60e51b81526004016104f290614062565b7f00000000000000000000000000000000000000000000000000000000000000006001600160a01b0316888860008181106118ab576118ab6140e8565b90506020020160208101906118c0919061413f565b6001600160a01b0316146118e65760405162461bcd60e51b81526004016104f2906141ee565b6119757f00000000000000000000000000000000000000000000000000000000000000008a8a8a8080602002602001604051908101604052809392919081815260200183836020028082843760009201919091525050604080516020808e0282810182019093528d82529093508d92508c91829185019084908082843760009201919091525061284b92505050565b9150348260008151811061198b5761198b6140e8565b602002602001015111156119b15760405162461bcd60e51b81526004016104f2906140fe565b7f00000000000000000000000000000000000000000000000000000000000000006001600160a01b031663d0e30db0836000815181106119f3576119f36140e8565b60200260200101516040518263ffffffff1660e01b81526004016000604051808303818588803b158015611a2657600080fd5b505af1158015611a3a573d6000803e3d6000fd5b50505050507f00000000000000000000000000000000000000000000000000000000000000006001600160a01b031663a9059cbb611aa57f00000000000000000000000000000000000000000000000000000000000000008b8b60008181106114c3576114c36140e8565b84600081518110611ab857611ab86140e8565b60200260200101516040518363ffffffff1660e01b8152600401611af19291906001600160a01b03929092168252602082015260400190565b6020604051808303816000875af1158015611b10573d6000803e3d6000fd5b505050506040513d601f19601f82011682018060405250810190611b34919061417e565b611b4057611b406139a9565b611bb08289898080602002602001604051908101604052809392919081815260200183836020028082843760009201919091525050604080516020808d0282810182019093528c82529093508c92508b9182918501908490808284376000920191909152508a9250612b81915050565b81600081518110611bc357611bc36140e8565b60200260200101513411156105ae576105ae3383600081518110611be957611be96140e8565b602002602001015134611bfc91906141d5565b613716565b8042811015611c225760405162461bcd60e51b81526004016104f290614062565b6001600160a01b037f0000000000000000000000000000000000000000000000000000000000000000168787611c596001826141d5565b818110611c6857611c686140e8565b9050602002016020810190611c7d919061413f565b6001600160a01b031614611ca35760405162461bcd60e51b81526004016104f2906141ee565b611d0c87876000818110611cb957611cb96140e8565b9050602002016020810190611cce919061413f565b33611d067f00000000000000000000000000000000000000000000000000000000000000008b8b60008181106114c3576114c36140e8565b8c612a43565b611d7b87878080602002602001604051908101604052809392919081815260200183836020028082843760009201919091525050604080516020808b0282810182019093528a82529093508a9250899182918501908490808284376000920191909152503092506133cf915050565b6040516370a0823160e01b81523060048201526000907f00000000000000000000000000000000000000000000000000000000000000006001600160a01b0316906370a0823190602401602060405180830381865afa158015611de2573d6000803e3d6000fd5b505050506040513d601f19601f82011682018060405250810190611e06919061408e565b905088811015611e285760405162461bcd60e51b81526004016104f290614225565b61176884826126db565b60608142811015611e555760405162461bcd60e51b81526004016104f290614062565b7f00000000000000000000000000000000000000000000000000000000000000006001600160a01b031688886000818110611e9257611e926140e8565b9050602002016020810190611ea7919061413f565b6001600160a01b031614611ecd5760405162461bcd60e51b81526004016104f2906141ee565b611f5c7f0000000000000000000000000000000000000000000000000000000000000000348a8a8080602002602001604051908101604052809392919081815260200183836020028082843760009201919091525050604080516020808e0282810182019093528d82529093508d92508c91829185019084908082843760009201919091525061321292505050565b9150888260018451611f6e91906141d5565b81518110611f7e57611f7e6140e8565b60200260200101511015611fa45760405162461bcd60e51b81526004016104f290614225565b7f00000000000000000000000000000000000000000000000000000000000000006001600160a01b031663d0e30db083600081518110611fe657611fe66140e8565b60200260200101516040518263ffffffff1660e01b81526004016000604051808303818588803b15801561201957600080fd5b505af115801561202d573d6000803e3d6000fd5b50505050507f00000000000000000000000000000000000000000000000000000000000000006001600160a01b031663a9059cbb6120987f00000000000000000000000000000000000000000000000000000000000000008b8b60008181106114c3576114c36140e8565b846000815181106120ab576120ab6140e8565b60200260200101516040518363ffffffff1660e01b81526004016120e49291906001600160a01b03929092168252602082015260400190565b6020604051808303816000875af1158015612103573d6000803e3d6000fd5b505050506040513d601f19601f82011682018060405250810190612127919061417e565b612133576121336139a9565b6105ae8289898080602002602001604051908101604052809392919081815260200183836020028082843760009201919091525050604080516020808d0282810182019093528c82529093508c92508b9182918501908490808284376000920191909152508a9250612b81915050565b80428110156121c45760405162461bcd60e51b81526004016104f290614062565b6121da87876000818110611cb957611cb96140e8565b600087876121e96001826141d5565b8181106121f8576121f86140e8565b905060200201602081019061220d919061413f565b6040516370a0823160e01b81526001600160a01b03868116600483015291909116906370a0823190602401602060405180830381865afa158015612255573d6000803e3d6000fd5b505050506040513d601f19601f82011682018060405250810190612279919061408e565b90506122ea88888080602002602001604051908101604052809392919081815260200183836020028082843760009201919091525050604080516020808c0282810182019093528b82529093508b92508a9182918501908490808284376000920191909152508992506133cf915050565b888189896122f96001826141d5565b818110612308576123086140e8565b905060200201602081019061231d919061413f565b6040516370a0823160e01b81526001600160a01b03888116600483015291909116906370a08231906024016116ff565b600080600083428110156123735760405162461bcd60e51b81526004016104f290614062565b6123a28b7f00000000000000000000000000000000000000000000000000000000000000008c8c348d8d612eaf565b909450925060006123f57f00000000000000000000000000000000000000000000000000000000000000008d7f00000000000000000000000000000000000000000000000000000000000000008e612784565b90506124038c338388612a43565b7f00000000000000000000000000000000000000000000000000000000000000006001600160a01b031663d0e30db0856040518263ffffffff1660e01b81526004016000604051808303818588803b15801561245e57600080fd5b505af1158015612472573d6000803e3d6000fd5b505060405163a9059cbb60e01b81526001600160a01b038581166004830152602482018990527f000000000000000000000000000000000000000000000000000000000000000016935063a9059cbb925060440190506020604051808303816000875af11580156124e7573d6000803e3d6000fd5b505050506040513d601f19601f8201168201806040525081019061250b919061417e565b612517576125176139a9565b6040516335313c2160e11b81526001600160a01b038881166004830152821690636a627842906024016020604051808303816000875af115801561255f573d6000803e3d6000fd5b505050506040513d601f19601f82011682018060405250810190612583919061408e565b92508334111561259b5761259b33611bfc86346141d5565b50509750975097945050505050565b604080516001600160a01b038481166024830152604480830185905283518084039091018152606490920183526020820180516001600160e01b031663a9059cbb60e01b1790529151600092839290871691612606919061428e565b6000604051808303816000865af19150503d8060008114612643576040519150601f19603f3d011682016040523d82523d6000602084013e612648565b606091505b5091509150818015612672575080511580612672575080806020019051810190612672919061417e565b6126d45760405162461bcd60e51b815260206004820152602d60248201527f5472616e7366657248656c7065723a3a736166655472616e736665723a20747260448201526c185b9cd9995c8819985a5b1959609a1b60648201526084016104f2565b5050505050565b6126ea64e8d4a51000826142aa565b6126f99064e8d4a510006142cc565b604051632e1a7d4d60e01b8152600481018290529091507f00000000000000000000000000000000000000000000000000000000000000006001600160a01b031690632e1a7d4d90602401600060405180830381600087803b15801561275e57600080fd5b505af1158015612772573d6000803e3d6000fd5b505050506127808282613716565b5050565b60008060006127938686612db6565b91509150868282866040516020016127ad939291906142e3565b60408051601f19818403018152908290528051602091820120612828939290917f5a46d8e7d5ac420387bd203f5fcd5593ba34af9f0ee9b781a31834bec17eda9091016001600160f81b0319815260609390931b6bffffffffffffffffffffffff191660018401526015830191909152603582015260550190565b60408051601f198184030181529190528051602090910120979650505050505050565b606060028351101561289f5760405162461bcd60e51b815260206004820181905260248201527f496f7461426565537761704c6962726172793a20494e56414c49445f5041544860448201526064016104f2565b600183516128ad91906141d5565b8251146128cc5760405162461bcd60e51b81526004016104f29061430b565b825167ffffffffffffffff8111156128e6576128e6613a5f565b60405190808252806020026020018201604052801561290f578160200160208202803683370190505b50905083816001835161292291906141d5565b81518110612932576129326140e8565b60200260200101818152505060006001845161294e91906141d5565b90505b8015612a3a576000806129bb888761296a6001876141d5565b8151811061297a5761297a6140e8565b6020026020010151888681518110612994576129946140e8565b60200260200101518887815181106129ae576129ae6140e8565b60200260200101516137f5565b915091506129fd8484815181106129d4576129d46140e8565b602002602001015183838887815181106129f0576129f06140e8565b60200260200101516138c1565b84612a096001866141d5565b81518110612a1957612a196140e8565b60200260200101818152505050508080612a329061434e565b915050612951565b50949350505050565b604080516001600160a01b0385811660248301528481166044830152606480830185905283518084039091018152608490920183526020820180516001600160e01b03166323b872dd60e01b1790529151600092839290881691612aa7919061428e565b6000604051808303816000865af19150503d8060008114612ae4576040519150601f19603f3d011682016040523d82523d6000602084013e612ae9565b606091505b5091509150818015612b13575080511580612b13575080806020019051810190612b13919061417e565b612b795760405162461bcd60e51b815260206004820152603160248201527f5472616e7366657248656c7065723a3a7472616e7366657246726f6d3a207472604482015270185b9cd9995c919c9bdb4819985a5b1959607a1b60648201526084016104f2565b505050505050565b60005b60018451612b9291906141d5565b8110156126d457600080858381518110612bae57612bae6140e8565b602002602001015186846001612bc49190614365565b81518110612bd457612bd46140e8565b6020026020010151915091506000612bec8383612db6565b509050600088612bfd866001614365565b81518110612c0d57612c0d6140e8565b60200260200101519050600080836001600160a01b0316866001600160a01b031614612c3b57826000612c3f565b6000835b91509150600060028b51612c5391906141d5565b8810612c5f5788612cd3565b612cd37f0000000000000000000000000000000000000000000000000000000000000000878d612c908c6002614365565b81518110612ca057612ca06140e8565b60200260200101518d8c6001612cb69190614365565b81518110612cc657612cc66140e8565b6020026020010151612784565b9050612d0d7f000000000000000000000000000000000000000000000000000000000000000088888d8c81518110612cc657612cc66140e8565b6001600160a01b031663022c0d9f84848460006040519080825280601f01601f191660200182016040528015612d4a576020820181803683370190505b506040518563ffffffff1660e01b8152600401612d6a9493929190614378565b600060405180830381600087803b158015612d8457600080fd5b505af1158015612d98573d6000803e3d6000fd5b50505050505050505050508080612dae906143c8565b915050612b84565b600080826001600160a01b0316846001600160a01b031603612e2a5760405162461bcd60e51b815260206004820152602760248201527f496f7461426565537761704c6962726172793a204944454e544943414c5f41446044820152664452455353455360c81b60648201526084016104f2565b826001600160a01b0316846001600160a01b031610612e4a578284612e4d565b83835b90925090506001600160a01b038216612ea85760405162461bcd60e51b815260206004820181905260248201527f496f7461426565537761704c6962726172793a205a45524f5f4144445245535360448201526064016104f2565b9250929050565b604051630b4c774160e11b8152600090819081907f00000000000000000000000000000000000000000000000000000000000000006001600160a01b031690631698ee8290612f06908d908d908d906004016142e3565b602060405180830381865afa158015612f23573d6000803e3d6000fd5b505050506040513d601f19601f82011682018060405250810190612f4791906143e1565b6001600160a01b031603612fea5760405163a167129560e01b81526001600160a01b037f0000000000000000000000000000000000000000000000000000000000000000169063a167129590612fa5908c908c908c906004016142e3565b6020604051808303816000875af1158015612fc4573d6000803e3d6000fd5b505050506040513d601f19601f82011682018060405250810190612fe891906143e1565b505b6000806130197f00000000000000000000000000000000000000000000000000000000000000008c8c8c6137f5565b9150915081600014801561302b575080155b1561303b57879350869250613123565b6000613048898484613686565b90508781116130ac57858110156130a15760405162461bcd60e51b815260206004820181905260248201527f494253526f757465723a20494e53554646494349454e545f425f414d4f554e5460448201526064016104f2565b889450925082613121565b60006130b9898486613686565b9050898111156130cb576130cb6139a9565b8781101561311b5760405162461bcd60e51b815260206004820181905260248201527f494253526f757465723a20494e53554646494349454e545f415f414d4f554e5460448201526064016104f2565b94508793505b505b505097509795505050505050565b60008085116131865760405162461bcd60e51b815260206004820152602d60248201526000805160206144c183398151915260448201526c17d25394155517d05353d55395609a1b60648201526084016104f2565b6000841180156131965750600083115b6131b25760405162461bcd60e51b81526004016104f2906143fe565b60006131c183620186a0614436565b6131d09062ffffff16876142cc565b905060006131de85836142cc565b90506000826131f0620186a0896142cc565b6131fa9190614365565b905061320681836142aa565b98975050505050505050565b60606002835110156132665760405162461bcd60e51b815260206004820181905260248201527f496f7461426565537761704c6962726172793a20494e56414c49445f5041544860448201526064016104f2565b6001835161327491906141d5565b8251146132935760405162461bcd60e51b81526004016104f29061430b565b825167ffffffffffffffff8111156132ad576132ad613a5f565b6040519080825280602002602001820160405280156132d6578160200160208202803683370190505b50905083816000815181106132ed576132ed6140e8565b60200260200101818152505060005b6001845161330a91906141d5565b811015612a3a576000806133508887858151811061332a5761332a6140e8565b6020026020010151888660016133409190614365565b81518110612994576129946140e8565b91509150613392848481518110613369576133696140e8565b60200260200101518383888781518110613385576133856140e8565b6020026020010151613131565b8461339e856001614365565b815181106133ae576133ae6140e8565b602002602001018181525050505080806133c7906143c8565b9150506132fc565b60005b600184516133e091906141d5565b811015613680576000808583815181106133fc576133fc6140e8565b6020026020010151868460016134129190614365565b81518110613422576134226140e8565b602002602001015191509150600061343a8383612db6565b50905060006134777f000000000000000000000000000000000000000000000000000000000000000085858a8981518110612cc657612cc66140e8565b90506000806000806134b77f000000000000000000000000000000000000000000000000000000000000000089898e8d815181106129ae576129ae6140e8565b6040516370a0823160e01b81526001600160a01b03888116600483015292945090925083918a16906370a0823190602401602060405180830381865afa158015613505573d6000803e3d6000fd5b505050506040513d601f19601f82011682018060405250810190613529919061408e565b61353391906141d5565b935061354d8483838e8d81518110613385576133856140e8565b92505050600080856001600160a01b0316886001600160a01b03161461357557826000613579565b6000835b91509150600060028d5161358d91906141d5565b8a10613599578a6135f0565b6135f07f0000000000000000000000000000000000000000000000000000000000000000898f6135ca8e6002614365565b815181106135da576135da6140e8565b60200260200101518f8e6001612cb69190614365565b6040805160008152602081019182905263022c0d9f60e01b9091529091506001600160a01b0387169063022c0d9f906136329086908690869060248101614378565b600060405180830381600087803b15801561364c57600080fd5b505af1158015613660573d6000803e3d6000fd5b505050505050505050505050508080613678906143c8565b9150506133d2565b50505050565b60008084116136d55760405162461bcd60e51b815260206004820152602760248201526000805160206144c183398151915260448201526617d05353d5539560ca1b60648201526084016104f2565b6000831180156136e55750600082115b6137015760405162461bcd60e51b81526004016104f2906143fe565b8261370c83866142cc565b61184391906142aa565b604080516000808252602082019092526001600160a01b038416908390604051613740919061428e565b60006040518083038185875af1925050503d806000811461377d576040519150601f19603f3d011682016040523d82523d6000602084013e613782565b606091505b50509050806137f05760405162461bcd60e51b815260206004820152603460248201527f5472616e7366657248656c7065723a3a736166655472616e736665724554483a60448201527308115512081d1c985b9cd9995c8819985a5b195960621b60648201526084016104f2565b505050565b60008060006138048686612db6565b50905060008061381689898989612784565b6001600160a01b0316630902f1ac6040518163ffffffff1660e01b8152600401606060405180830381865afa158015613853573d6000803e3d6000fd5b505050506040513d601f19601f820116820180604052508101906138779190614470565b506001600160701b031691506001600160701b03169150826001600160a01b0316886001600160a01b0316146138ae5780826138b1565b81815b909a909950975050505050505050565b60008085116139175760405162461bcd60e51b815260206004820152602e60248201526000805160206144c183398151915260448201526d17d3d55514155517d05353d5539560921b60648201526084016104f2565b6000841180156139275750600083115b6139435760405162461bcd60e51b81526004016104f2906143fe565b6000620186a061395387876142cc565b61395d91906142cc565b9050600061396e84620186a0614436565b62ffffff1661397d88876141d5565b61398791906142cc565b905061399381836142aa565b61399e906001614365565b979650505050505050565b634e487b7160e01b600052600160045260246000fd5b6001600160a01b03811681146139d457600080fd5b50565b803562ffffff811681146139ea57600080fd5b919050565b600080600080600080600060e0888a031215613a0a57600080fd5b8735613a15816139bf565b9650613a23602089016139d7565b955060408801359450606088013593506080880135925060a0880135613a48816139bf565b8092505060c0880135905092959891949750929550565b634e487b7160e01b600052604160045260246000fd5b604051601f8201601f1916810167ffffffffffffffff81118282101715613a9e57613a9e613a5f565b604052919050565b80151581146139d457600080fd5b600060808284031215613ac657600080fd5b6040516080810181811067ffffffffffffffff82111715613ae957613ae9613a5f565b6040529050808235613afa81613aa6565b8152602083013560ff81168114613b1057600080fd5b8060208301525060408301356040820152606083013560608201525092915050565b60008060008060008060008060006101808a8c031215613b5157600080fd5b8935613b5c816139bf565b985060208a0135613b6c816139bf565b9750613b7a60408b016139d7565b965060608a0135955060808a0135945060a08a0135935060c08a0135613b9f816139bf565b925060e08a01359150613bb68b6101008c01613ab4565b90509295985092959850929598565b600080600080600080600080610160898b031215613be257600080fd5b8835613bed816139bf565b9750613bfb60208a016139d7565b965060408901359550606089013594506080890135935060a0890135613c20816139bf565b925060c08901359150613c368a60e08b01613ab4565b90509295985092959890939650565b60008083601f840112613c5757600080fd5b50813567ffffffffffffffff811115613c6f57600080fd5b6020830191508360208260051b8501011115612ea857600080fd5b60008060008060008060008060c0898b031215613ca657600080fd5b8835975060208901359650604089013567ffffffffffffffff80821115613ccc57600080fd5b613cd88c838d01613c45565b909850965060608b0135915080821115613cf157600080fd5b50613cfe8b828c01613c45565b9095509350506080890135613d12816139bf565b8092505060a089013590509295985092959890939650565b6020808252825182820181905260009190848201906040850190845b81811015613d6257835183529284019291840191600101613d46565b50909695505050505050565b600080600080600080600080610100898b031215613d8b57600080fd5b8835613d96816139bf565b97506020890135613da6816139bf565b9650613db460408a016139d7565b9550606089013594506080890135935060a0890135925060c0890135613dd9816139bf565b8092505060e089013590509295985092959890939650565b60008060008060008060008060006101208a8c031215613e1057600080fd5b8935613e1b816139bf565b985060208a0135613e2b816139bf565b9750613e3960408b016139d7565b965060608a0135955060808a0135945060a08a0135935060c08a0135925060e08a0135613e65816139bf565b809250506101008a013590509295985092959850929598565b60008060008060808587031215613e9457600080fd5b843593506020850135925060408501359150613eb2606086016139d7565b905092959194509250565b600080600080600080600060a0888a031215613ed857600080fd5b87359650602088013567ffffffffffffffff80821115613ef757600080fd5b613f038b838c01613c45565b909850965060408a0135915080821115613f1c57600080fd5b50613f298a828b01613c45565b9095509350506060880135613f3d816139bf565b809250506080880135905092959891949750929550565b60008060008060608587031215613f6a57600080fd5b8435935060208086013567ffffffffffffffff80821115613f8a57600080fd5b818801915088601f830112613f9e57600080fd5b813581811115613fb057613fb0613a5f565b8060051b613fbf858201613a75565b918252838101850191858101908c841115613fd957600080fd5b948601945b838610156140035785359250613ff3836139bf565b8282529486019490860190613fde565b9850505050604088013592508083111561401c57600080fd5b505061402a87828801613c45565b95989497509550505050565b60008060006060848603121561404b57600080fd5b505081359360208301359350604090920135919050565b602080825260129082015271125094d49bdd5d195c8e881156141254915160721b604082015260600190565b6000602082840312156140a057600080fd5b5051919050565b6001600160a01b0397881681529590961660208601526040850193909352606084019190915260ff16608083015260a082015260c081019190915260e00190565b634e487b7160e01b600052603260045260246000fd5b60208082526021908201527f494253526f757465723a204558434553534956455f494e5055545f414d4f554e6040820152601560fa1b606082015260800190565b60006020828403121561415157600080fd5b813561415c816139bf565b9392505050565b60006020828403121561417557600080fd5b61415c826139d7565b60006020828403121561419057600080fd5b815161415c81613aa6565b600080604083850312156141ae57600080fd5b505080516020909101519092909150565b634e487b7160e01b600052601160045260246000fd5b818103818111156141e8576141e86141bf565b92915050565b60208082526017908201527f494253526f757465723a20494e56414c49445f50415448000000000000000000604082015260600190565b60208082526025908201527f494253526f757465723a20494e53554646494349454e545f4f55545055545f416040820152641353d5539560da1b606082015260800190565b60005b8381101561428557818101518382015260200161426d565b50506000910152565b600082516142a081846020870161426a565b9190910192915050565b6000826142c757634e487b7160e01b600052601260045260246000fd5b500490565b80820281158282048414176141e8576141e86141bf565b6001600160a01b03938416815291909216602082015262ffffff909116604082015260600190565b60208082526023908201527f496f7461426565537761704c6962726172793a20494e56414c49445f4645455260408201526241544560e81b606082015260800190565b60008161435d5761435d6141bf565b506000190190565b808201808211156141e8576141e86141bf565b84815283602082015260018060a01b038316604082015260806060820152600082518060808401526143b18160a085016020870161426a565b601f01601f19169190910160a00195945050505050565b6000600182016143da576143da6141bf565b5060010190565b6000602082840312156143f357600080fd5b815161415c816139bf565b6020808252602a908201526000805160206144c18339815191526040820152695f4c495155494449545960b01b606082015260800190565b62ffffff828116828216039080821115614452576144526141bf565b5092915050565b80516001600160701b03811681146139ea57600080fd5b60008060006060848603121561448557600080fd5b61448e84614459565b925061449c60208501614459565b9150604084015163ffffffff811681146144b557600080fd5b80915050925092509256fe496f7461426565537761704c6962726172793a20494e53554646494349454e54a26469706673582212203dc1ee9f7d314687c1ef4b52843639886562db358680ea17a0e753b2aa3a37c564736f6c63430008110033",
  "linkReferences": {},
  "deployedLinkReferences": {}
}