{
  "_format": "hh-sol-artifact-1",
  "contractName": "IotaBeeSwapFactory",
  "sourceName": "contracts/core/IotaBeeFactory.sol",
  "abi": [
    {
      "inputs": [],
      "stateMutability": "nonpayable",
      "type": "constructor"
    },
    {
      "anonymous": false,
      "inputs": [
        {
          "indexed": true,
          "internalType": "address",
          "name": "token0",
          "type": "address"
        },
        {
          "indexed": true,
          "internalType": "address",
          "name": "token1",
          "type": "address"
        },
        {
          "indexed": true,
          "internalType": "uint24",
          "name": "feeRate",
          "type": "uint24"
        },
        {
          "indexed": false,
          "internalType": "address",
          "name": "pool",
          "type": "address"
        }
      ],
      "name": "PoolCreated",
      "type": "event"
    },
    {
      "inputs": [],
      "name": "POOL_INIT_CODE_HASH",
      "outputs": [
        {
          "internalType": "bytes32",
          "name": "",
          "type": "bytes32"
        }
      ],
      "stateMutability": "pure",
      "type": "function"
    },
    {
      "inputs": [],
      "name": "acceptFeeToSetter",
      "outputs": [],
      "stateMutability": "nonpayable",
      "type": "function"
    },
    {
      "inputs": [
        {
          "internalType": "uint256",
          "name": "",
          "type": "uint256"
        }
      ],
      "name": "allPools",
      "outputs": [
        {
          "internalType": "address",
          "name": "",
          "type": "address"
        }
      ],
      "stateMutability": "view",
      "type": "function"
    },
    {
      "inputs": [],
      "name": "allPoolsLength",
      "outputs": [
        {
          "internalType": "uint256",
          "name": "",
          "type": "uint256"
        }
      ],
      "stateMutability": "view",
      "type": "function"
    },
    {
      "inputs": [
        {
          "internalType": "address",
          "name": "tokenA",
          "type": "address"
        },
        {
          "internalType": "address",
          "name": "tokenB",
          "type": "address"
        },
        {
          "internalType": "uint24",
          "name": "feeRate",
          "type": "uint24"
        }
      ],
      "name": "createPool",
      "outputs": [
        {
          "internalType": "address",
          "name": "pool",
          "type": "address"
        }
      ],
      "stateMutability": "nonpayable",
      "type": "function"
    },
    {
      "inputs": [
        {
          "internalType": "uint24",
          "name": "feeRate",
          "type": "uint24"
        },
        {
          "internalType": "bool",
          "name": "bOn",
          "type": "bool"
        }
      ],
      "name": "enableFeeAmount",
      "outputs": [],
      "stateMutability": "nonpayable",
      "type": "function"
    },
    {
      "inputs": [
        {
          "internalType": "uint24",
          "name": "",
          "type": "uint24"
        }
      ],
      "name": "feeRateAmount",
      "outputs": [
        {
          "internalType": "int24",
          "name": "",
          "type": "int24"
        }
      ],
      "stateMutability": "view",
      "type": "function"
    },
    {
      "inputs": [],
      "name": "feeTo",
      "outputs": [
        {
          "internalType": "address",
          "name": "",
          "type": "address"
        }
      ],
      "stateMutability": "view",
      "type": "function"
    },
    {
      "inputs": [
        {
          "internalType": "address",
          "name": "",
          "type": "address"
        },
        {
          "internalType": "address",
          "name": "",
          "type": "address"
        },
        {
          "internalType": "uint24",
          "name": "",
          "type": "uint24"
        }
      ],
      "name": "getPool",
      "outputs": [
        {
          "internalType": "address",
          "name": "",
          "type": "address"
        }
      ],
      "stateMutability": "view",
      "type": "function"
    },
    {
      "inputs": [],
      "name": "owner",
      "outputs": [
        {
          "internalType": "address",
          "name": "",
          "type": "address"
        }
      ],
      "stateMutability": "view",
      "type": "function"
    },
    {
      "inputs": [],
      "name": "parameters",
      "outputs": [
        {
          "internalType": "address",
          "name": "factory",
          "type": "address"
        },
        {
          "internalType": "address",
          "name": "token0",
          "type": "address"
        },
        {
          "internalType": "address",
          "name": "token1",
          "type": "address"
        },
        {
          "internalType": "uint24",
          "name": "feeRate",
          "type": "uint24"
        }
      ],
      "stateMutability": "view",
      "type": "function"
    },
    {
      "inputs": [
        {
          "internalType": "address",
          "name": "_feeTo",
          "type": "address"
        }
      ],
      "name": "setFeeTo",
      "outputs": [],
      "stateMutability": "nonpayable",
      "type": "function"
    },
    {
      "inputs": [
        {
          "internalType": "address",
          "name": "_owner",
          "type": "address"
        }
      ],
      "name": "setOwner",
      "outputs": [],
      "stateMutability": "nonpayable",
      "type": "function"
    }
  ],
  "bytecode": "0x608060405234801561001057600080fd5b50600480546001600160a01b0319163317905560066020527fd4c27e5d2ce7b7345f78d7f5ddc8b90697d63512e00b9f949b158a467d0bfffc805462ffffff1990811660019081179092557fe35badbf25c63a5d1ab35b3ca6cb3f58b64f38e5dcf8f0175fb3933f138973f580548216831790556103e86000527ff416400a389b2271c5c6051273e6b62961b6906215e5f4d9099a99323151c03f805490911690911790556130ee806100c46000396000f3fe608060405234801561001057600080fd5b50600436106100cf5760003560e01c8063890357301161008c578063dc6fd8ab11610066578063dc6fd8ab1461020b578063e321047414610221578063efde4e6414610257578063f46901ed1461025f57600080fd5b806389035730146101815780638da5cb5b146101e5578063a1671295146101f857600080fd5b8063017e7e58146100d457806313af4035146101045780631698ee82146101195780632dd072a01461015357806341d1de971461015b5780635ea8a5d81461016e575b600080fd5b6003546100e7906001600160a01b031681565b6040516001600160a01b0390911681526020015b60405180910390f35b61011761011236600461082b565b610272565b005b6100e7610127366004610860565b60076020908152600093845260408085208252928452828420905282529020546001600160a01b031681565b6101176102c7565b6100e76101693660046108a3565b610318565b61011761017c3660046108bc565b610342565b6000546001546002546101b0926001600160a01b039081169281169190811690600160a01b900462ffffff1684565b604080516001600160a01b0395861681529385166020850152919093169082015262ffffff90911660608201526080016100fb565b6004546100e7906001600160a01b031681565b6100e7610206366004610860565b6103a1565b61021361065e565b6040519081526020016100fb565b61024461022f3660046108f8565b60066020526000908152604090205460020b81565b60405160029190910b81526020016100fb565b600854610213565b61011761026d36600461082b565b6106ad565b6004546001600160a01b031633146102a55760405162461bcd60e51b815260040161029c90610913565b60405180910390fd5b600580546001600160a01b0319166001600160a01b0392909216919091179055565b6005546001600160a01b031633146102f15760405162461bcd60e51b815260040161029c90610913565b60058054600480546001600160a01b03199081166001600160a01b03841617909155169055565b6008818154811061032857600080fd5b6000918252602090912001546001600160a01b0316905081565b6004546001600160a01b0316331461035957600080fd5b620186a08262ffffff161061036d57600080fd5b60008115610379575060015b62ffffff9283166000908152600660205260409020805462ffffff1916919093161790915550565b6000826001600160a01b0316846001600160a01b0316036104045760405162461bcd60e51b815260206004820181905260248201527f496f7461426565537761703a204944454e544943414c5f414444524553534553604482015260640161029c565b600080846001600160a01b0316866001600160a01b03161061042757848661042a565b85855b90925090506001600160a01b0382166104855760405162461bcd60e51b815260206004820152601960248201527f496f7461426565537761703a205a45524f5f4144445245535300000000000000604482015260640161029c565b62ffffff841660009081526006602052604081205460020b90036104eb5760405162461bcd60e51b815260206004820152601c60248201527f496f7461426565537761703a20494e56414c49445f4645455241544500000000604482015260640161029c565b6001600160a01b0382811660009081526007602090815260408083208585168452825280832062ffffff89168452909152902054161561056d5760405162461bcd60e51b815260206004820152601860248201527f496f7461426565537761703a20504f4f4c5f4558495354530000000000000000604482015260640161029c565b610579308383876106f9565b6001600160a01b03838116600081815260076020818152604080842088871680865290835281852062ffffff8d168087529084528286208054988a166001600160a01b0319998a1681179091558287529484528286208787528452828620818752845282862080548916861790556008805460018101825596527ff3f7a9fe364faab93b216da50a3214154f22a0a2b415b23a84c8169e8b636ee3909501805490971684179096555191825294975090937f97d23878912fda7f82bd5a8502f2c6e9086f5a4728f9054627788b3162f86ced910160405180910390a450509392505050565b60006040518060200161067090610801565b601f1982820381018352601f9091011660408190526106929190602001610943565b60405160208183030381529060405280519060200120905090565b6004546001600160a01b031633146106d75760405162461bcd60e51b815260040161029c90610913565b600380546001600160a01b0319166001600160a01b0392909216919091179055565b60408051608080820183526001600160a01b03878116808452878216602080860182905292881685870181905262ffffff88166060968701819052600080546001600160a01b03199081169095178155600180549095168417909455600280546001600160b81b0319168317600160a01b83021790558751948501929092529583019590955292810193909352909101604051602081830303815290604052805190602001206040516107ab90610801565b8190604051809103906000f59050801580156107cb573d6000803e3d6000fd5b50600080546001600160a01b0319908116909155600180549091169055600280546001600160b81b031916905595945050505050565b612746806200097383390190565b80356001600160a01b038116811461082657600080fd5b919050565b60006020828403121561083d57600080fd5b6108468261080f565b9392505050565b803562ffffff8116811461082657600080fd5b60008060006060848603121561087557600080fd5b61087e8461080f565b925061088c6020850161080f565b915061089a6040850161084d565b90509250925092565b6000602082840312156108b557600080fd5b5035919050565b600080604083850312156108cf57600080fd5b6108d88361084d565b9150602083013580151581146108ed57600080fd5b809150509250929050565b60006020828403121561090a57600080fd5b6108468261084d565b60208082526016908201527524b7ba30a132b2a9bbb0b81d102327a92124a22222a760511b604082015260600190565b6000825160005b81811015610964576020818601810151858301520161094a565b50600092019182525091905056fe61012060405260016008553480156200001757600080fd5b50604080518082018252601581527f496f74614265652d506f6f6c2d4c502d546f6b656e00000000000000000000006020918201528151808301835260018152603160f81b9082015281517f8b73c3c69bb8fe3d512ecc4cf759cc79239f7b179b0ffacaa9a75d522b39400f918101919091527f500f2a4d648f49e8e087007c8a8635bf39c31c6fa28f3251b3fbaac428faea00918101919091527fc89efdaa54c0f20c7adf612882df0950f5a951637e0307cdcb4c672f298b8bc660608201524660808201523060a082015260c00160408051601f1981840301815282825280516020909101206080908152630890357360e41b83529051339263890357309260048083019391928290030181865afa1580156200013a573d6000803e3d6000fd5b505050506040513d601f19601f82011682018060405250810190620001609190620001a4565b62ffffff16610100526001600160a01b0390811660e05290811660c0521660a0526200020a565b80516001600160a01b03811681146200019f57600080fd5b919050565b60008060008060808587031215620001bb57600080fd5b620001c68562000187565b9350620001d66020860162000187565b9250620001e66040860162000187565b9150606085015162ffffff81168114620001ff57600080fd5b939692955090935050565b60805160a05160c05160e05161010051612479620002cd60003960008181610414015281816109f00152610a3a0152600081816104c50152818161068e0152818161074b0152818161088c01528181610d0f01528181610fa0015281816113d1015261171b015260008181610284015281816106510152818161071a015281816107f601528181610c8101528181610f7e0152818161131f015261169301526000818161049e0152611bbe01526000818161032e015261148501526124796000f3fe608060405234801561001057600080fd5b50600436106101c45760003560e01c80637464fc3d116100f9578063ba9a7a5611610097578063d21220a711610071578063d21220a7146104c0578063d505accf146104e7578063dd62ed3e146104fa578063fff6cae91461052557600080fd5b8063ba9a7a561461047d578063bc25cf7714610486578063c45a01551461049957600080fd5b806395d89b41116100d357806395d89b41146103e6578063978bbdb91461040f5780639ca6ce121461044a578063a9059cbb1461046a57600080fd5b80637464fc3d146103955780637ecebe001461039e57806389afcb44146103be57600080fd5b806330adf81f116101665780635909c0d5116101405780635909c0d5146103505780635a3d5493146103595780636a6278421461036257806370a082311461037557600080fd5b806330adf81f146102e8578063313ce5671461030f5780633644e5151461032957600080fd5b8063095ea7b3116101a2578063095ea7b31461025c5780630dfe16811461027f57806318160ddd146102be57806323b872dd146102d557600080fd5b8063022c0d9f146101c957806306fdde03146101de5780630902f1ac14610228575b600080fd5b6101dc6101d7366004611edf565b61052d565b005b6102126040518060400160405280601581526020017424b7ba30a132b296a837b7b616a62816aa37b5b2b760591b81525081565b60405161021f9190611f99565b60405180910390f35b610230610b6c565b604080516001600160701b03948516815293909216602084015263ffffffff169082015260600161021f565b61026f61026a366004611fcc565b610b96565b604051901515815260200161021f565b6102a67f000000000000000000000000000000000000000000000000000000000000000081565b6040516001600160a01b03909116815260200161021f565b6102c760005481565b60405190815260200161021f565b61026f6102e3366004611ff8565b610bad565b6102c77f6e71edae12b1b97f4d1f60370fef10105fa2faae0126114a169c64845d6126c981565b610317601281565b60405160ff909116815260200161021f565b6102c77f000000000000000000000000000000000000000000000000000000000000000081565b6102c760055481565b6102c760065481565b6102c7610370366004612039565b610c27565b6102c7610383366004612039565b60016020526000908152604090205481565b6102c760075481565b6102c76103ac366004612039565b60036020526000908152604090205481565b6103d16103cc366004612039565b610f2e565b6040805192835260208301919091520161021f565b6102126040518060400160405280600a8152602001690494f54414245452d4c560b41b81525081565b6104367f000000000000000000000000000000000000000000000000000000000000000081565b60405162ffffff909116815260200161021f565b610454620186a081565b60405164ffffffffff909116815260200161021f565b61026f610478366004611fcc565b6112cc565b6102c76103e881565b6101dc610494366004612039565b6112d9565b6102a67f000000000000000000000000000000000000000000000000000000000000000081565b6102a67f000000000000000000000000000000000000000000000000000000000000000081565b6101dc6104f5366004612056565b611426565b6102c76105083660046120cd565b600260209081526000928352604080842090915290825290205481565b6101dc611653565b6008546001146105585760405162461bcd60e51b815260040161054f90612106565b60405180910390fd5b60006008558415158061056b5750600084115b6105c75760405162461bcd60e51b815260206004820152602760248201527f496f7461426565537761703a20494e53554646494349454e545f4f555450555460448201526617d05353d5539560ca1b606482015260840161054f565b6000806105d2610b6c565b5091509150816001600160701b0316871080156105f75750806001600160701b031686105b61064f5760405162461bcd60e51b815260206004820152602360248201527f496f7461426565537761703a20494e53554646494349454e545f4c495155494460448201526249545960e81b606482015260840161054f565b7f00000000000000000000000000000000000000000000000000000000000000006001600160a01b0316856001600160a01b0316141580156106c357507f00000000000000000000000000000000000000000000000000000000000000006001600160a01b0316856001600160a01b031614155b61070f5760405162461bcd60e51b815260206004820152601760248201527f496f7461426565537761703a20494e56414c49445f544f000000000000000000604482015260640161054f565b8615610740576107407f000000000000000000000000000000000000000000000000000000000000000086896117b1565b8515610771576107717f000000000000000000000000000000000000000000000000000000000000000086886117b1565b82156107de5760405163d843a2d360e01b81526001600160a01b0386169063d843a2d3906107ab9033908b908b908a908a90600401612133565b600060405180830381600087803b1580156107c557600080fd5b505af11580156107d9573d6000803e3d6000fd5b505050505b6040516370a0823160e01b81523060048201526000907f00000000000000000000000000000000000000000000000000000000000000006001600160a01b0316906370a0823190602401602060405180830381865afa158015610845573d6000803e3d6000fd5b505050506040513d601f19601f82011682018060405250810190610869919061217f565b6040516370a0823160e01b81523060048201529091506000906001600160a01b037f000000000000000000000000000000000000000000000000000000000000000016906370a0823190602401602060405180830381865afa1580156108d3573d6000803e3d6000fd5b505050506040513d601f19601f820116820180604052508101906108f7919061217f565b9050600061090e8a6001600160701b0387166121ae565b831161091b576000610938565b61092e8a6001600160701b0387166121ae565b61093890846121ae565b9050600061094f8a6001600160701b0387166121ae565b831161095c576000610979565b61096f8a6001600160701b0387166121ae565b61097990846121ae565b9050600082118061098a5750600081115b6109e55760405162461bcd60e51b815260206004820152602660248201527f496f7461426565537761703a20494e53554646494349454e545f494e5055545f604482015265105353d5539560d21b606482015260840161054f565b6000610a1662ffffff7f000000000000000000000000000000000000000000000000000000000000000016846121c1565b610a23620186a0876121c1565b610a2d91906121ae565b90506000610a6062ffffff7f000000000000000000000000000000000000000000000000000000000000000016846121c1565b610a6d620186a0876121c1565b610a7791906121ae565b9050610a876002620186a06122ed565b64ffffffffff16610aa46001600160701b03808a16908b166121c1565b610aae91906121c1565b610ab882846121c1565b1015610af75760405162461bcd60e51b815260206004820152600e60248201526d496f7461426565537761703a204b60901b604482015260640161054f565b5050610b05848488886118fc565b60408051838152602081018390529081018c9052606081018b90526001600160a01b038a169033907fd78ad95fa46c994b6551d0da85fc275fe613ce37657fb8d5e3d130840159d8229060800160405180910390a350506001600855505050505050505050565b6004546001600160701b0380821692600160701b830490911691600160e01b900463ffffffff1690565b6000610ba3338484611ab6565b5060015b92915050565b6001600160a01b038316600090815260026020908152604080832033845290915281205460001914610c12576001600160a01b038416600090815260026020908152604080832033845290915281208054849290610c0c9084906121ae565b90915550505b610c1d848484611b18565b5060019392505050565b6000600854600114610c4b5760405162461bcd60e51b815260040161054f90612106565b6000600881905580610c5b610b6c565b506040516370a0823160e01b815230600482015291935091506000906001600160a01b037f000000000000000000000000000000000000000000000000000000000000000016906370a0823190602401602060405180830381865afa158015610cc8573d6000803e3d6000fd5b505050506040513d601f19601f82011682018060405250810190610cec919061217f565b6040516370a0823160e01b81523060048201529091506000906001600160a01b037f000000000000000000000000000000000000000000000000000000000000000016906370a0823190602401602060405180830381865afa158015610d56573d6000803e3d6000fd5b505050506040513d601f19601f82011682018060405250810190610d7a919061217f565b90506000610d916001600160701b038616846121ae565b90506000610da86001600160701b038616846121ae565b90506000610db68787611bb9565b60008054919250819003610df7576103e8610dd9610dd485876121c1565b611d05565b610de391906121ae565b9850610df260006103e8611d75565b610e3e565b610e3b6001600160701b038916610e0e83876121c1565b610e189190612319565b6001600160701b038916610e2c84876121c1565b610e369190612319565b611dfe565b98505b60008911610ea15760405162461bcd60e51b815260206004820152602a60248201527f496f7461426565537761703a20494e53554646494349454e545f4c495155494460448201526912551657d3525395115160b21b606482015260840161054f565b610eab8a8a611d75565b610eb786868a8a6118fc565b8115610ee057600454610edc906001600160701b03600160701b8204811691166121c1565b6007555b604080518581526020810185905233917f4c209b5fc8ad50758f13e2e1088ba56a560dff690a1c6fef26394f4c03821c4f910160405180910390a25050600160085550949695505050505050565b600080600854600114610f535760405162461bcd60e51b815260040161054f90612106565b6000600881905580610f63610b6c565b506040516370a0823160e01b815230600482015291935091507f0000000000000000000000000000000000000000000000000000000000000000907f0000000000000000000000000000000000000000000000000000000000000000906000906001600160a01b038416906370a0823190602401602060405180830381865afa158015610ff4573d6000803e3d6000fd5b505050506040513d601f19601f82011682018060405250810190611018919061217f565b6040516370a0823160e01b81523060048201529091506000906001600160a01b038416906370a0823190602401602060405180830381865afa158015611062573d6000803e3d6000fd5b505050506040513d601f19601f82011682018060405250810190611086919061217f565b306000908152600160205260408120549192506110a38888611bb9565b600054909150806110b486856121c1565b6110be9190612319565b9a50806110cb85856121c1565b6110d59190612319565b995060008b1180156110e7575060008a115b6111465760405162461bcd60e51b815260206004820152602a60248201527f496f7461426565537761703a20494e53554646494349454e545f4c495155494460448201526912551657d0955493915160b21b606482015260840161054f565b6111503084611e16565b61115b878d8d6117b1565b611166868d8c6117b1565b6040516370a0823160e01b81523060048201526001600160a01b038816906370a0823190602401602060405180830381865afa1580156111aa573d6000803e3d6000fd5b505050506040513d601f19601f820116820180604052508101906111ce919061217f565b6040516370a0823160e01b81523060048201529095506001600160a01b038716906370a0823190602401602060405180830381865afa158015611215573d6000803e3d6000fd5b505050506040513d601f19601f82011682018060405250810190611239919061217f565b935061124785858b8b6118fc565b81156112705760045461126c906001600160701b03600160701b8204811691166121c1565b6007555b604080518c8152602081018c90526001600160a01b038e169133917fdccd412f0b1252819cb1fd330b93224ca42612892bb3f4f789976e6d81936496910160405180910390a35050505050505050506001600881905550915091565b6000610ba3338484611b18565b6008546001146112fb5760405162461bcd60e51b815260040161054f90612106565b6000600855600480546040516370a0823160e01b815230928101929092526113b2917f00000000000000000000000000000000000000000000000000000000000000009184916001600160701b03909116906001600160a01b038416906370a08231906024015b602060405180830381865afa15801561137f573d6000803e3d6000fd5b505050506040513d601f19601f820116820180604052508101906113a3919061217f565b6113ad91906121ae565b6117b1565b600480546040516370a0823160e01b8152309281019290925261141e917f0000000000000000000000000000000000000000000000000000000000000000918491600160701b9091046001600160701b0316906001600160a01b038416906370a0823190602401611362565b506001600855565b428410156114695760405162461bcd60e51b815260206004820152601060248201526f125bdd185099594e88115e1c1a5c995960821b604482015260640161054f565b6001600160a01b038716600090815260036020526040812080547f0000000000000000000000000000000000000000000000000000000000000000917f6e71edae12b1b97f4d1f60370fef10105fa2faae0126114a169c64845d6126c9918b918b918b91876114d78361232d565b909155506040805160208101969096526001600160a01b0394851690860152929091166060840152608083015260a082015260c0810187905260e0016040516020818303038152906040528051906020012060405160200161155092919061190160f01b81526002810192909252602282015260420190565b60408051601f198184030181528282528051602091820120600080855291840180845281905260ff88169284019290925260608301869052608083018590529092509060019060a0016020604051602081039080840390855afa1580156115bb573d6000803e3d6000fd5b5050604051601f1901519150506001600160a01b038116158015906115f15750886001600160a01b0316816001600160a01b0316145b61163d5760405162461bcd60e51b815260206004820152601a60248201527f496f74614265653a20494e56414c49445f5349474e4154555245000000000000604482015260640161054f565b611648898989611ab6565b505050505050505050565b6008546001146116755760405162461bcd60e51b815260040161054f90612106565b60006008556040516370a0823160e01b81523060048201526117aa907f00000000000000000000000000000000000000000000000000000000000000006001600160a01b0316906370a0823190602401602060405180830381865afa1580156116e2573d6000803e3d6000fd5b505050506040513d601f19601f82011682018060405250810190611706919061217f565b6040516370a0823160e01b81523060048201527f00000000000000000000000000000000000000000000000000000000000000006001600160a01b0316906370a0823190602401602060405180830381865afa15801561176a573d6000803e3d6000fd5b505050506040513d601f19601f8201168201806040525081019061178e919061217f565b6004546001600160701b0380821691600160701b9004166118fc565b6001600855565b604080518082018252601981527f7472616e7366657228616464726573732c75696e74323536290000000000000060209182015281516001600160a01b0385811660248301526044808301869052845180840390910181526064909201845291810180516001600160e01b031663a9059cbb60e01b1790529151600092839287169161183d9190612346565b6000604051808303816000865af19150503d806000811461187a576040519150601f19603f3d011682016040523d82523d6000602084013e61187f565b606091505b50915091508180156118a95750805115806118a95750808060200190518101906118a99190612362565b6118f55760405162461bcd60e51b815260206004820152601c60248201527f496f7461426565537761703a205452414e534645525f4641494c454400000000604482015260640161054f565b5050505050565b6001600160701b03841180159061191a57506001600160701b038311155b61195e5760405162461bcd60e51b8152602060048201526015602482015274496f7461426565537761703a204f766572666c6f7760581b604482015260640161054f565b600061196f64010000000042612384565b60045490915063ffffffff600160e01b909104811682039081161580159061199f57506001600160701b03841615155b80156119b357506001600160701b03831615155b15611a1e578063ffffffff166119db856119cc86611e99565b6001600160e01b031690611eb2565b600580546001600160e01b03929092169290920201905563ffffffff8116611a06846119cc87611e99565b600680546001600160e01b0392909216929092020190555b6004805463ffffffff8416600160e01b026001600160e01b036001600160701b03898116600160701b9081026001600160e01b03199095168c83161794909417918216831794859055604080519382169282169290921783529290930490911660208201527f1c411e9a96e071241c2f21f7726b17ae89e3cab4c78be50e062b03a9fffbbad1910160405180910390a1505050505050565b6001600160a01b0383811660008181526002602090815260408083209487168084529482529182902085905590518481527f8c5be1e5ebec7d5bd14f71427d1e84f3dd0314c0f7b2291e5b200ac8c7c3b92591015b60405180910390a3505050565b6001600160a01b03831660009081526001602052604081208054839290611b409084906121ae565b90915550506001600160a01b03821660009081526001602052604081208054839290611b6d908490612398565b92505081905550816001600160a01b0316836001600160a01b03167fddf252ad1be2c89b69c2b068fc378daa952ba7f163c4a11628f55a4df523b3ef83604051611b0b91815260200190565b6000807f00000000000000000000000000000000000000000000000000000000000000006001600160a01b031663017e7e586040518163ffffffff1660e01b8152600401602060405180830381865afa158015611c1a573d6000803e3d6000fd5b505050506040513d601f19601f82011682018060405250810190611c3e91906123ab565b6007546001600160a01b038216158015945091925090611cf1578015611cec576000611c7b611c6d86886123c8565b6001600160701b0316611d05565b90506000611c8883611d05565b905080821115611ce9576000611c9e82846121ae565b600054611cab91906121c1565b9050600082611cbb8560056121c1565b611cc59190612398565b90506000611cd38284612319565b90508015611ce557611ce58782611d75565b5050505b50505b611cfd565b8015611cfd5760006007555b505092915050565b60006003821115611d665750806000611d1f600283612319565b611d2a906001612398565b90505b81811015611d6057905080600281611d458186612319565b611d4f9190612398565b611d599190612319565b9050611d2d565b50919050565b8115611d70575060015b919050565b80600080828254611d869190612398565b90915550506001600160a01b03821660009081526001602052604081208054839290611db3908490612398565b90915550506040518181526001600160a01b038316906000907fddf252ad1be2c89b69c2b068fc378daa952ba7f163c4a11628f55a4df523b3ef906020015b60405180910390a35050565b6000818310611e0d5781611e0f565b825b9392505050565b6001600160a01b03821660009081526001602052604081208054839290611e3e9084906121ae565b9250508190555080600080828254611e5691906121ae565b90915550506040518181526000906001600160a01b038416907fddf252ad1be2c89b69c2b068fc378daa952ba7f163c4a11628f55a4df523b3ef90602001611df2565b6000610ba7600160701b6001600160701b0384166123eb565b6000611e0f6001600160701b0383168461241d565b6001600160a01b0381168114611edc57600080fd5b50565b600080600080600060808688031215611ef757600080fd5b85359450602086013593506040860135611f1081611ec7565b9250606086013567ffffffffffffffff80821115611f2d57600080fd5b818801915088601f830112611f4157600080fd5b813581811115611f5057600080fd5b896020828501011115611f6257600080fd5b9699959850939650602001949392505050565b60005b83811015611f90578181015183820152602001611f78565b50506000910152565b6020815260008251806020840152611fb8816040850160208701611f75565b601f01601f19169190910160400192915050565b60008060408385031215611fdf57600080fd5b8235611fea81611ec7565b946020939093013593505050565b60008060006060848603121561200d57600080fd5b833561201881611ec7565b9250602084013561202881611ec7565b929592945050506040919091013590565b60006020828403121561204b57600080fd5b8135611e0f81611ec7565b600080600080600080600060e0888a03121561207157600080fd5b873561207c81611ec7565b9650602088013561208c81611ec7565b95506040880135945060608801359350608088013560ff811681146120b057600080fd5b9699959850939692959460a0840135945060c09093013592915050565b600080604083850312156120e057600080fd5b82356120eb81611ec7565b915060208301356120fb81611ec7565b809150509250929050565b602080825260139082015272125bdd1850995954ddd85c0e881313d0d2d151606a1b604082015260600190565b60018060a01b038616815284602082015283604082015260806060820152816080820152818360a0830137600081830160a090810191909152601f909201601f19160101949350505050565b60006020828403121561219157600080fd5b5051919050565b634e487b7160e01b600052601160045260246000fd5b81810381811115610ba757610ba7612198565b8082028115828204841417610ba757610ba7612198565b600181815b80851115612216578164ffffffffff048211156121fc576121fc612198565b8085161561220957918102915b93841c93908002906121dd565b509250929050565b60008261222d57506001610ba7565b8161223a57506000610ba7565b8160018114612250576002811461225a5761228c565b6001915050610ba7565b60ff84111561226b5761226b612198565b6001841b915064ffffffffff82111561228657612286612198565b50610ba7565b5060208310610133831016604e8410600b84101617156122c4575081810a64ffffffffff8111156122bf576122bf612198565b610ba7565b6122ce83836121d8565b8064ffffffffff048211156122e5576122e5612198565b029392505050565b6000611e0f60ff841664ffffffffff841661221e565b634e487b7160e01b600052601260045260246000fd5b60008261232857612328612303565b500490565b60006001820161233f5761233f612198565b5060010190565b60008251612358818460208701611f75565b9190910192915050565b60006020828403121561237457600080fd5b81518015158114611e0f57600080fd5b60008261239357612393612303565b500690565b80820180821115610ba757610ba7612198565b6000602082840312156123bd57600080fd5b8151611e0f81611ec7565b6001600160701b03818116838216028082169190828114611cfd57611cfd612198565b6001600160e01b0382811682821681810283169291811582850482141761241457612414612198565b50505092915050565b60006001600160e01b038381168061243757612437612303565b9216919091049291505056fea2646970667358221220e45ef7b83b8f288d749a337050b65643f9e6599a02050644dc330ff76ce057b964736f6c63430008110033a26469706673582212205461cbbcf7b78eeaf6c8204a1fc832277464394ba80bbe0f842537dfdc14530d64736f6c63430008110033",
  "linkReferences": {},
  "deployedLinkReferences": {}
}