{
  "_format": "hh-sol-artifact-1",
  "contractName": "UniswapV3Factory",
  "sourceName": "contracts/UniswapV3Factory.sol",
  "abi": [
    {
      "inputs": [],
      "stateMutability": "nonpayable",
      "type": "constructor"
    },
    {
      "anonymous": false,
      "inputs": [
        {
          "indexed": true,
          "internalType": "uint24",
          "name": "fee",
          "type": "uint24"
        },
        {
          "indexed": true,
          "internalType": "int24",
          "name": "tickSpacing",
          "type": "int24"
        }
      ],
      "name": "FeeAmountEnabled",
      "type": "event"
    },
    {
      "anonymous": false,
      "inputs": [
        {
          "indexed": true,
          "internalType": "address",
          "name": "oldOwner",
          "type": "address"
        },
        {
          "indexed": true,
          "internalType": "address",
          "name": "newOwner",
          "type": "address"
        }
      ],
      "name": "OwnerChanged",
      "type": "event"
    },
    {
      "anonymous": false,
      "inputs": [
        {
          "indexed": true,
          "internalType": "address",
          "name": "token0",
          "type": "address"
        },
        {
          "indexed": true,
          "internalType": "address",
          "name": "token1",
          "type": "address"
        },
        {
          "indexed": true,
          "internalType": "uint24",
          "name": "fee",
          "type": "uint24"
        },
        {
          "indexed": false,
          "internalType": "int24",
          "name": "tickSpacing",
          "type": "int24"
        },
        {
          "indexed": false,
          "internalType": "address",
          "name": "pool",
          "type": "address"
        }
      ],
      "name": "PoolCreated",
      "type": "event"
    },
    {
      "inputs": [],
      "name": "POOL_INIT_CODE_HASH",
      "outputs": [
        {
          "internalType": "bytes32",
          "name": "",
          "type": "bytes32"
        }
      ],
      "stateMutability": "pure",
      "type": "function"
    },
    {
      "inputs": [
        {
          "internalType": "address",
          "name": "tokenA",
          "type": "address"
        },
        {
          "internalType": "address",
          "name": "tokenB",
          "type": "address"
        },
        {
          "internalType": "uint24",
          "name": "fee",
          "type": "uint24"
        }
      ],
      "name": "createPool",
      "outputs": [
        {
          "internalType": "address",
          "name": "pool",
          "type": "address"
        }
      ],
      "stateMutability": "nonpayable",
      "type": "function"
    },
    {
      "inputs": [
        {
          "internalType": "uint24",
          "name": "fee",
          "type": "uint24"
        },
        {
          "internalType": "int24",
          "name": "tickSpacing",
          "type": "int24"
        }
      ],
      "name": "enableFeeAmount",
      "outputs": [],
      "stateMutability": "nonpayable",
      "type": "function"
    },
    {
      "inputs": [
        {
          "internalType": "uint24",
          "name": "",
          "type": "uint24"
        }
      ],
      "name": "feeAmountTickSpacing",
      "outputs": [
        {
          "internalType": "int24",
          "name": "",
          "type": "int24"
        }
      ],
      "stateMutability": "view",
      "type": "function"
    },
    {
      "inputs": [
        {
          "internalType": "address",
          "name": "",
          "type": "address"
        },
        {
          "internalType": "address",
          "name": "",
          "type": "address"
        },
        {
          "internalType": "uint24",
          "name": "",
          "type": "uint24"
        }
      ],
      "name": "getPool",
      "outputs": [
        {
          "internalType": "address",
          "name": "",
          "type": "address"
        }
      ],
      "stateMutability": "view",
      "type": "function"
    },
    {
      "inputs": [],
      "name": "owner",
      "outputs": [
        {
          "internalType": "address",
          "name": "",
          "type": "address"
        }
      ],
      "stateMutability": "view",
      "type": "function"
    },
    {
      "inputs": [],
      "name": "parameters",
      "outputs": [
        {
          "internalType": "address",
          "name": "factory",
          "type": "address"
        },
        {
          "internalType": "address",
          "name": "token0",
          "type": "address"
        },
        {
          "internalType": "address",
          "name": "token1",
          "type": "address"
        },
        {
          "internalType": "uint24",
          "name": "fee",
          "type": "uint24"
        },
        {
          "internalType": "int24",
          "name": "tickSpacing",
          "type": "int24"
        }
      ],
      "stateMutability": "view",
      "type": "function"
    },
    {
      "inputs": [
        {
          "internalType": "address",
          "name": "_owner",
          "type": "address"
        }
      ],
      "name": "setOwner",
      "outputs": [],
      "stateMutability": "nonpayable",
      "type": "function"
    }
  ],
  "bytecode": "0x60a060405234801561001057600080fd5b503060601b608052600380546001600160a01b031916339081179091556040516000907fb532073b38c83145e3e5135377a08bf9aab55bc0fd7c1179cd4fb995d2a5159c908290a36101f4600081815260046020527ffb8cf1d12598d1a039dd1d106665851a96aadf67d0d9ed76fceea282119208b7805462ffffff1916600a90811790915560405190929160008051602061637583398151915291a3610bb8600081815260046020527f72dffa9b822156d9cf4b0090fa0b656bcb9cc2b2c60eb6acfc20a34f54b31743805462ffffff1916603c90811790915560405190929160008051602061637583398151915291a3612710600081815260046020527f8cc740d51daa94ff54f33bd779c2d20149f524c340519b49181be5a08615f829805462ffffff191660c890811790915560405190929160008051602061637583398151915291a360805160601c6162016101746000398061060e52506162016000f3fe608060405234801561001057600080fd5b50600436106100885760003560e01c80638a7c195f1161005b5780638a7c195f146101905780638da5cb5b146101bb578063a1671295146101c3578063dc6fd8ab146101ff57610088565b806313af40351461008d5780631698ee82146100b557806322afcccb1461010d5780638903573014610146575b600080fd5b6100b3600480360360208110156100a357600080fd5b50356001600160a01b0316610219565b005b6100f1600480360360608110156100cb57600080fd5b5080356001600160a01b03908116916020810135909116906040013562ffffff1661028c565b604080516001600160a01b039092168252519081900360200190f35b61012f6004803603602081101561012357600080fd5b503562ffffff166102b8565b6040805160029290920b8252519081900360200190f35b61014e6102cd565b604080516001600160a01b0396871681529486166020860152929094168383015262ffffff16606083015260029290920b608082015290519081900360a00190f35b6100b3600480360360408110156101a657600080fd5b5062ffffff813516906020013560020b610303565b6100f16103c6565b6100f1600480360360608110156101d957600080fd5b5080356001600160a01b03908116916020810135909116906040013562ffffff166103d5565b61020761056b565b60408051918252519081900360200190f35b6003546001600160a01b0316331461023057600080fd5b6003546040516001600160a01b038084169216907fb532073b38c83145e3e5135377a08bf9aab55bc0fd7c1179cd4fb995d2a5159c90600090a3600380546001600160a01b0319166001600160a01b0392909216919091179055565b60056020908152600093845260408085208252928452828420905282529020546001600160a01b031681565b60046020526000908152604090205460020b81565b600054600154600280546001600160a01b03938416939283169281169162ffffff600160a01b83041691600160b81b9004900b85565b6003546001600160a01b0316331461031a57600080fd5b620f42408262ffffff161061032e57600080fd5b60008160020b13801561034557506140008160020b125b61034e57600080fd5b62ffffff8216600090815260046020526040902054600290810b900b1561037457600080fd5b62ffffff828116600081815260046020526040808220805462ffffff1916600287900b958616179055517fc66a3fdf07232cdd185febcc6579d408c241b47ae2f9907d84be655141eeaecc9190a35050565b6003546001600160a01b031681565b60006103df610603565b826001600160a01b0316846001600160a01b031614156103fe57600080fd5b600080846001600160a01b0316866001600160a01b031610610421578486610424565b85855b90925090506001600160a01b03821661043c57600080fd5b62ffffff8416600090815260046020526040902054600290810b9081900b61046357600080fd5b6001600160a01b0383811660009081526005602090815260408083208685168452825280832062ffffff8a16845290915290205416156104a257600080fd5b6104af308484888561063a565b6001600160a01b03808516600081815260056020818152604080842089871680865290835281852062ffffff8e168087529084528286208054988a166001600160a01b0319998a1681179091558287529484528286208787528452828620818752845294829020805490971684179096558051600289900b815291820192909252815195995091947f783cca1c0412dd0d695e784568c96da2e9c22ff989357a2e8b1d9b2b4e6b71189281900390910190a45050509392505050565b60006040518060200161057d90610768565b6020820181038252601f19601f820116604052506040516020018082805190602001908083835b602083106105c35780518252601f1990920191602091820191016105a4565b6001836020036101000a03801982511681845116808217855250505050505090500191505060405160208183030381529060405280519060200120905090565b306001600160a01b037f0000000000000000000000000000000000000000000000000000000000000000161461063857600080fd5b565b6040805160a0810182526001600160a01b03878116808352878216602080850182905292881684860181905262ffffff888116606080880182905260028a810b6080998a01819052600080546001600160a01b03199081169099178155600180548a16891790558254909816861762ffffff60a01b1916600160a01b85021762ffffff60b81b1916600160b81b91830b909516029390931790925587518087019490945283880192909252828101919091528551808303909101815293019384905282519290910191909120909161071190610768565b8190604051809103906000f5905080158015610731573d6000803e3d6000fd5b50600080546001600160a01b0319908116909155600180549091169055600280546001600160d01b03191690559695505050505050565b615a56806107768339019056fe6101606040523480156200001257600080fd5b503060601b60805260408051630890357360e41b81529051600091339163890357309160048082019260a092909190829003018186803b1580156200005657600080fd5b505afa1580156200006b573d6000803e3d6000fd5b505050506040513d60a08110156200008257600080fd5b508051602080830151604084015160608086015160809096015160e896871b6001600160e81b0319166101005291811b6001600160601b031990811660e05292811b831660c0529390931b1660a052600282810b900b90921b610120529150620000f79082906200010f811b6200287d17901c565b60801b6001600160801b03191661014052506200017d565b60008082600281900b620d89e719816200012557fe5b05029050600083600281900b620d89e8816200013d57fe5b0502905060008460020b83830360020b816200015557fe5b0560010190508062ffffff166001600160801b038016816200017357fe5b0495945050505050565b60805160601c60a05160601c60c05160601c60e05160601c6101005160e81c6101205160e81c6101405160801c6158076200024f60003980611c13528061478052806147b75250806126395280612a7a52806147eb528061481d525080610af752806115f052806116275280612681525080610deb52806116aa5280611b19528061204e528061265d528061328f52508061090e5280610f1952806116795280611ab35280611fc85280613140525080611ca05280611e87528061255552806126155250806128f452506158076000f3fe608060405234801561001057600080fd5b50600436106101c45760003560e01c80638206a4d1116100f9578063c45a015511610097578063ddca3f4311610071578063ddca3f431461083c578063f30583991461085c578063f30dba9314610864578063f637731d146108e6576101c4565b8063c45a01551461080d578063d0c93a7c14610815578063d21220a714610834576101c4565b8063888c4dd4116100d3578063888c4dd41461074a578063a34123a714610752578063a38807f21461078c578063b6188fb2146107e7576101c4565b80638206a4d1146105de57806385b6672914610606578063883bdbfd14610643576101c4565b80633c8a7d8d116101665780634f1eb3d8116101405780634f1eb3d81461050c578063514ea4bf1461055d5780635339c296146105b657806370cf754a146105d6576101c4565b80633c8a7d8d146103c85780634614131914610468578063490e6cbc14610482576101c4565b80631ad8b03b116101a25780631ad8b03b146102be578063252c09d7146102f557806332148f671461034c5780633850c7bd1461036f576101c4565b80630dfe1681146101c9578063128acb08146101ed5780631a6865021461029a575b600080fd5b6101d161090c565b604080516001600160a01b039092168252519081900360200190f35b610281600480360360a081101561020357600080fd5b6001600160a01b0382358116926020810135151592604082013592606083013516919081019060a081016080820135600160201b81111561024357600080fd5b82018360208201111561025557600080fd5b803590602001918460018302840111600160201b8311171561027657600080fd5b509092509050610930565b6040805192835260208301919091528051918290030190f35b6102a26110d3565b604080516001600160801b039092168252519081900360200190f35b6102c66110e2565b60405180836001600160801b03168152602001826001600160801b031681526020019250505060405180910390f35b6103126004803603602081101561030b57600080fd5b50356110fc565b6040805163ffffffff909516855260069390930b60208501526001600160a01b039091168383015215156060830152519081900360800190f35b61036d6004803603602081101561036257600080fd5b503561ffff16611141565b005b61037761123b565b604080516001600160a01b03909816885260029690960b602088015261ffff9485168787015292841660608701529216608085015260ff90911660a0840152151560c0830152519081900360e00190f35b610281600480360360a08110156103de57600080fd5b6001600160a01b03823516916020810135600290810b92604083013590910b916001600160801b036060820135169181019060a081016080820135600160201b81111561042a57600080fd5b82018360208201111561043c57600080fd5b803590602001918460018302840111600160201b8311171561045d57600080fd5b50909250905061128b565b610470611547565b60408051918252519081900360200190f35b61036d6004803603608081101561049857600080fd5b6001600160a01b038235169160208101359160408201359190810190608081016060820135600160201b8111156104ce57600080fd5b8201836020820111156104e057600080fd5b803590602001918460018302840111600160201b8311171561050157600080fd5b50909250905061154d565b6102c6600480360360a081101561052257600080fd5b506001600160a01b03813516906020810135600290810b91604081013590910b906001600160801b03606082013581169160800135166119a8565b61057a6004803603602081101561057357600080fd5b5035611bc2565b604080516001600160801b0396871681526020810195909552848101939093529084166060840152909216608082015290519081900360a00190f35b610470600480360360208110156105cc57600080fd5b503560010b611bff565b6102a2611c11565b61036d600480360360408110156105f457600080fd5b5060ff81358116916020013516611c35565b6102c66004803603606081101561061c57600080fd5b506001600160a01b03813516906001600160801b0360208201358116916040013516611e19565b6106b16004803603602081101561065957600080fd5b810190602081018135600160201b81111561067357600080fd5b82018360208201111561068557600080fd5b803590602001918460208302840111600160201b831117156106a657600080fd5b5090925090506120e6565b604051808060200180602001838103835285818151815260200191508051906020019060200280838360005b838110156106f55781810151838201526020016106dd565b50505050905001838103825284818151815260200191508051906020019060200280838360005b8381101561073457818101518382015260200161071c565b5050505090500194505050505060405180910390f35b6101d1612173565b6102816004803603606081101561076857600080fd5b508035600290810b91602081013590910b90604001356001600160801b0316612184565b6107b6600480360360408110156107a257600080fd5b508035600290810b9160200135900b6122fb565b6040805160069490940b84526001600160a01b03909216602084015263ffffffff1682820152519081900360600190f35b61036d600480360360208110156107fd57600080fd5b50356001600160a01b03166124ea565b6101d1612613565b61081d612637565b6040805160029290920b8252519081900360200190f35b6101d161265b565b61084461267f565b6040805162ffffff9092168252519081900360200190f35b6104706126a3565b6108846004803603602081101561087a57600080fd5b503560020b6126a9565b604080516001600160801b039099168952600f9790970b602089015287870195909552606087019390935260069190910b60808601526001600160a01b031660a085015263ffffffff1660c0840152151560e083015251908190036101000190f35b61036d600480360360208110156108fc57600080fd5b50356001600160a01b0316612713565b7f000000000000000000000000000000000000000000000000000000000000000081565b60008061093b6128e9565b85610972576040805162461bcd60e51b8152602060048201526002602482015261415360f01b604482015290519081900360640190fd5b6040805160e0810182526000546001600160a01b0381168252600160a01b8104600290810b810b900b602083015261ffff600160b81b8204811693830193909352600160c81b810483166060830152600160d81b8104909216608082015260ff600160e81b8304811660a0830152600160f01b909204909116151560c08201819052610a2b576040805162461bcd60e51b81526020600482015260036024820152624c4f4b60e81b604482015290519081900360640190fd5b87610a765780600001516001600160a01b0316866001600160a01b0316118015610a71575073fffd8963efd1fc6a506488495d951d5263988d266001600160a01b038716105b610aa8565b80600001516001600160a01b0316866001600160a01b0316108015610aa857506401000276a36001600160a01b038716115b610adf576040805162461bcd60e51b815260206004820152600360248201526214d41360ea1b604482015290519081900360640190fd5b6000805460ff60f01b191681556201000754908813907f0000000000000000000000000000000000000000000000000000000000000000906001600160a01b031615610bc857620100075460408051631dff1ce960e31b81526001600160a01b038e811660048301529151600093929092169163eff8e74891602480820192602092909190829003018186803b158015610b7857600080fd5b505afa158015610b8c573d6000803e3d6000fd5b505050506040513d6020811015610ba257600080fd5b50519050606460ff821610610bb5575060005b606490810360ff169190910262ffffff16045b600080610bd98c8c8c87878a612920565b91509150846020015160020b816060015160020b14610cab57600080610c2b87604001518560400151896020015187602001518b606001518c608001516008612e08909695949392919063ffffffff16565b604085015160608601516000805461ffff60c81b1916600160c81b61ffff958616021761ffff60b81b1916600160b81b95909416949094029290921762ffffff60a01b1916600160a01b62ffffff60029490940b9390931692909202919091176001600160a01b0319166001600160a01b0390911617905550610cd09050565b6040810151600080546001600160a01b0319166001600160a01b039092169190911790555b8060c001516001600160801b031682602001516001600160801b031614610d165760c0810151600480546001600160801b0319166001600160801b039092169190911790555b8b15610d6657608081015160015560a08101516001600160801b031615610d615760a0810151600380546001600160801b031981166001600160801b03918216909301169190911790555b610dac565b608081015160025560a08101516001600160801b031615610dac5760a0810151600380546001600160801b03808216600160801b92839004821690940116029190911790555b8315158c151514610dc557602081015181518c03610dd2565b80600001518b0381602001515b90975095508b15610f0b576000861215610e1457610e147f00000000000000000000000000000000000000000000000000000000000000008e88600003612fa4565b6000610e1e6130f2565b9050336001600160a01b031663fa461e3389898d8d6040518563ffffffff1660e01b815260040180858152602001848152602001806020018281038252848482818152602001925080828437600081840152601f19601f82011690508083019250505095505050505050600060405180830381600087803b158015610ea257600080fd5b505af1158015610eb6573d6000803e3d6000fd5b50505050610ec26130f2565b610ecc828a61322b565b1115610f05576040805162461bcd60e51b815260206004820152600360248201526249494160e81b604482015290519081900360640190fd5b50611035565b6000871215610f4257610f427f00000000000000000000000000000000000000000000000000000000000000008e89600003612fa4565b6000610f4c613241565b9050336001600160a01b031663fa461e3389898d8d6040518563ffffffff1660e01b815260040180858152602001848152602001806020018281038252848482818152602001925080828437600081840152601f19601f82011690508083019250505095505050505050600060405180830381600087803b158015610fd057600080fd5b505af1158015610fe4573d6000803e3d6000fd5b50505050610ff0613241565b610ffa828961322b565b1115611033576040805162461bcd60e51b815260206004820152600360248201526249494160e81b604482015290519081900360640190fd5b505b60408082015160c083015160608085015184518c8152602081018c90526001600160a01b03948516818701526001600160801b039093169183019190915260020b60808201529151908f169133917fc42079f94a6350d7e6235f29174924f928cc2ac818eb64fed8004e115fbcca679181900360a00190a350506000805460ff60f01b1916600160f01b179055509299919850909650505050505050565b6004546001600160801b031681565b6003546001600160801b0380821691600160801b90041682565b60088161ffff811061110d57600080fd5b015463ffffffff81169150600160201b810460060b90600160581b81046001600160a01b031690600160f81b900460ff1684565b600054600160f01b900460ff16611185576040805162461bcd60e51b81526020600482015260036024820152624c4f4b60e81b604482015290519081900360640190fd5b6000805460ff60f01b1916905561119a6128e9565b60008054600160d81b900461ffff16906111b6600883856132d9565b6000805461ffff808416600160d81b810261ffff60d81b1990931692909217909255919250831614611223576040805161ffff80851682528316602082015281517fac49e518f90a358f652e4400164f05a5d8f7e35e7747279bc3a93dbf584e125a929181900390910190a15b50506000805460ff60f01b1916600160f01b17905550565b6000546001600160a01b03811690600160a01b810460020b9061ffff600160b81b8204811691600160c81b8104821691600160d81b8204169060ff600160e81b8204811691600160f01b90041687565b600080548190600160f01b900460ff166112d2576040805162461bcd60e51b81526020600482015260036024820152624c4f4b60e81b604482015290519081900360640190fd5b6000805460ff60f01b191690556001600160801b0385166112f257600080fd5b60008061134060405180608001604052808c6001600160a01b031681526020018b60020b81526020018a60020b81526020016113368a6001600160801b031661337f565b600f0b9052613390565b925092505081935080925060008060008611156113625761135f6130f2565b91505b841561137357611370613241565b90505b336001600160a01b031663d348799787878b8b6040518563ffffffff1660e01b815260040180858152602001848152602001806020018281038252848482818152602001925080828437600081840152601f19601f82011690508083019250505095505050505050600060405180830381600087803b1580156113f557600080fd5b505af1158015611409573d6000803e3d6000fd5b5050505060008611156114605761141e6130f2565b611428838861322b565b1115611460576040805162461bcd60e51b815260206004820152600260248201526104d360f41b604482015290519081900360640190fd5b84156114b05761146e613241565b611478828761322b565b11156114b0576040805162461bcd60e51b81526020600482015260026024820152614d3160f01b604482015290519081900360640190fd5b8960020b8b60020b8d6001600160a01b03167f7a53080ba414158be7ec69b987b5fb7d07dee101fe85488f0853ae16239d0bde338d8b8b60405180856001600160a01b03168152602001846001600160801b0316815260200183815260200182815260200194505050505060405180910390a450506000805460ff60f01b1916600160f01b17905550919890975095505050505050565b60025481565b600054600160f01b900460ff16611591576040805162461bcd60e51b81526020600482015260036024820152624c4f4b60e81b604482015290519081900360640190fd5b6000805460ff60f01b191690556115a66128e9565b6004546001600160801b0316806115e8576040805162461bcd60e51b81526020600482015260016024820152601360fa1b604482015290519081900360640190fd5b600061161d867f000000000000000000000000000000000000000000000000000000000000000062ffffff16620f42406135d0565b90506000611654867f000000000000000000000000000000000000000000000000000000000000000062ffffff16620f42406135d0565b905060006116606130f2565b9050600061166c613241565b9050881561169f5761169f7f00000000000000000000000000000000000000000000000000000000000000008b8b612fa4565b87156116d0576116d07f00000000000000000000000000000000000000000000000000000000000000008b8a612fa4565b336001600160a01b031663e9cbafb085858a8a6040518563ffffffff1660e01b815260040180858152602001848152602001806020018281038252848482818152602001925080828437600081840152601f19601f82011690508083019250505095505050505050600060405180830381600087803b15801561175257600080fd5b505af1158015611766573d6000803e3d6000fd5b5050505060006117746130f2565b90506000611780613241565b90508161178d858861322b565b11156117c5576040805162461bcd60e51b8152602060048201526002602482015261046360f41b604482015290519081900360640190fd5b806117d0848761322b565b1115611808576040805162461bcd60e51b8152602060048201526002602482015261463160f01b604482015290519081900360640190fd5b83820383820381156118975760008054600160e81b9004600f1690811561183b578160ff16848161183557fe5b0461183e565b60005b90506001600160801b0381161561187157600380546001600160801b038082168401166001600160801b03199091161790555b61188b818503600160801b8d6001600160801b031661360a565b60018054909101905550505b80156119225760008054600160e81b900460041c600f169081156118c7578160ff1683816118c157fe5b046118ca565b60005b90506001600160801b038116156118fc57600380546001600160801b03600160801b8083048216850182160291161790555b611916818403600160801b8d6001600160801b031661360a565b60028054909101905550505b8d6001600160a01b0316336001600160a01b03167fbdbdb71d7860376ba52b25a5028beea23581364a40522f6bcfb86bb1f2dca6338f8f86866040518085815260200184815260200183815260200182815260200194505050505060405180910390a350506000805460ff60f01b1916600160f01b179055505050505050505050505050565b600080548190600160f01b900460ff166119ef576040805162461bcd60e51b81526020600482015260036024820152624c4f4b60e81b604482015290519081900360640190fd5b6000805460ff60f01b19168155611a0960073389896136b9565b60038101549091506001600160801b0390811690861611611a2a5784611a39565b60038101546001600160801b03165b60038201549093506001600160801b03600160801b909104811690851611611a615783611a77565b6003810154600160801b90046001600160801b03165b91506001600160801b03831615611adc576003810180546001600160801b031981166001600160801b03918216869003821617909155611adc907f0000000000000000000000000000000000000000000000000000000000000000908a908616612fa4565b6001600160801b03821615611b42576003810180546001600160801b03600160801b808304821686900382160291811691909117909155611b42907f0000000000000000000000000000000000000000000000000000000000000000908a908516612fa4565b604080516001600160a01b038a1681526001600160801b0380861660208301528416818301529051600288810b92908a900b9133917f70935338e69775456a85ddef226c395fb668b63fa0115f5f20610b388e6ca9c0919081900360600190a4506000805460ff60f01b1916600160f01b17905590969095509350505050565b60076020526000908152604090208054600182015460028301546003909301546001600160801b0392831693919281811691600160801b90041685565b60066020526000908152604090205481565b7f000000000000000000000000000000000000000000000000000000000000000081565b600054600160f01b900460ff16611c79576040805162461bcd60e51b81526020600482015260036024820152624c4f4b60e81b604482015290519081900360640190fd5b6000805460ff60f01b1916905560408051638da5cb5b60e01b815290516001600160a01b037f00000000000000000000000000000000000000000000000000000000000000001691638da5cb5b916004808301926020929190829003018186803b158015611ce657600080fd5b505afa158015611cfa573d6000803e3d6000fd5b505050506040513d6020811015611d1057600080fd5b50516001600160a01b03163314611d2657600080fd5b60ff82161580611d49575060048260ff1610158015611d495750600a8260ff1611155b8015611d73575060ff81161580611d73575060048160ff1610158015611d735750600a8160ff1611155b611d7c57600080fd5b60008054610ff0600484901b16840160ff908116600160e81b90810260ff60e81b19841617909355919004167f973d8d92bb299f4af6ce49b52a8adb85ae46b9f214c4c4fc06ac77401237b1336010826040805160ff9390920683168252600f600486901c16602083015286831682820152918516606082015290519081900360800190a150506000805460ff60f01b1916600160f01b17905550565b600080548190600160f01b900460ff16611e60576040805162461bcd60e51b81526020600482015260036024820152624c4f4b60e81b604482015290519081900360640190fd5b6000805460ff60f01b1916905560408051638da5cb5b60e01b815290516001600160a01b037f00000000000000000000000000000000000000000000000000000000000000001691638da5cb5b916004808301926020929190829003018186803b158015611ecd57600080fd5b505afa158015611ee1573d6000803e3d6000fd5b505050506040513d6020811015611ef757600080fd5b50516001600160a01b03163314611f0d57600080fd5b6003546001600160801b0390811690851611611f295783611f36565b6003546001600160801b03165b6003549092506001600160801b03600160801b909104811690841611611f5c5782611f70565b600354600160801b90046001600160801b03165b90506001600160801b03821615611ff1576003546001600160801b0383811691161415611f9f57600019909101905b600380546001600160801b031981166001600160801b03918216859003821617909155611ff1907f00000000000000000000000000000000000000000000000000000000000000009087908516612fa4565b6001600160801b03811615612077576003546001600160801b03828116600160801b90920416141561202257600019015b600380546001600160801b03600160801b808304821685900382160291811691909117909155612077907f00000000000000000000000000000000000000000000000000000000000000009087908416612fa4565b604080516001600160801b0380851682528316602082015281516001600160a01b0388169233927f596b573906218d3411850b26a6b437d6c4522fdb43d2d2386263f86d50b8b151929081900390910190a36000805460ff60f01b1916600160f01b1790559094909350915050565b6060806120f16128e9565b6121686120fc61371d565b858580806020026020016040519081016040528093929190818152602001838360200280828437600092018290525054600454600896959450600160a01b820460020b935061ffff600160b81b8304811693506001600160801b0390911691600160c81b900416613721565b915091509250929050565b62010007546001600160a01b031681565b600080548190600160f01b900460ff166121cb576040805162461bcd60e51b81526020600482015260036024820152624c4f4b60e81b604482015290519081900360640190fd5b6000805460ff60f01b1916815560408051608081018252338152600288810b602083015287900b918101919091528190819061222490606081016122176001600160801b038a1661337f565b600003600f0b9052613390565b92509250925081600003945080600003935060008511806122455750600084115b15612284576003830180546001600160801b038082168089018216600160801b93849004831689019092169092029091176001600160801b0319161790555b604080516001600160801b0388168152602081018790528082018690529051600289810b92908b900b9133917f0c396cd989a39f4459b5fa1aed6a9a8dcdbc45908acfd67e028cd568da98982c919081900360600190a450506000805460ff60f01b1916600160f01b179055509094909350915050565b60008060006123086128e9565b612312858561387b565b600285810b810b60009081526005602052604080822087840b90930b825281206003830154600681900b93600160381b82046001600160a01b0316928492600160d81b810463ffffffff169284929091600160f81b900460ff168061237657600080fd5b6003820154600681900b9850600160381b81046001600160a01b03169650600160d81b810463ffffffff169450600160f81b900460ff16806123b757600080fd5b50506040805160e0810182526000546001600160a01b0381168252600160a01b8104600290810b810b810b6020840181905261ffff600160b81b8404811695850195909552600160c81b830485166060850152600160d81b8304909416608084015260ff600160e81b8304811660a0850152600160f01b909204909116151560c08301529093508e810b91900b12159050612460575093909403965090039350900390506124e3565b8a60020b816020015160020b12156124d457600061247c61371d565b60208301516040840151600454606086015193945060009384936124b2936008938893879392916001600160801b031690613944565b9a9003989098039b5050949096039290920396509091030392506124e3915050565b50949093039650039350900390505b9250925092565b600054600160f01b900460ff1661252e576040805162461bcd60e51b81526020600482015260036024820152624c4f4b60e81b604482015290519081900360640190fd5b6000805460ff60f01b1916905560408051638da5cb5b60e01b815290516001600160a01b037f00000000000000000000000000000000000000000000000000000000000000001691638da5cb5b916004808301926020929190829003018186803b15801561259b57600080fd5b505afa1580156125af573d6000803e3d6000fd5b505050506040513d60208110156125c557600080fd5b50516001600160a01b031633146125db57600080fd5b6201000780546001600160a01b039092166001600160a01b03199092169190911790556000805460ff60f01b1916600160f01b179055565b7f000000000000000000000000000000000000000000000000000000000000000081565b7f000000000000000000000000000000000000000000000000000000000000000081565b7f000000000000000000000000000000000000000000000000000000000000000081565b7f000000000000000000000000000000000000000000000000000000000000000081565b60015481565b60056020526000908152604090208054600182015460028301546003909301546001600160801b03831693600160801b909304600f0b9290600681900b90600160381b81046001600160a01b031690600160d81b810463ffffffff1690600160f81b900460ff1688565b6000546001600160a01b031615612756576040805162461bcd60e51b8152602060048201526002602482015261414960f01b604482015290519081900360640190fd5b600061276182613ace565b905060008061277961277161371d565b600890613de9565b6040805160e0810182526001600160a01b038816808252600288810b6020808501829052600085870181905261ffff898116606088018190529089166080880181905260a08801839052600160c0909801979097528154600160f01b6001600160a01b0319909116871762ffffff60a01b1916600160a01b62ffffff9787900b97909716969096029590951763ffffffff60b81b1916600160c81b9091021761ffff60d81b1916600160d81b9096029590951761ffff60e81b191692909217909355835191825281019190915281519395509193507f98636036cb66a9c19a37435efc1e90142190214e8abeb821bdba3f2990dd4c9592918290030190a150505050565b60008082600281900b620d89e7198161289257fe5b05029050600083600281900b620d89e8816128a957fe5b0502905060008460020b83830360020b816128c057fe5b0560010190508062ffffff166001600160801b038016816128dd57fe5b0493505050505b919050565b306001600160a01b037f0000000000000000000000000000000000000000000000000000000000000000161461291e57600080fd5b565b612928615739565b61293061576e565b60006040518060c001604052808a6129535760048660a0015160ff16901c612966565b60108660a0015160ff168161296457fe5b065b60ff1681526004546001600160801b0316602082015260400161298761371d565b63ffffffff168152602001600060060b815260200160006001600160a01b0316815260200160001515815250905060006040518060e001604052808a81526020016000815260200186600001516001600160a01b03168152602001866020015160020b81526020018b6129fc57600254612a00565b6001545b815260200160006001600160801b0316815260200183602001516001600160801b031681525090505b805115801590612a4f5750876001600160a01b031681604001516001600160a01b031614155b15612df957612a5c61576e565b60408201516001600160a01b031681526060820151612a9f906006907f00000000000000000000000000000000000000000000000000000000000000008e613e35565b15156040830152600290810b810b60208301819052620d89e719910b1215612ad057620d89e7196020820152612aef565b6020810151620d89e860029190910b1315612aef57620d89e860208201525b612afc8160200151613f77565b6001600160a01b031660608201526040820151612b6d908c612b36578a6001600160a01b031683606001516001600160a01b031611612b50565b8a6001600160a01b031683606001516001600160a01b0316105b612b5e578260600151612b60565b8a5b60c085015185518b6142a8565b60c085015260a084015260808301526001600160a01b031660408301528715612bcf57612ba38160c0015182608001510161449a565b825103825260a0810151612bc590612bba9061449a565b6020840151906144b0565b6020830152612c0a565b612bdc8160a0015161449a565b825101825260c08101516080820151612c0491612bf9910161449a565b6020840151906144c6565b60208301525b825160ff1615612c50576000836000015160ff168260c0015181612c2a57fe5b60c0840180519290910491829003905260a0840180519091016001600160801b03169052505b60c08201516001600160801b031615612c8f57612c838160c00151600160801b8460c001516001600160801b031661360a565b60808301805190910190525b80606001516001600160a01b031682604001516001600160a01b03161415612db857806040015115612d8f578260a00151612d1957612cf7836040015160008860200151896040015187602001518b606001516008613944909695949392919063ffffffff16565b6001600160a01b03166080850152600690810b900b6060840152600160a08401525b6000612d6582602001518d612d3057600154612d36565b84608001515b8e612d45578560800151612d49565b6002545b6080880151606089015160408a015160059594939291906144dc565b90508b15612d71576000035b612d7f8360c0015182614596565b6001600160801b031660c0840152505b8a612d9e578060200151612da7565b60018160200151035b600290810b900b6060830152612df3565b80600001516001600160a01b031682604001516001600160a01b031614612df357612de68260400151613ace565b600290810b900b60608301525b50612a29565b90999098509650505050505050565b6000806000898961ffff1661ffff8110612e1e57fe5b60408051608081018252919092015463ffffffff808216808452600160201b8304600690810b810b900b6020850152600160581b83046001600160a01b031694840194909452600160f81b90910460ff161515606083015290925089161415612e8d5788859250925050612f98565b8461ffff168461ffff16118015612eae57506001850361ffff168961ffff16145b15612ebb57839150612ebf565b8491505b8161ffff168960010161ffff1681612ed357fe5b069250612ee28189898961464c565b8a8461ffff1661ffff8110612ef357fe5b825191018054602084015160408501516060909501511515600160f81b026001600160f81b036001600160a01b03909616600160581b027fff0000000000000000000000000000000000000000ffffffffffffffffffffff60069390930b66ffffffffffffff16600160201b026affffffffffffff000000001963ffffffff90971663ffffffff19909516949094179590951692909217169290921792909216179055505b97509795505050505050565b604080516001600160a01b038481166024830152604480830185905283518084039091018152606490920183526020820180516001600160e01b031663a9059cbb60e01b1781529251825160009485949389169392918291908083835b602083106130205780518252601f199092019160209182019101613001565b6001836020036101000a0380198251168184511680821785525050505050509050019150506000604051808303816000865af19150503d8060008114613082576040519150601f19603f3d011682016040523d82523d6000602084013e613087565b606091505b50915091508180156130b55750805115806130b557508080602001905160208110156130b257600080fd5b50515b6130eb576040805162461bcd60e51b81526020600482015260026024820152612a2360f11b604482015290519081900360640190fd5b5050505050565b604080513060248083019190915282518083039091018152604490910182526020810180516001600160e01b03166370a0823160e01b17815291518151600093849384936001600160a01b037f00000000000000000000000000000000000000000000000000000000000000001693919290918291908083835b6020831061318b5780518252601f19909201916020918201910161316c565b6001836020036101000a038019825116818451168082178552505050505050905001915050600060405180830381855afa9150503d80600081146131eb576040519150601f19603f3d011682016040523d82523d6000602084013e6131f0565b606091505b509150915081801561320457506020815110155b61320d57600080fd5b80806020019051602081101561322257600080fd5b50519250505090565b8082018281101561323b57600080fd5b92915050565b604080513060248083019190915282518083039091018152604490910182526020810180516001600160e01b03166370a0823160e01b17815291518151600093849384936001600160a01b037f00000000000000000000000000000000000000000000000000000000000000001693919290918291908083836020831061318b5780518252601f19909201916020918201910161316c565b6000808361ffff1611613317576040805162461bcd60e51b81526020600482015260016024820152604960f81b604482015290519081900360640190fd5b8261ffff168261ffff161161332d575081613378565b825b8261ffff168161ffff161015613373576001858261ffff1661ffff811061335257fe5b01805463ffffffff191663ffffffff9290921691909117905560010161332f565b508190505b9392505050565b80600f81900b81146128e457600080fd5b600080600061339d6128e9565b6133af8460200151856040015161387b565b6040805160e0810182526000546001600160a01b0381168252600160a01b8104600290810b810b900b602080840182905261ffff600160b81b8404811685870152600160c81b84048116606080870191909152600160d81b8504909116608086015260ff600160e81b8504811660a0870152600160f01b909404909316151560c08501528851908901519489015192890151939461345394919390929091906146f0565b93508460600151600f0b6000146135c857846020015160020b816020015160020b12156134a8576134a161348a8660200151613f77565b6134978760400151613f77565b87606001516148a5565b92506135c8565b846040015160020b816020015160020b121561359e5760045460408201516001600160801b03909116906134fa906134de61371d565b6020850151606086015160808701516008949392918791612e08565b6000805461ffff60c81b1916600160c81b61ffff938416021761ffff60b81b1916600160b81b93909216929092021790558151604087015161354a919061354090613f77565b88606001516148a5565b935061356861355c8760200151613f77565b835160608901516148e9565b9250613578818760600151614596565b600480546001600160801b0319166001600160801b0392909216919091179055506135c8565b6135c56135ae8660200151613f77565b6135bb8760400151613f77565b87606001516148e9565b91505b509193909250565b60006135dd84848461360a565b9050600082806135e957fe5b848609111561337857600019811061360057600080fd5b6001019392505050565b6000808060001985870986860292508281109083900303905080613640576000841161363557600080fd5b508290049050613378565b80841161364c57600080fd5b6000848688096000868103871696879004966002600389028118808a02820302808a02820302808a02820302808a02820302808a02820302808a02909103029181900381900460010186841190950394909402919094039290920491909117919091029150509392505050565b6040805160609490941b6bffffffffffffffffffffffff1916602080860191909152600293840b60e890811b60348701529290930b90911b60378401528051808403601a018152603a90930181528251928201929092206000908152929052902090565b4290565b60608060008361ffff1611613761576040805162461bcd60e51b81526020600482015260016024820152604960f81b604482015290519081900360640190fd5b865167ffffffffffffffff8111801561377957600080fd5b506040519080825280602002602001820160405280156137a3578160200160208202803683370190505b509150865167ffffffffffffffff811180156137be57600080fd5b506040519080825280602002602001820160405280156137e8578160200160208202803683370190505b50905060005b875181101561386e576138198a8a8a848151811061380857fe5b60200260200101518a8a8a8a613944565b84838151811061382557fe5b6020026020010184848151811061383857fe5b60200260200101826001600160a01b03166001600160a01b03168152508260060b60060b815250505080806001019150506137ee565b5097509795505050505050565b8060020b8260020b126138bb576040805162461bcd60e51b8152602060048201526003602482015262544c5560e81b604482015290519081900360640190fd5b620d89e719600283900b12156138fe576040805162461bcd60e51b8152602060048201526003602482015262544c4d60e81b604482015290519081900360640190fd5b620d89e8600282900b1315613940576040805162461bcd60e51b815260206004820152600360248201526254554d60e81b604482015290519081900360640190fd5b5050565b60008063ffffffff87166139ea576000898661ffff1661ffff811061396557fe5b60408051608081018252919092015463ffffffff808216808452600160201b8304600690810b810b900b6020850152600160581b83046001600160a01b031694840194909452600160f81b90910460ff16151560608301529092508a16146139d6576139d3818a898861464c565b90505b806020015181604001519250925050612f98565b8688036000806139ff8c8c858c8c8c8c614918565b91509150816000015163ffffffff168363ffffffff161415613a31578160200151826040015194509450505050612f98565b805163ffffffff84811691161415613a59578060200151816040015194509450505050612f98565b8151815160208085015190840151918390039286039163ffffffff80841692908516910360060b81613a8757fe5b05028460200151018263ffffffff168263ffffffff1686604001518660400151036001600160a01b03160281613ab957fe5b04856040015101965096505050505050612f98565b60006401000276a36001600160a01b03831610801590613b0a575073fffd8963efd1fc6a506488495d951d5263988d266001600160a01b038316105b613b3f576040805162461bcd60e51b81526020600482015260016024820152602960f91b604482015290519081900360640190fd5b640100000000600160c01b03602083901b166001600160801b03811160071b81811c67ffffffffffffffff811160061b90811c63ffffffff811160051b90811c61ffff811160041b90811c60ff8111600390811b91821c600f811160021b90811c918211600190811b92831c97908811961790941790921717909117171760808110613bd357607f810383901c9150613bdd565b80607f0383901b91505b908002607f81811c60ff83811c9190911c800280831c81831c1c800280841c81841c1c800280851c81851c1c800280861c81861c1c800280871c81871c1c800280881c81881c1c800280891c81891c1c8002808a1c818a1c1c8002808b1c818b1c1c8002808c1c818c1c1c8002808d1c818d1c1c8002808e1c9c81901c9c909c1c80029c8d901c9e9d607f198f0160401b60c09190911c678000000000000000161760c19b909b1c674000000000000000169a909a1760c29990991c672000000000000000169890981760c39790971c671000000000000000169690961760c49590951c670800000000000000169490941760c59390931c670400000000000000169290921760c69190911c670200000000000000161760c79190911c600160381b161760c89190911c6680000000000000161760c99190911c6640000000000000161760ca9190911c6620000000000000161760cb9190911c6610000000000000161760cc9190911c6608000000000000161760cd9190911c66040000000000001617693627a301d71055774c8581026f028f6481ab7f045a5af012a19d003aa9198101608090811d906fdb2df09e81959a81455e260799a0632f8301901d600281810b9083900b14613dda57886001600160a01b0316613dbe82613f77565b6001600160a01b03161115613dd35781613dd5565b805b613ddc565b815b9998505050505050505050565b6040805160808101825263ffffffff9283168082526000602083018190529282019290925260016060909101819052835463ffffffff1916909117909116600160f81b17909155908190565b60008060008460020b8660020b81613e4957fe5b05905060008660020b128015613e7057508460020b8660020b81613e6957fe5b0760020b15155b15613e7a57600019015b8315613eef57600080613e8c83614b12565b600182810b810b600090815260208d9052604090205460ff83169190911b80016000190190811680151597509294509092509085613ed157888360ff16860302613ee4565b88613edb82614b24565b840360ff168603025b965050505050613f6d565b600080613efe83600101614b12565b91509150600060018260ff166001901b031990506000818b60008660010b60010b8152602001908152602001600020541690508060001415955085613f5057888360ff0360ff16866001010102613f66565b8883613f5b83614bc3565b0360ff168660010101025b9650505050505b5094509492505050565b60008060008360020b12613f8e578260020b613f96565b8260020b6000035b9050620d89e8811115613fd4576040805162461bcd60e51b81526020600482015260016024820152601560fa1b604482015290519081900360640190fd5b600060018216613fe857600160801b613ffa565b6ffffcb933bd6fad37aa2d162d1a5940015b70ffffffffffffffffffffffffffffffffff169050600282161561402e576ffff97272373d413259a46990580e213a0260801c5b600482161561404d576ffff2e50f5f656932ef12357cf3c7fdcc0260801c5b600882161561406c576fffe5caca7e10e4e61c3624eaa0941cd00260801c5b601082161561408b576fffcb9843d60f6159c9db58835c9266440260801c5b60208216156140aa576fff973b41fa98c081472e6896dfb254c00260801c5b60408216156140c9576fff2ea16466c96a3843ec78b326b528610260801c5b60808216156140e8576ffe5dee046a99a2a811c461f1969c30530260801c5b610100821615614108576ffcbe86c7900a88aedcffc83b479aa3a40260801c5b610200821615614128576ff987a7253ac413176f2b074cf7815e540260801c5b610400821615614148576ff3392b0822b70005940c7a398e4b70f30260801c5b610800821615614168576fe7159475a2c29b7443b29c7fa6e889d90260801c5b611000821615614188576fd097f3bdfd2022b8845ad8f792aa58250260801c5b6120008216156141a8576fa9f746462d870fdf8a65dc1f90e061e50260801c5b6140008216156141c8576f70d869a156d2a1b890bb3df62baf32f70260801c5b6180008216156141e8576f31be135f97d08fd981231505542fcfa60260801c5b62010000821615614209576f09aa508b5b7a84e1c677de54f3e99bc90260801c5b62020000821615614229576e5d6af8dedb81196699c329225ee6040260801c5b62040000821615614248576d2216e584f5fa1ea926041bedfe980260801c5b62080000821615614265576b048a170391f7dc42444e8fa20260801c5b60008460020b131561428057806000198161427c57fe5b0490505b600160201b810615614293576001614296565b60005b60ff16602082901c0192505050919050565b60008080806001600160a01b03808916908a16101581871280159061432d5760006142e18989620f42400362ffffff16620f424061360a565b9050826142fa576142f58c8c8c6001614cad565b614307565b6143078b8d8c6001614d26565b9550858110614318578a9650614327565b6143248c8b8386614dd1565b96505b50614377565b816143445761433f8b8b8b6000614d26565b614351565b6143518a8c8b6000614cad565b935083886000031061436557899550614377565b6143748b8a8a60000385614e1d565b95505b6001600160a01b038a81169087161482156143da578080156143965750815b6143ac576143a7878d8c6001614d26565b6143ae565b855b95508080156143bb575081155b6143d1576143cc878d8c6000614cad565b6143d3565b845b9450614424565b8080156143e45750815b6143fa576143f58c888c6001614cad565b6143fc565b855b9550808015614409575081155b61441f5761441a8c888c6000614d26565b614421565b845b94505b8115801561443457508860000385115b15614440578860000394505b81801561445f57508a6001600160a01b0316876001600160a01b031614155b1561446e57858903935061448b565b614488868962ffffff168a620f42400362ffffff166135d0565b93505b50505095509550955095915050565b6000600160ff1b82106144ac57600080fd5b5090565b8082038281131560008312151461323b57600080fd5b8181018281121560008312151461323b57600080fd5b600295860b860b60009081526020979097526040909620600181018054909503909455938301805490920390915560038201805463ffffffff600160d81b6001600160a01b03600160381b808504821690960316909402600160381b600160d81b031990921691909117600681810b90960390950b66ffffffffffffff1666ffffffffffffff199095169490941782810485169095039093160263ffffffff60d81b1990931692909217905554600160801b9004600f0b90565b60008082600f0b12156145fb57826001600160801b03168260000384039150816001600160801b0316106145f6576040805162461bcd60e51b81526020600482015260026024820152614c5360f01b604482015290519081900360640190fd5b61323b565b826001600160801b03168284019150816001600160801b0316101561323b576040805162461bcd60e51b81526020600482015260026024820152614c4160f01b604482015290519081900360640190fd5b6146546157aa565b600085600001518503905060405180608001604052808663ffffffff1681526020018263ffffffff168660020b0288602001510160060b81526020016000856001600160801b0316116146a85760016146aa565b845b6001600160801b031663ffffffff60801b608085901b16816146c857fe5b048860400151016001600160a01b03168152602001600115158152509150505b949350505050565b60006146ff60078787876136b9565b60015460025491925090600080600f87900b1561484557600061472061371d565b600080546004549293509091829161476a9160089186918591600160a01b810460020b9161ffff600160b81b83048116926001600160801b0390921691600160c81b900416613944565b90925090506147a460058d8b8d8b8b87898b60007f0000000000000000000000000000000000000000000000000000000000000000614e69565b94506147db60058c8b8d8b8b87898b60017f0000000000000000000000000000000000000000000000000000000000000000614e69565b9350841561480f5761480f60068d7f0000000000000000000000000000000000000000000000000000000000000000615022565b83156148415761484160068c7f0000000000000000000000000000000000000000000000000000000000000000615022565b5050505b60008061485760058c8c8b8a8a615088565b9092509050614868878a8484615134565b600089600f0b12156148965783156148855761488560058c6152c9565b82156148965761489660058b6152c9565b50505050505095945050505050565b60008082600f0b126148cb576148c66148c18585856001614d26565b61449a565b6146e8565b6148de6148c18585856000036000614d26565b600003949350505050565b60008082600f0b12614905576148c66148c18585856001614cad565b6148de6148c18585856000036000614cad565b6149206157aa565b6149286157aa565b888561ffff1661ffff811061493957fe5b60408051608081018252919092015463ffffffff8116808352600160201b8204600690810b810b900b6020840152600160581b82046001600160a01b031693830193909352600160f81b900460ff1615156060820152925061499d908990896152f5565b156149d5578663ffffffff16826000015163ffffffff1614156149bf57612f98565b816149cc8389898861464c565b91509150612f98565b888361ffff168660010161ffff16816149ea57fe5b0661ffff1661ffff81106149fa57fe5b60408051608081018252929091015463ffffffff81168352600160201b8104600690810b810b900b60208401526001600160a01b03600160581b8204169183019190915260ff600160f81b90910416151560608201819052909250614aaf57604080516080810182528a5463ffffffff81168252600160201b8104600690810b810b900b6020830152600160581b81046001600160a01b031692820192909252600160f81b90910460ff161515606082015291505b614abe888360000151896152f5565b614af5576040805162461bcd60e51b815260206004820152600360248201526213d31160ea1b604482015290519081900360640190fd5b614b0289898988876153b6565b9150915097509795505050505050565b60020b600881901d9161010090910790565b6000808211614b3257600080fd5b600160801b8210614b4557608091821c91015b680100000000000000008210614b5d57604091821c91015b600160201b8210614b7057602091821c91015b620100008210614b8257601091821c91015b6101008210614b9357600891821c91015b60108210614ba357600491821c91015b60048210614bb357600291821c91015b600282106128e457600101919050565b6000808211614bd157600080fd5b5060ff6001600160801b03821615614bec57607f1901614bf4565b608082901c91505b67ffffffffffffffff821615614c0d57603f1901614c15565b604082901c91505b63ffffffff821615614c2a57601f1901614c32565b602082901c91505b61ffff821615614c4557600f1901614c4d565b601082901c91505b60ff821615614c5f5760071901614c67565b600882901c91505b600f821615614c795760031901614c81565b600482901c91505b6003821615614c935760011901614c9b565b600282901c91505b60018216156128e45760001901919050565b6000836001600160a01b0316856001600160a01b03161115614ccd579293925b81614cfa57614cf5836001600160801b03168686036001600160a01b0316600160601b61360a565b614d1d565b614d1d836001600160801b03168686036001600160a01b0316600160601b6135d0565b95945050505050565b6000836001600160a01b0316856001600160a01b03161115614d46579293925b600160601b600160e01b03606084901b166001600160a01b038686038116908716614d7057600080fd5b83614da057866001600160a01b0316614d938383896001600160a01b031661360a565b81614d9a57fe5b04614dc6565b614dc6614db78383896001600160a01b03166135d0565b886001600160a01b0316615554565b979650505050505050565b600080856001600160a01b031611614de857600080fd5b6000846001600160801b031611614dfe57600080fd5b81614e1057614cf5858585600161555f565b614d1d8585856001615640565b600080856001600160a01b031611614e3457600080fd5b6000846001600160801b031611614e4a57600080fd5b81614e5c57614cf58585856000615640565b614d1d858585600061555f565b60028a810b900b600090815260208c90526040812080546001600160801b031682614e94828d614596565b9050846001600160801b0316816001600160801b03161115614ee2576040805162461bcd60e51b81526020600482015260026024820152614c4f60f01b604482015290519081900360640190fd5b6001600160801b038281161590821615811415945015614f87578c60020b8e60020b13614f6f57600183018b9055600283018a9055600383018054600160381b600160d81b031916600160381b6001600160a01b038c16021766ffffffffffffff191666ffffffffffffff60068b900b161763ffffffff60d81b1916600160d81b63ffffffff8a16021790555b6003830180546001600160f81b0316600160f81b1790555b82546001600160801b0319166001600160801b03821617835585614fd0578254614fcb90614fc690600160801b9004600f90810b810b908f900b6144c6565b61337f565b614ff1565b8254614ff190614fc690600160801b9004600f90810b810b908f900b6144b0565b8354600f9190910b6001600160801b03908116600160801b0291161790925550909c9b505050505050505050505050565b8060020b8260020b8161503157fe5b0760020b1561503f57600080fd5b60008061505a8360020b8560020b8161505457fe5b05614b12565b600191820b820b60009081526020979097526040909620805460ff9097169190911b90951890945550505050565b600285810b80820b60009081526020899052604080822088850b850b83529082209193849391929184918291908a900b126150ce575050600182015460028301546150e1565b8360010154880391508360020154870390505b6000808b60020b8b60020b121561510357505060018301546002840154615116565b84600101548a0391508460020154890390505b92909803979097039b96909503949094039850939650505050505050565b6040805160a08101825285546001600160801b0390811682526001870154602083015260028701549282019290925260038601548083166060830152600160801b900490911660808201526000600f85900b6151d35781516001600160801b03166151cb576040805162461bcd60e51b815260206004820152600260248201526104e560f41b604482015290519081900360640190fd5b5080516151e2565b81516151df9086614596565b90505b60006152068360200151860384600001516001600160801b0316600160801b61360a565b9050600061522c8460400151860385600001516001600160801b0316600160801b61360a565b905086600f0b6000146152535787546001600160801b0319166001600160801b0384161788555b60018801869055600288018590556001600160801b03821615158061528157506000816001600160801b0316115b156152bf576003880180546001600160801b031981166001600160801b039182168501821617808216600160801b9182900483168501909216021790555b5050505050505050565b600290810b810b6000908152602092909252604082208281556001810183905590810182905560030155565b60008363ffffffff168363ffffffff161115801561531f57508363ffffffff168263ffffffff1611155b1561533b578163ffffffff168363ffffffff1611159050613378565b60008463ffffffff168463ffffffff1611615362578363ffffffff16600160201b0161536a565b8363ffffffff165b64ffffffffff16905060008563ffffffff168463ffffffff161161539a578363ffffffff16600160201b016153a2565b8363ffffffff165b64ffffffffff169091111595945050505050565b6153be6157aa565b6153c66157aa565b60008361ffff168560010161ffff16816153dc57fe5b0661ffff169050600060018561ffff16830103905060005b506002818301048961ffff8716828161540957fe5b0661ffff811061541557fe5b60408051608081018252929091015463ffffffff81168352600160201b8104600690810b810b900b60208401526001600160a01b03600160581b8204169183019190915260ff600160f81b9091041615156060820181905290955061547f578060010192506153f4565b898661ffff16826001018161549057fe5b0661ffff811061549c57fe5b60408051608081018252929091015463ffffffff81168352600160201b8104600690810b810b900b60208401526001600160a01b03600160581b8204169183019190915260ff600160f81b90910416151560608201528551909450600090615506908b908b6152f5565b905080801561551f575061551f8a8a87600001516152f5565b1561552a5750615547565b8061553a57600182039250615541565b8160010193505b506153f4565b5050509550959350505050565b808204910615150190565b600081156155d25760006001600160a01b038411156155955761559084600160601b876001600160801b031661360a565b6155ad565b6001600160801b038516606085901b816155ab57fe5b045b90506155ca6155c56001600160a01b0388168361322b565b615723565b9150506146e8565b60006001600160a01b03841115615600576155fb84600160601b876001600160801b03166135d0565b615617565b615617606085901b6001600160801b038716615554565b905080866001600160a01b03161161562e57600080fd5b6001600160a01b0386160390506146e8565b60008261564e5750836146e8565b600160601b600160e01b03606085901b1682156156dc576001600160a01b0386168481029085828161567c57fe5b0414156156ad578181018281106156ab576156a183896001600160a01b0316836135d0565b93505050506146e8565b505b6156d3826156ce878a6001600160a01b031686816156c757fe5b049061322b565b615554565b925050506146e8565b6001600160a01b038616848102908582816156f357fe5b0414801561570057508082115b61570957600080fd5b8082036156a16155c5846001600160a01b038b16846135d0565b806001600160a01b03811681146128e457600080fd5b6040805160c081018252600080825260208201819052918101829052606081018290526080810182905260a081019190915290565b6040805160e081018252600080825260208201819052918101829052606081018290526080810182905260a0810182905260c081019190915290565b6040805160808101825260008082526020820181905291810182905260608101919091529056fea2646970667358221220bee9e527a76d1e53519c7f203130bcdfcf501cbc19d2677201f5dde0e91e8e2864736f6c63430007060033a26469706673582212203579294f9708303c44c45cb3ef01beeb6c3fddab87690690ba3a0363120e689e64736f6c63430007060033c66a3fdf07232cdd185febcc6579d408c241b47ae2f9907d84be655141eeaecc",
  "linkReferences": {},
  "deployedLinkReferences": {}
}