{
  "_format": "hh-sol-artifact-1",
  "contractName": "IotaBeeSwapSRouter",
  "sourceName": "contracts/periphery/IotaBeeSwapSRouter.sol",
  "abi": [
    {
      "inputs": [
        {
          "internalType": "address",
          "name": "_factory",
          "type": "address"
        },
        {
          "internalType": "address",
          "name": "_WETH",
          "type": "address"
        }
      ],
      "stateMutability": "nonpayable",
      "type": "constructor"
    },
    {
      "inputs": [],
      "name": "WETH",
      "outputs": [
        {
          "internalType": "address",
          "name": "",
          "type": "address"
        }
      ],
      "stateMutability": "view",
      "type": "function"
    },
    {
      "inputs": [],
      "name": "factory",
      "outputs": [
        {
          "internalType": "address",
          "name": "",
          "type": "address"
        }
      ],
      "stateMutability": "view",
      "type": "function"
    },
    {
      "inputs": [
        {
          "internalType": "uint256",
          "name": "amountOut",
          "type": "uint256"
        },
        {
          "internalType": "uint256",
          "name": "reserveIn",
          "type": "uint256"
        },
        {
          "internalType": "uint256",
          "name": "reserveOut",
          "type": "uint256"
        },
        {
          "internalType": "uint24",
          "name": "feeRate",
          "type": "uint24"
        }
      ],
      "name": "getAmountIn",
      "outputs": [
        {
          "internalType": "uint256",
          "name": "amountIn",
          "type": "uint256"
        }
      ],
      "stateMutability": "pure",
      "type": "function"
    },
    {
      "inputs": [
        {
          "internalType": "uint256",
          "name": "amountIn",
          "type": "uint256"
        },
        {
          "internalType": "uint256",
          "name": "reserveIn",
          "type": "uint256"
        },
        {
          "internalType": "uint256",
          "name": "reserveOut",
          "type": "uint256"
        },
        {
          "internalType": "uint24",
          "name": "feeRate",
          "type": "uint24"
        }
      ],
      "name": "getAmountOut",
      "outputs": [
        {
          "internalType": "uint256",
          "name": "amountOut",
          "type": "uint256"
        }
      ],
      "stateMutability": "pure",
      "type": "function"
    },
    {
      "inputs": [
        {
          "internalType": "uint256",
          "name": "amountOut",
          "type": "uint256"
        },
        {
          "internalType": "address[]",
          "name": "path",
          "type": "address[]"
        },
        {
          "internalType": "uint24[]",
          "name": "feeRates",
          "type": "uint24[]"
        }
      ],
      "name": "getAmountsIn",
      "outputs": [
        {
          "internalType": "uint256[]",
          "name": "amounts",
          "type": "uint256[]"
        }
      ],
      "stateMutability": "view",
      "type": "function"
    },
    {
      "inputs": [
        {
          "internalType": "uint256",
          "name": "amountIn",
          "type": "uint256"
        },
        {
          "internalType": "address[]",
          "name": "path",
          "type": "address[]"
        },
        {
          "internalType": "uint24[]",
          "name": "feeRates",
          "type": "uint24[]"
        }
      ],
      "name": "getAmountsOut",
      "outputs": [
        {
          "internalType": "uint256[]",
          "name": "amounts",
          "type": "uint256[]"
        }
      ],
      "stateMutability": "view",
      "type": "function"
    },
    {
      "inputs": [
        {
          "internalType": "uint256",
          "name": "amountA",
          "type": "uint256"
        },
        {
          "internalType": "uint256",
          "name": "reserveA",
          "type": "uint256"
        },
        {
          "internalType": "uint256",
          "name": "reserveB",
          "type": "uint256"
        }
      ],
      "name": "quote",
      "outputs": [
        {
          "internalType": "uint256",
          "name": "amountB",
          "type": "uint256"
        }
      ],
      "stateMutability": "pure",
      "type": "function"
    },
    {
      "inputs": [
        {
          "internalType": "uint256",
          "name": "amountOut",
          "type": "uint256"
        },
        {
          "internalType": "address[]",
          "name": "path",
          "type": "address[]"
        },
        {
          "internalType": "uint24[]",
          "name": "feeRates",
          "type": "uint24[]"
        },
        {
          "internalType": "address",
          "name": "to",
          "type": "address"
        },
        {
          "internalType": "uint256",
          "name": "deadline",
          "type": "uint256"
        }
      ],
      "name": "swapETHForExactTokens",
      "outputs": [
        {
          "internalType": "uint256[]",
          "name": "amounts",
          "type": "uint256[]"
        }
      ],
      "stateMutability": "payable",
      "type": "function"
    },
    {
      "inputs": [
        {
          "internalType": "uint256",
          "name": "amountOutMin",
          "type": "uint256"
        },
        {
          "internalType": "address[]",
          "name": "path",
          "type": "address[]"
        },
        {
          "internalType": "uint24[]",
          "name": "feeRates",
          "type": "uint24[]"
        },
        {
          "internalType": "address",
          "name": "to",
          "type": "address"
        },
        {
          "internalType": "uint256",
          "name": "deadline",
          "type": "uint256"
        }
      ],
      "name": "swapExactETHForTokens",
      "outputs": [
        {
          "internalType": "uint256[]",
          "name": "amounts",
          "type": "uint256[]"
        }
      ],
      "stateMutability": "payable",
      "type": "function"
    },
    {
      "inputs": [
        {
          "internalType": "uint256",
          "name": "amountOutMin",
          "type": "uint256"
        },
        {
          "internalType": "address[]",
          "name": "path",
          "type": "address[]"
        },
        {
          "internalType": "uint24[]",
          "name": "feeRates",
          "type": "uint24[]"
        },
        {
          "internalType": "address",
          "name": "to",
          "type": "address"
        },
        {
          "internalType": "uint256",
          "name": "deadline",
          "type": "uint256"
        }
      ],
      "name": "swapExactETHForTokensSupportingFeeOnTransferTokens",
      "outputs": [],
      "stateMutability": "payable",
      "type": "function"
    },
    {
      "inputs": [
        {
          "internalType": "uint256",
          "name": "amountIn",
          "type": "uint256"
        },
        {
          "internalType": "uint256",
          "name": "amountOutMin",
          "type": "uint256"
        },
        {
          "internalType": "address[]",
          "name": "path",
          "type": "address[]"
        },
        {
          "internalType": "uint24[]",
          "name": "feeRates",
          "type": "uint24[]"
        },
        {
          "internalType": "address",
          "name": "to",
          "type": "address"
        },
        {
          "internalType": "uint256",
          "name": "deadline",
          "type": "uint256"
        }
      ],
      "name": "swapExactTokensForETH",
      "outputs": [
        {
          "internalType": "uint256[]",
          "name": "amounts",
          "type": "uint256[]"
        }
      ],
      "stateMutability": "nonpayable",
      "type": "function"
    },
    {
      "inputs": [
        {
          "internalType": "uint256",
          "name": "amountIn",
          "type": "uint256"
        },
        {
          "internalType": "uint256",
          "name": "amountOutMin",
          "type": "uint256"
        },
        {
          "internalType": "address[]",
          "name": "path",
          "type": "address[]"
        },
        {
          "internalType": "uint24[]",
          "name": "feeRates",
          "type": "uint24[]"
        },
        {
          "internalType": "address",
          "name": "to",
          "type": "address"
        },
        {
          "internalType": "uint256",
          "name": "deadline",
          "type": "uint256"
        }
      ],
      "name": "swapExactTokensForETHSupportingFeeOnTransferTokens",
      "outputs": [],
      "stateMutability": "nonpayable",
      "type": "function"
    },
    {
      "inputs": [
        {
          "internalType": "uint256",
          "name": "amountIn",
          "type": "uint256"
        },
        {
          "internalType": "uint256",
          "name": "amountOutMin",
          "type": "uint256"
        },
        {
          "internalType": "address[]",
          "name": "path",
          "type": "address[]"
        },
        {
          "internalType": "uint24[]",
          "name": "feeRates",
          "type": "uint24[]"
        },
        {
          "internalType": "address",
          "name": "to",
          "type": "address"
        },
        {
          "internalType": "uint256",
          "name": "deadline",
          "type": "uint256"
        }
      ],
      "name": "swapExactTokensForTokens",
      "outputs": [
        {
          "internalType": "uint256[]",
          "name": "amounts",
          "type": "uint256[]"
        }
      ],
      "stateMutability": "nonpayable",
      "type": "function"
    },
    {
      "inputs": [
        {
          "internalType": "uint256",
          "name": "amountIn",
          "type": "uint256"
        },
        {
          "internalType": "uint256",
          "name": "amountOutMin",
          "type": "uint256"
        },
        {
          "internalType": "address[]",
          "name": "path",
          "type": "address[]"
        },
        {
          "internalType": "uint24[]",
          "name": "feeRates",
          "type": "uint24[]"
        },
        {
          "internalType": "address",
          "name": "to",
          "type": "address"
        },
        {
          "internalType": "uint256",
          "name": "deadline",
          "type": "uint256"
        }
      ],
      "name": "swapExactTokensForTokensSupportingFeeOnTransferTokens",
      "outputs": [],
      "stateMutability": "nonpayable",
      "type": "function"
    },
    {
      "inputs": [
        {
          "internalType": "uint256",
          "name": "amountOut",
          "type": "uint256"
        },
        {
          "internalType": "uint256",
          "name": "amountInMax",
          "type": "uint256"
        },
        {
          "internalType": "address[]",
          "name": "path",
          "type": "address[]"
        },
        {
          "internalType": "uint24[]",
          "name": "feeRates",
          "type": "uint24[]"
        },
        {
          "internalType": "address",
          "name": "to",
          "type": "address"
        },
        {
          "internalType": "uint256",
          "name": "deadline",
          "type": "uint256"
        }
      ],
      "name": "swapTokensForExactETH",
      "outputs": [
        {
          "internalType": "uint256[]",
          "name": "amounts",
          "type": "uint256[]"
        }
      ],
      "stateMutability": "nonpayable",
      "type": "function"
    },
    {
      "inputs": [
        {
          "internalType": "uint256",
          "name": "amountOut",
          "type": "uint256"
        },
        {
          "internalType": "uint256",
          "name": "amountInMax",
          "type": "uint256"
        },
        {
          "internalType": "address[]",
          "name": "path",
          "type": "address[]"
        },
        {
          "internalType": "uint24[]",
          "name": "feeRates",
          "type": "uint24[]"
        },
        {
          "internalType": "address",
          "name": "to",
          "type": "address"
        },
        {
          "internalType": "uint256",
          "name": "deadline",
          "type": "uint256"
        }
      ],
      "name": "swapTokensForExactTokens",
      "outputs": [
        {
          "internalType": "uint256[]",
          "name": "amounts",
          "type": "uint256[]"
        }
      ],
      "stateMutability": "nonpayable",
      "type": "function"
    },
    {
      "stateMutability": "payable",
      "type": "receive"
    }
  ],
  "bytecode": "0x60c06040523480156200001157600080fd5b506040516200344a3803806200344a833981016040819052620000349162000069565b6001600160a01b039182166080521660a052620000a1565b80516001600160a01b03811681146200006457600080fd5b919050565b600080604083850312156200007d57600080fd5b62000088836200004c565b915062000098602084016200004c565b90509250929050565b60805160a05161329c620001ae6000396000818161010701528181610264015281816105fd0152818161082e01528181610a8d01528181610b0a01528181610b7e01528181610f290152818161106c015281816110fa015281816112f1015281816114580152818161151c0152818161166b015281816116f901526123380152600081816102e3015281816103890152818161048001528181610679015281816108aa0152818161099801528181610bb001528181610e9a01528181610ed001528181610fa40152818161112c01528181611399015281816115970152818161172b01528181611f0a01528181611f800152818161241f0152818161245f0152612579015261329c6000f3fe6080604052600436106100f75760003560e01c80639f48b4391161008a578063c45a015511610059578063c45a0155146102d1578063db24105d14610305578063e8677b0a14610325578063edcbbd461461033857600080fd5b80639f48b43914610232578063ad5c464814610252578063ad615dec1461029e578063bf228ea8146102be57600080fd5b8063899c25ce116100c6578063899c25ce146101bf57806393a2e9ed146101df5780639e881335146101ff5780639ec505b51461021257600080fd5b80632be591cf1461013b57806367a86300146101715780637d3428391461019f578063886ee7b51461017157600080fd5b3661013657336001600160a01b037f0000000000000000000000000000000000000000000000000000000000000000161461013457610134612a7d565b005b600080fd5b34801561014757600080fd5b5061015b610156366004612af4565b610358565b6040516101689190612b91565b60405180910390f35b34801561017d57600080fd5b5061019161018c366004612be8565b6105b9565b604051908152602001610168565b3480156101ab57600080fd5b5061015b6101ba366004612af4565b6105d0565b3480156101cb57600080fd5b5061015b6101da366004612af4565b610801565b3480156101eb57600080fd5b5061015b6101fa366004612af4565b610970565b61013461020d366004612c27565b610a6a565b34801561021e57600080fd5b5061015b61022d366004612d98565b610e93565b34801561023e57600080fd5b5061015b61024d366004612d98565b610ec9565b34801561025e57600080fd5b506102867f000000000000000000000000000000000000000000000000000000000000000081565b6040516001600160a01b039091168152602001610168565b3480156102aa57600080fd5b506101916102b9366004612e63565b610ef7565b61015b6102cc366004612c27565b610f04565b3480156102dd57600080fd5b506102867f000000000000000000000000000000000000000000000000000000000000000081565b34801561031157600080fd5b50610134610320366004612af4565b6112c6565b61015b610333366004612c27565b6114f7565b34801561034457600080fd5b50610134610353366004612af4565b611868565b606081428110156103845760405162461bcd60e51b815260040161037b90612e8f565b60405180910390fd5b6104137f00000000000000000000000000000000000000000000000000000000000000008b8a8a8080602002602001604051908101604052809392919081815260200183836020028082843760009201919091525050604080516020808e0282810182019093528d82529093508d92508c918291850190849080828437600092019190915250611a1292505050565b9150888260008151811061042957610429612ebb565b6020026020010151111561044f5760405162461bcd60e51b815260040161037b90612ed1565b61053c8888600081811061046557610465612ebb565b905060200201602081019061047a9190612f12565b3361051c7f00000000000000000000000000000000000000000000000000000000000000008c8c60008181106104b2576104b2612ebb565b90506020020160208101906104c79190612f12565b8d8d60018181106104da576104da612ebb565b90506020020160208101906104ef9190612f12565b8c8c600081811061050257610502612ebb565b90506020020160208101906105179190612f34565b611c0a565b8560008151811061052f5761052f612ebb565b6020026020010151611ce9565b6105ac8289898080602002602001604051908101604052809392919081815260200183836020028082843760009201919091525050604080516020808d0282810182019093528c82529093508c92508b9182918501908490808284376000920191909152508a9250611e27915050565b5098975050505050505050565b60006105c785858585612063565b95945050505050565b606081428110156105f35760405162461bcd60e51b815260040161037b90612e8f565b6001600160a01b037f000000000000000000000000000000000000000000000000000000000000000016888861062a600182612f65565b81811061063957610639612ebb565b905060200201602081019061064e9190612f12565b6001600160a01b0316146106745760405162461bcd60e51b815260040161037b90612f7e565b6107037f00000000000000000000000000000000000000000000000000000000000000008b8a8a8080602002602001604051908101604052809392919081815260200183836020028082843760009201919091525050604080516020808e0282810182019093528d82529093508d92508c91829185019084908082843760009201919091525061214492505050565b91508882600184516107159190612f65565b8151811061072557610725612ebb565b6020026020010151101561074b5760405162461bcd60e51b815260040161037b90612fb5565b6107618888600081811061046557610465612ebb565b6107d18289898080602002602001604051908101604052809392919081815260200183836020028082843760009201919091525050604080516020808d0282810182019093528c82529093508c92508b918291850190849080828437600092019190915250309250611e27915050565b6105ac8483600185516107e49190612f65565b815181106107f4576107f4612ebb565b6020026020010151612301565b606081428110156108245760405162461bcd60e51b815260040161037b90612e8f565b6001600160a01b037f000000000000000000000000000000000000000000000000000000000000000016888861085b600182612f65565b81811061086a5761086a612ebb565b905060200201602081019061087f9190612f12565b6001600160a01b0316146108a55760405162461bcd60e51b815260040161037b90612f7e565b6109347f00000000000000000000000000000000000000000000000000000000000000008b8a8a8080602002602001604051908101604052809392919081815260200183836020028082843760009201919091525050604080516020808e0282810182019093528d82529093508d92508c918291850190849080828437600092019190915250611a1292505050565b9150888260008151811061094a5761094a612ebb565b6020026020010151111561074b5760405162461bcd60e51b815260040161037b90612ed1565b606081428110156109935760405162461bcd60e51b815260040161037b90612e8f565b610a227f00000000000000000000000000000000000000000000000000000000000000008b8a8a8080602002602001604051908101604052809392919081815260200183836020028082843760009201919091525050604080516020808e0282810182019093528d82529093508d92508c91829185019084908082843760009201919091525061214492505050565b9150888260018451610a349190612f65565b81518110610a4457610a44612ebb565b6020026020010151101561044f5760405162461bcd60e51b815260040161037b90612fb5565b8042811015610a8b5760405162461bcd60e51b815260040161037b90612e8f565b7f00000000000000000000000000000000000000000000000000000000000000006001600160a01b031687876000818110610ac857610ac8612ebb565b9050602002016020810190610add9190612f12565b6001600160a01b031614610b035760405162461bcd60e51b815260040161037b90612f7e565b60003490507f00000000000000000000000000000000000000000000000000000000000000006001600160a01b031663d0e30db0826040518263ffffffff1660e01b81526004016000604051808303818588803b158015610b6357600080fd5b505af1158015610b77573d6000803e3d6000fd5b50505050507f00000000000000000000000000000000000000000000000000000000000000006001600160a01b031663a9059cbb610c327f00000000000000000000000000000000000000000000000000000000000000008b8b6000818110610be257610be2612ebb565b9050602002016020810190610bf79190612f12565b8c8c6001818110610c0a57610c0a612ebb565b9050602002016020810190610c1f9190612f12565b8b8b600081811061050257610502612ebb565b6040516001600160e01b031960e084901b1681526001600160a01b039091166004820152602481018490526044016020604051808303816000875af1158015610c7f573d6000803e3d6000fd5b505050506040513d601f19601f82011682018060405250810190610ca39190612ffa565b610caf57610caf612a7d565b60008888610cbe600182612f65565b818110610ccd57610ccd612ebb565b9050602002016020810190610ce29190612f12565b6040516370a0823160e01b81526001600160a01b03878116600483015291909116906370a0823190602401602060405180830381865afa158015610d2a573d6000803e3d6000fd5b505050506040513d601f19601f82011682018060405250810190610d4e919061301c565b9050610dbf89898080602002602001604051908101604052809392919081815260200183836020028082843760009201919091525050604080516020808d0282810182019093528c82529093508c92508b9182918501908490808284376000920191909152508a92506123aa915050565b89818a8a610dce600182612f65565b818110610ddd57610ddd612ebb565b9050602002016020810190610df29190612f12565b6040516370a0823160e01b81526001600160a01b03898116600483015291909116906370a08231906024015b602060405180830381865afa158015610e3b573d6000803e3d6000fd5b505050506040513d601f19601f82011682018060405250810190610e5f919061301c565b610e699190612f65565b1015610e875760405162461bcd60e51b815260040161037b90612fb5565b50505050505050505050565b6060610ec17f0000000000000000000000000000000000000000000000000000000000000000858585611a12565b949350505050565b6060610ec17f0000000000000000000000000000000000000000000000000000000000000000858585612144565b6000610ec1848484612661565b60608142811015610f275760405162461bcd60e51b815260040161037b90612e8f565b7f00000000000000000000000000000000000000000000000000000000000000006001600160a01b031688886000818110610f6457610f64612ebb565b9050602002016020810190610f799190612f12565b6001600160a01b031614610f9f5760405162461bcd60e51b815260040161037b90612f7e565b61102e7f00000000000000000000000000000000000000000000000000000000000000008a8a8a8080602002602001604051908101604052809392919081815260200183836020028082843760009201919091525050604080516020808e0282810182019093528d82529093508d92508c918291850190849080828437600092019190915250611a1292505050565b9150348260008151811061104457611044612ebb565b6020026020010151111561106a5760405162461bcd60e51b815260040161037b90612ed1565b7f00000000000000000000000000000000000000000000000000000000000000006001600160a01b031663d0e30db0836000815181106110ac576110ac612ebb565b60200260200101516040518263ffffffff1660e01b81526004016000604051808303818588803b1580156110df57600080fd5b505af11580156110f3573d6000803e3d6000fd5b50505050507f00000000000000000000000000000000000000000000000000000000000000006001600160a01b031663a9059cbb61115e7f00000000000000000000000000000000000000000000000000000000000000008b8b6000818110610be257610be2612ebb565b8460008151811061117157611171612ebb565b60200260200101516040518363ffffffff1660e01b81526004016111aa9291906001600160a01b03929092168252602082015260400190565b6020604051808303816000875af11580156111c9573d6000803e3d6000fd5b505050506040513d601f19601f820116820180604052508101906111ed9190612ffa565b6111f9576111f9612a7d565b6112698289898080602002602001604051908101604052809392919081815260200183836020028082843760009201919091525050604080516020808d0282810182019093528c82529093508c92508b9182918501908490808284376000920191909152508a9250611e27915050565b8160008151811061127c5761127c612ebb565b60200260200101513411156112ba576112ba33836000815181106112a2576112a2612ebb565b6020026020010151346112b59190612f65565b6126f1565b50979650505050505050565b80428110156112e75760405162461bcd60e51b815260040161037b90612e8f565b6001600160a01b037f000000000000000000000000000000000000000000000000000000000000000016878761131e600182612f65565b81811061132d5761132d612ebb565b90506020020160208101906113429190612f12565b6001600160a01b0316146113685760405162461bcd60e51b815260040161037b90612f7e565b6113d18787600081811061137e5761137e612ebb565b90506020020160208101906113939190612f12565b336113cb7f00000000000000000000000000000000000000000000000000000000000000008b8b6000818110610be257610be2612ebb565b8c611ce9565b61144087878080602002602001604051908101604052809392919081815260200183836020028082843760009201919091525050604080516020808b0282810182019093528a82529093508a9250899182918501908490808284376000920191909152503092506123aa915050565b6040516370a0823160e01b81523060048201526000907f00000000000000000000000000000000000000000000000000000000000000006001600160a01b0316906370a0823190602401602060405180830381865afa1580156114a7573d6000803e3d6000fd5b505050506040513d601f19601f820116820180604052508101906114cb919061301c565b9050888110156114ed5760405162461bcd60e51b815260040161037b90612fb5565b610e878482612301565b6060814281101561151a5760405162461bcd60e51b815260040161037b90612e8f565b7f00000000000000000000000000000000000000000000000000000000000000006001600160a01b03168888600081811061155757611557612ebb565b905060200201602081019061156c9190612f12565b6001600160a01b0316146115925760405162461bcd60e51b815260040161037b90612f7e565b6116217f0000000000000000000000000000000000000000000000000000000000000000348a8a8080602002602001604051908101604052809392919081815260200183836020028082843760009201919091525050604080516020808e0282810182019093528d82529093508d92508c91829185019084908082843760009201919091525061214492505050565b91508882600184516116339190612f65565b8151811061164357611643612ebb565b602002602001015110156116695760405162461bcd60e51b815260040161037b90612fb5565b7f00000000000000000000000000000000000000000000000000000000000000006001600160a01b031663d0e30db0836000815181106116ab576116ab612ebb565b60200260200101516040518263ffffffff1660e01b81526004016000604051808303818588803b1580156116de57600080fd5b505af11580156116f2573d6000803e3d6000fd5b50505050507f00000000000000000000000000000000000000000000000000000000000000006001600160a01b031663a9059cbb61175d7f00000000000000000000000000000000000000000000000000000000000000008b8b6000818110610be257610be2612ebb565b8460008151811061177057611770612ebb565b60200260200101516040518363ffffffff1660e01b81526004016117a99291906001600160a01b03929092168252602082015260400190565b6020604051808303816000875af11580156117c8573d6000803e3d6000fd5b505050506040513d601f19601f820116820180604052508101906117ec9190612ffa565b6117f8576117f8612a7d565b6112ba8289898080602002602001604051908101604052809392919081815260200183836020028082843760009201919091525050604080516020808d0282810182019093528c82529093508c92508b9182918501908490808284376000920191909152508a9250611e27915050565b80428110156118895760405162461bcd60e51b815260040161037b90612e8f565b61189f8787600081811061137e5761137e612ebb565b600087876118ae600182612f65565b8181106118bd576118bd612ebb565b90506020020160208101906118d29190612f12565b6040516370a0823160e01b81526001600160a01b03868116600483015291909116906370a0823190602401602060405180830381865afa15801561191a573d6000803e3d6000fd5b505050506040513d601f19601f8201168201806040525081019061193e919061301c565b90506119af88888080602002602001604051908101604052809392919081815260200183836020028082843760009201919091525050604080516020808c0282810182019093528b82529093508b92508a9182918501908490808284376000920191909152508992506123aa915050565b888189896119be600182612f65565b8181106119cd576119cd612ebb565b90506020020160208101906119e29190612f12565b6040516370a0823160e01b81526001600160a01b03888116600483015291909116906370a0823190602401610e1e565b6060600283511015611a665760405162461bcd60e51b815260206004820181905260248201527f496f7461426565537761704c6962726172793a20494e56414c49445f50415448604482015260640161037b565b60018351611a749190612f65565b825114611a935760405162461bcd60e51b815260040161037b90613035565b825167ffffffffffffffff811115611aad57611aad612cbb565b604051908082528060200260200182016040528015611ad6578160200160208202803683370190505b509050838160018351611ae99190612f65565b81518110611af957611af9612ebb565b602002602001018181525050600060018451611b159190612f65565b90505b8015611c0157600080611b828887611b31600187612f65565b81518110611b4157611b41612ebb565b6020026020010151888681518110611b5b57611b5b612ebb565b6020026020010151888781518110611b7557611b75612ebb565b60200260200101516127d0565b91509150611bc4848481518110611b9b57611b9b612ebb565b60200260200101518383888781518110611bb757611bb7612ebb565b602002602001015161289c565b84611bd0600186612f65565b81518110611be057611be0612ebb565b60200260200101818152505050508080611bf990613078565b915050611b18565b50949350505050565b6000806000611c198686612984565b604080516001600160a01b03808516602083015283169181019190915262ffffff871660608201529193509150879060800160408051601f19818403018152908290528051602091820120611cc6939290917f5a46d8e7d5ac420387bd203f5fcd5593ba34af9f0ee9b781a31834bec17eda9091016001600160f81b0319815260609390931b6bffffffffffffffffffffffff191660018401526015830191909152603582015260550190565b60408051601f198184030181529190528051602090910120979650505050505050565b604080516001600160a01b0385811660248301528481166044830152606480830185905283518084039091018152608490920183526020820180516001600160e01b03166323b872dd60e01b1790529151600092839290881691611d4d91906130b3565b6000604051808303816000865af19150503d8060008114611d8a576040519150601f19603f3d011682016040523d82523d6000602084013e611d8f565b606091505b5091509150818015611db9575080511580611db9575080806020019051810190611db99190612ffa565b611e1f5760405162461bcd60e51b815260206004820152603160248201527f5472616e7366657248656c7065723a3a7472616e7366657246726f6d3a207472604482015270185b9cd9995c919c9bdb4819985a5b1959607a1b606482015260840161037b565b505050505050565b60005b60018451611e389190612f65565b81101561205c57600080858381518110611e5457611e54612ebb565b602002602001015186846001611e6a91906130cf565b81518110611e7a57611e7a612ebb565b6020026020010151915091506000611e928383612984565b509050600088611ea38660016130cf565b81518110611eb357611eb3612ebb565b60200260200101519050600080836001600160a01b0316866001600160a01b031614611ee157826000611ee5565b6000835b91509150600060028b51611ef99190612f65565b8810611f055788611f79565b611f797f0000000000000000000000000000000000000000000000000000000000000000878d611f368c60026130cf565b81518110611f4657611f46612ebb565b60200260200101518d8c6001611f5c91906130cf565b81518110611f6c57611f6c612ebb565b6020026020010151611c0a565b9050611fb37f000000000000000000000000000000000000000000000000000000000000000088888d8c81518110611f6c57611f6c612ebb565b6001600160a01b031663022c0d9f84848460006040519080825280601f01601f191660200182016040528015611ff0576020820181803683370190505b506040518563ffffffff1660e01b815260040161201094939291906130e2565b600060405180830381600087803b15801561202a57600080fd5b505af115801561203e573d6000803e3d6000fd5b5050505050505050505050808061205490613132565b915050611e2a565b5050505050565b60008085116120b85760405162461bcd60e51b815260206004820152602d602482015260008051602061324783398151915260448201526c17d25394155517d05353d55395609a1b606482015260840161037b565b6000841180156120c85750600083115b6120e45760405162461bcd60e51b815260040161037b9061314b565b60006120f383620186a0613183565b6121029062ffffff16876131a6565b9050600061211085836131a6565b9050600082612122620186a0896131a6565b61212c91906130cf565b905061213881836131bd565b98975050505050505050565b60606002835110156121985760405162461bcd60e51b815260206004820181905260248201527f496f7461426565537761704c6962726172793a20494e56414c49445f50415448604482015260640161037b565b600183516121a69190612f65565b8251146121c55760405162461bcd60e51b815260040161037b90613035565b825167ffffffffffffffff8111156121df576121df612cbb565b604051908082528060200260200182016040528015612208578160200160208202803683370190505b509050838160008151811061221f5761221f612ebb565b60200260200101818152505060005b6001845161223c9190612f65565b811015611c01576000806122828887858151811061225c5761225c612ebb565b60200260200101518886600161227291906130cf565b81518110611b5b57611b5b612ebb565b915091506122c484848151811061229b5761229b612ebb565b602002602001015183838887815181106122b7576122b7612ebb565b6020026020010151612063565b846122d08560016130cf565b815181106122e0576122e0612ebb565b602002602001018181525050505080806122f990613132565b91505061222e565b61231064e8d4a51000826131bd565b61231f9064e8d4a510006131a6565b604051632e1a7d4d60e01b8152600481018290529091507f00000000000000000000000000000000000000000000000000000000000000006001600160a01b031690632e1a7d4d90602401600060405180830381600087803b15801561238457600080fd5b505af1158015612398573d6000803e3d6000fd5b505050506123a682826126f1565b5050565b60005b600184516123bb9190612f65565b81101561265b576000808583815181106123d7576123d7612ebb565b6020026020010151868460016123ed91906130cf565b815181106123fd576123fd612ebb565b60200260200101519150915060006124158383612984565b50905060006124527f000000000000000000000000000000000000000000000000000000000000000085858a8981518110611f6c57611f6c612ebb565b90506000806000806124927f000000000000000000000000000000000000000000000000000000000000000089898e8d81518110611b7557611b75612ebb565b6040516370a0823160e01b81526001600160a01b03888116600483015292945090925083918a16906370a0823190602401602060405180830381865afa1580156124e0573d6000803e3d6000fd5b505050506040513d601f19601f82011682018060405250810190612504919061301c565b61250e9190612f65565b93506125288483838e8d815181106122b7576122b7612ebb565b92505050600080856001600160a01b0316886001600160a01b03161461255057826000612554565b6000835b91509150600060028d516125689190612f65565b8a10612574578a6125cb565b6125cb7f0000000000000000000000000000000000000000000000000000000000000000898f6125a58e60026130cf565b815181106125b5576125b5612ebb565b60200260200101518f8e6001611f5c91906130cf565b6040805160008152602081019182905263022c0d9f60e01b9091529091506001600160a01b0387169063022c0d9f9061260d90869086908690602481016130e2565b600060405180830381600087803b15801561262757600080fd5b505af115801561263b573d6000803e3d6000fd5b50505050505050505050505050808061265390613132565b9150506123ad565b50505050565b60008084116126b05760405162461bcd60e51b8152602060048201526027602482015260008051602061324783398151915260448201526617d05353d5539560ca1b606482015260840161037b565b6000831180156126c05750600082115b6126dc5760405162461bcd60e51b815260040161037b9061314b565b826126e783866131a6565b610ec191906131bd565b604080516000808252602082019092526001600160a01b03841690839060405161271b91906130b3565b60006040518083038185875af1925050503d8060008114612758576040519150601f19603f3d011682016040523d82523d6000602084013e61275d565b606091505b50509050806127cb5760405162461bcd60e51b815260206004820152603460248201527f5472616e7366657248656c7065723a3a736166655472616e736665724554483a60448201527308115512081d1c985b9cd9995c8819985a5b195960621b606482015260840161037b565b505050565b60008060006127df8686612984565b5090506000806127f189898989611c0a565b6001600160a01b0316630902f1ac6040518163ffffffff1660e01b8152600401606060405180830381865afa15801561282e573d6000803e3d6000fd5b505050506040513d601f19601f8201168201806040525081019061285291906131f6565b506001600160701b031691506001600160701b03169150826001600160a01b0316886001600160a01b03161461288957808261288c565b81815b909a909950975050505050505050565b60008085116128f25760405162461bcd60e51b815260206004820152602e602482015260008051602061324783398151915260448201526d17d3d55514155517d05353d5539560921b606482015260840161037b565b6000841180156129025750600083115b61291e5760405162461bcd60e51b815260040161037b9061314b565b6000620186a061292e87876131a6565b61293891906131a6565b9050600061294984620186a0613183565b62ffffff166129588887612f65565b61296291906131a6565b905061296e81836131bd565b6129799060016130cf565b979650505050505050565b600080826001600160a01b0316846001600160a01b0316036129f85760405162461bcd60e51b815260206004820152602760248201527f496f7461426565537761704c6962726172793a204944454e544943414c5f41446044820152664452455353455360c81b606482015260840161037b565b826001600160a01b0316846001600160a01b031610612a18578284612a1b565b83835b90925090506001600160a01b038216612a765760405162461bcd60e51b815260206004820181905260248201527f496f7461426565537761704c6962726172793a205a45524f5f41444452455353604482015260640161037b565b9250929050565b634e487b7160e01b600052600160045260246000fd5b60008083601f840112612aa557600080fd5b50813567ffffffffffffffff811115612abd57600080fd5b6020830191508360208260051b8501011115612a7657600080fd5b80356001600160a01b0381168114612aef57600080fd5b919050565b60008060008060008060008060c0898b031215612b1057600080fd5b8835975060208901359650604089013567ffffffffffffffff80821115612b3657600080fd5b612b428c838d01612a93565b909850965060608b0135915080821115612b5b57600080fd5b50612b688b828c01612a93565b9095509350612b7b905060808a01612ad8565b915060a089013590509295985092959890939650565b6020808252825182820181905260009190848201906040850190845b81811015612bc957835183529284019291840191600101612bad565b50909695505050505050565b803562ffffff81168114612aef57600080fd5b60008060008060808587031215612bfe57600080fd5b843593506020850135925060408501359150612c1c60608601612bd5565b905092959194509250565b600080600080600080600060a0888a031215612c4257600080fd5b87359650602088013567ffffffffffffffff80821115612c6157600080fd5b612c6d8b838c01612a93565b909850965060408a0135915080821115612c8657600080fd5b50612c938a828b01612a93565b9095509350612ca6905060608901612ad8565b91506080880135905092959891949750929550565b634e487b7160e01b600052604160045260246000fd5b604051601f8201601f1916810167ffffffffffffffff81118282101715612cfa57612cfa612cbb565b604052919050565b600067ffffffffffffffff821115612d1c57612d1c612cbb565b5060051b60200190565b600082601f830112612d3757600080fd5b81356020612d4c612d4783612d02565b612cd1565b82815260059290921b84018101918181019086841115612d6b57600080fd5b8286015b84811015612d8d57612d8081612bd5565b8352918301918301612d6f565b509695505050505050565b600080600060608486031215612dad57600080fd5b8335925060208085013567ffffffffffffffff80821115612dcd57600080fd5b818701915087601f830112612de157600080fd5b8135612def612d4782612d02565b81815260059190911b8301840190848101908a831115612e0e57600080fd5b938501935b82851015612e3357612e2485612ad8565b82529385019390850190612e13565b965050506040870135925080831115612e4b57600080fd5b5050612e5986828701612d26565b9150509250925092565b600080600060608486031215612e7857600080fd5b505081359360208301359350604090920135919050565b602080825260129082015271125094d49bdd5d195c8e881156141254915160721b604082015260600190565b634e487b7160e01b600052603260045260246000fd5b60208082526021908201527f494253526f757465723a204558434553534956455f494e5055545f414d4f554e6040820152601560fa1b606082015260800190565b600060208284031215612f2457600080fd5b612f2d82612ad8565b9392505050565b600060208284031215612f4657600080fd5b612f2d82612bd5565b634e487b7160e01b600052601160045260246000fd5b81810381811115612f7857612f78612f4f565b92915050565b60208082526017908201527f494253526f757465723a20494e56414c49445f50415448000000000000000000604082015260600190565b60208082526025908201527f494253526f757465723a20494e53554646494349454e545f4f55545055545f416040820152641353d5539560da1b606082015260800190565b60006020828403121561300c57600080fd5b81518015158114612f2d57600080fd5b60006020828403121561302e57600080fd5b5051919050565b60208082526023908201527f496f7461426565537761704c6962726172793a20494e56414c49445f4645455260408201526241544560e81b606082015260800190565b60008161308757613087612f4f565b506000190190565b60005b838110156130aa578181015183820152602001613092565b50506000910152565b600082516130c581846020870161308f565b9190910192915050565b80820180821115612f7857612f78612f4f565b84815283602082015260018060a01b0383166040820152608060608201526000825180608084015261311b8160a085016020870161308f565b601f01601f19169190910160a00195945050505050565b60006001820161314457613144612f4f565b5060010190565b6020808252602a908201526000805160206132478339815191526040820152695f4c495155494449545960b01b606082015260800190565b62ffffff82811682821603908082111561319f5761319f612f4f565b5092915050565b8082028115828204841417612f7857612f78612f4f565b6000826131da57634e487b7160e01b600052601260045260246000fd5b500490565b80516001600160701b0381168114612aef57600080fd5b60008060006060848603121561320b57600080fd5b613214846131df565b9250613222602085016131df565b9150604084015163ffffffff8116811461323b57600080fd5b80915050925092509256fe496f7461426565537761704c6962726172793a20494e53554646494349454e54a2646970667358221220ab76bbd12d4114902c2ba6aeeaee16a1a69e8e81a4618e56a0c7b4d6276741ac64736f6c63430008110033",
  "linkReferences": {},
  "deployedLinkReferences": {}
}