{
  "_format": "hh-sol-artifact-1",
  "contractName": "IotaBeeSwapLpRouter",
  "sourceName": "contracts/periphery/IotaBeeSwapLpRouter.sol",
  "abi": [
    {
      "inputs": [
        {
          "internalType": "address",
          "name": "_factory",
          "type": "address"
        },
        {
          "internalType": "address",
          "name": "_WETH",
          "type": "address"
        }
      ],
      "stateMutability": "nonpayable",
      "type": "constructor"
    },
    {
      "inputs": [],
      "name": "WETH",
      "outputs": [
        {
          "internalType": "address",
          "name": "",
          "type": "address"
        }
      ],
      "stateMutability": "view",
      "type": "function"
    },
    {
      "inputs": [
        {
          "internalType": "address",
          "name": "tokenA",
          "type": "address"
        },
        {
          "internalType": "address",
          "name": "tokenB",
          "type": "address"
        },
        {
          "internalType": "uint24",
          "name": "feeRate",
          "type": "uint24"
        },
        {
          "internalType": "uint256",
          "name": "amountADesired",
          "type": "uint256"
        },
        {
          "internalType": "uint256",
          "name": "amountBDesired",
          "type": "uint256"
        },
        {
          "internalType": "uint256",
          "name": "amountAMin",
          "type": "uint256"
        },
        {
          "internalType": "uint256",
          "name": "amountBMin",
          "type": "uint256"
        },
        {
          "internalType": "address",
          "name": "to",
          "type": "address"
        },
        {
          "internalType": "uint256",
          "name": "deadline",
          "type": "uint256"
        }
      ],
      "name": "addLiquidity",
      "outputs": [
        {
          "internalType": "uint256",
          "name": "amountA",
          "type": "uint256"
        },
        {
          "internalType": "uint256",
          "name": "amountB",
          "type": "uint256"
        },
        {
          "internalType": "uint256",
          "name": "liquidity",
          "type": "uint256"
        }
      ],
      "stateMutability": "nonpayable",
      "type": "function"
    },
    {
      "inputs": [
        {
          "internalType": "address",
          "name": "token",
          "type": "address"
        },
        {
          "internalType": "uint24",
          "name": "feeRate",
          "type": "uint24"
        },
        {
          "internalType": "uint256",
          "name": "amountTokenDesired",
          "type": "uint256"
        },
        {
          "internalType": "uint256",
          "name": "amountTokenMin",
          "type": "uint256"
        },
        {
          "internalType": "uint256",
          "name": "amountETHMin",
          "type": "uint256"
        },
        {
          "internalType": "address",
          "name": "to",
          "type": "address"
        },
        {
          "internalType": "uint256",
          "name": "deadline",
          "type": "uint256"
        }
      ],
      "name": "addLiquidityETH",
      "outputs": [
        {
          "internalType": "uint256",
          "name": "amountToken",
          "type": "uint256"
        },
        {
          "internalType": "uint256",
          "name": "amountETH",
          "type": "uint256"
        },
        {
          "internalType": "uint256",
          "name": "liquidity",
          "type": "uint256"
        }
      ],
      "stateMutability": "payable",
      "type": "function"
    },
    {
      "inputs": [],
      "name": "factory",
      "outputs": [
        {
          "internalType": "address",
          "name": "",
          "type": "address"
        }
      ],
      "stateMutability": "view",
      "type": "function"
    },
    {
      "inputs": [
        {
          "internalType": "uint256",
          "name": "amountOut",
          "type": "uint256"
        },
        {
          "internalType": "uint256",
          "name": "reserveIn",
          "type": "uint256"
        },
        {
          "internalType": "uint256",
          "name": "reserveOut",
          "type": "uint256"
        },
        {
          "internalType": "uint24",
          "name": "feeRate",
          "type": "uint24"
        }
      ],
      "name": "getAmountIn",
      "outputs": [
        {
          "internalType": "uint256",
          "name": "amountIn",
          "type": "uint256"
        }
      ],
      "stateMutability": "pure",
      "type": "function"
    },
    {
      "inputs": [
        {
          "internalType": "uint256",
          "name": "amountIn",
          "type": "uint256"
        },
        {
          "internalType": "uint256",
          "name": "reserveIn",
          "type": "uint256"
        },
        {
          "internalType": "uint256",
          "name": "reserveOut",
          "type": "uint256"
        },
        {
          "internalType": "uint24",
          "name": "feeRate",
          "type": "uint24"
        }
      ],
      "name": "getAmountOut",
      "outputs": [
        {
          "internalType": "uint256",
          "name": "amountOut",
          "type": "uint256"
        }
      ],
      "stateMutability": "pure",
      "type": "function"
    },
    {
      "inputs": [
        {
          "internalType": "uint256",
          "name": "amountOut",
          "type": "uint256"
        },
        {
          "internalType": "address[]",
          "name": "path",
          "type": "address[]"
        },
        {
          "internalType": "uint24[]",
          "name": "feeRates",
          "type": "uint24[]"
        }
      ],
      "name": "getAmountsIn",
      "outputs": [
        {
          "internalType": "uint256[]",
          "name": "amounts",
          "type": "uint256[]"
        }
      ],
      "stateMutability": "view",
      "type": "function"
    },
    {
      "inputs": [
        {
          "internalType": "uint256",
          "name": "amountIn",
          "type": "uint256"
        },
        {
          "internalType": "address[]",
          "name": "path",
          "type": "address[]"
        },
        {
          "internalType": "uint24[]",
          "name": "feeRates",
          "type": "uint24[]"
        }
      ],
      "name": "getAmountsOut",
      "outputs": [
        {
          "internalType": "uint256[]",
          "name": "amounts",
          "type": "uint256[]"
        }
      ],
      "stateMutability": "view",
      "type": "function"
    },
    {
      "inputs": [
        {
          "internalType": "uint256",
          "name": "amountA",
          "type": "uint256"
        },
        {
          "internalType": "uint256",
          "name": "reserveA",
          "type": "uint256"
        },
        {
          "internalType": "uint256",
          "name": "reserveB",
          "type": "uint256"
        }
      ],
      "name": "quote",
      "outputs": [
        {
          "internalType": "uint256",
          "name": "amountB",
          "type": "uint256"
        }
      ],
      "stateMutability": "pure",
      "type": "function"
    },
    {
      "inputs": [
        {
          "internalType": "address",
          "name": "tokenA",
          "type": "address"
        },
        {
          "internalType": "address",
          "name": "tokenB",
          "type": "address"
        },
        {
          "internalType": "uint24",
          "name": "feeRate",
          "type": "uint24"
        },
        {
          "internalType": "uint256",
          "name": "liquidity",
          "type": "uint256"
        },
        {
          "internalType": "uint256",
          "name": "amountAMin",
          "type": "uint256"
        },
        {
          "internalType": "uint256",
          "name": "amountBMin",
          "type": "uint256"
        },
        {
          "internalType": "address",
          "name": "to",
          "type": "address"
        },
        {
          "internalType": "uint256",
          "name": "deadline",
          "type": "uint256"
        }
      ],
      "name": "removeLiquidity",
      "outputs": [
        {
          "internalType": "uint256",
          "name": "amountA",
          "type": "uint256"
        },
        {
          "internalType": "uint256",
          "name": "amountB",
          "type": "uint256"
        }
      ],
      "stateMutability": "nonpayable",
      "type": "function"
    },
    {
      "inputs": [
        {
          "internalType": "address",
          "name": "token",
          "type": "address"
        },
        {
          "internalType": "uint24",
          "name": "feeRate",
          "type": "uint24"
        },
        {
          "internalType": "uint256",
          "name": "liquidity",
          "type": "uint256"
        },
        {
          "internalType": "uint256",
          "name": "amountTokenMin",
          "type": "uint256"
        },
        {
          "internalType": "uint256",
          "name": "amountETHMin",
          "type": "uint256"
        },
        {
          "internalType": "address",
          "name": "to",
          "type": "address"
        },
        {
          "internalType": "uint256",
          "name": "deadline",
          "type": "uint256"
        }
      ],
      "name": "removeLiquidityETH",
      "outputs": [
        {
          "internalType": "uint256",
          "name": "amountToken",
          "type": "uint256"
        },
        {
          "internalType": "uint256",
          "name": "amountETH",
          "type": "uint256"
        }
      ],
      "stateMutability": "nonpayable",
      "type": "function"
    },
    {
      "inputs": [
        {
          "internalType": "address",
          "name": "token",
          "type": "address"
        },
        {
          "internalType": "uint24",
          "name": "feeRate",
          "type": "uint24"
        },
        {
          "internalType": "uint256",
          "name": "liquidity",
          "type": "uint256"
        },
        {
          "internalType": "uint256",
          "name": "amountTokenMin",
          "type": "uint256"
        },
        {
          "internalType": "uint256",
          "name": "amountETHMin",
          "type": "uint256"
        },
        {
          "internalType": "address",
          "name": "to",
          "type": "address"
        },
        {
          "internalType": "uint256",
          "name": "deadline",
          "type": "uint256"
        }
      ],
      "name": "removeLiquidityETHSupportingFeeOnTransferTokens",
      "outputs": [
        {
          "internalType": "uint256",
          "name": "amountETH",
          "type": "uint256"
        }
      ],
      "stateMutability": "nonpayable",
      "type": "function"
    },
    {
      "inputs": [
        {
          "internalType": "address",
          "name": "token",
          "type": "address"
        },
        {
          "internalType": "uint24",
          "name": "feeRate",
          "type": "uint24"
        },
        {
          "internalType": "uint256",
          "name": "liquidity",
          "type": "uint256"
        },
        {
          "internalType": "uint256",
          "name": "amountTokenMin",
          "type": "uint256"
        },
        {
          "internalType": "uint256",
          "name": "amountETHMin",
          "type": "uint256"
        },
        {
          "internalType": "address",
          "name": "to",
          "type": "address"
        },
        {
          "internalType": "uint256",
          "name": "deadline",
          "type": "uint256"
        },
        {
          "components": [
            {
              "internalType": "bool",
              "name": "approveMax",
              "type": "bool"
            },
            {
              "internalType": "uint8",
              "name": "v",
              "type": "uint8"
            },
            {
              "internalType": "bytes32",
              "name": "r",
              "type": "bytes32"
            },
            {
              "internalType": "bytes32",
              "name": "s",
              "type": "bytes32"
            }
          ],
          "internalType": "struct IIotaBeeSwapLpRouter.PermitData",
          "name": "pd",
          "type": "tuple"
        }
      ],
      "name": "removeLiquidityETHWithPermit",
      "outputs": [
        {
          "internalType": "uint256",
          "name": "amountToken",
          "type": "uint256"
        },
        {
          "internalType": "uint256",
          "name": "amountETH",
          "type": "uint256"
        }
      ],
      "stateMutability": "nonpayable",
      "type": "function"
    },
    {
      "inputs": [
        {
          "internalType": "address",
          "name": "token",
          "type": "address"
        },
        {
          "internalType": "uint24",
          "name": "feeRate",
          "type": "uint24"
        },
        {
          "internalType": "uint256",
          "name": "liquidity",
          "type": "uint256"
        },
        {
          "internalType": "uint256",
          "name": "amountTokenMin",
          "type": "uint256"
        },
        {
          "internalType": "uint256",
          "name": "amountETHMin",
          "type": "uint256"
        },
        {
          "internalType": "address",
          "name": "to",
          "type": "address"
        },
        {
          "internalType": "uint256",
          "name": "deadline",
          "type": "uint256"
        },
        {
          "components": [
            {
              "internalType": "bool",
              "name": "approveMax",
              "type": "bool"
            },
            {
              "internalType": "uint8",
              "name": "v",
              "type": "uint8"
            },
            {
              "internalType": "bytes32",
              "name": "r",
              "type": "bytes32"
            },
            {
              "internalType": "bytes32",
              "name": "s",
              "type": "bytes32"
            }
          ],
          "internalType": "struct IIotaBeeSwapLpRouter.PermitData",
          "name": "pd",
          "type": "tuple"
        }
      ],
      "name": "removeLiquidityETHWithPermitSupportingFeeOnTransferTokens",
      "outputs": [
        {
          "internalType": "uint256",
          "name": "amountETH",
          "type": "uint256"
        }
      ],
      "stateMutability": "nonpayable",
      "type": "function"
    },
    {
      "inputs": [
        {
          "internalType": "address",
          "name": "tokenA",
          "type": "address"
        },
        {
          "internalType": "address",
          "name": "tokenB",
          "type": "address"
        },
        {
          "internalType": "uint24",
          "name": "feeRate",
          "type": "uint24"
        },
        {
          "internalType": "uint256",
          "name": "liquidity",
          "type": "uint256"
        },
        {
          "internalType": "uint256",
          "name": "amountAMin",
          "type": "uint256"
        },
        {
          "internalType": "uint256",
          "name": "amountBMin",
          "type": "uint256"
        },
        {
          "internalType": "address",
          "name": "to",
          "type": "address"
        },
        {
          "internalType": "uint256",
          "name": "deadline",
          "type": "uint256"
        },
        {
          "components": [
            {
              "internalType": "bool",
              "name": "approveMax",
              "type": "bool"
            },
            {
              "internalType": "uint8",
              "name": "v",
              "type": "uint8"
            },
            {
              "internalType": "bytes32",
              "name": "r",
              "type": "bytes32"
            },
            {
              "internalType": "bytes32",
              "name": "s",
              "type": "bytes32"
            }
          ],
          "internalType": "struct IIotaBeeSwapLpRouter.PermitData",
          "name": "pd",
          "type": "tuple"
        }
      ],
      "name": "removeLiquidityWithPermit",
      "outputs": [
        {
          "internalType": "uint256",
          "name": "amountA",
          "type": "uint256"
        },
        {
          "internalType": "uint256",
          "name": "amountB",
          "type": "uint256"
        }
      ],
      "stateMutability": "nonpayable",
      "type": "function"
    },
    {
      "stateMutability": "payable",
      "type": "receive"
    }
  ],
  "bytecode": "0x60c06040523480156200001157600080fd5b506040516200278238038062002782833981016040819052620000349162000069565b6001600160a01b039182166080521660a052620000a1565b80516001600160a01b03811681146200006457600080fd5b919050565b600080604083850312156200007d57600080fd5b62000088836200004c565b915062000098602084016200004c565b90509250929050565b60805160a051612629620001596000396000818160fc015281816102d2015281816103a50152818161056e0152818161099901528181610aac01528181610c0001528181610c5701528181610c8c01528181610d210152610f9e01526000818161033e015281816104680152818161054c0152818161066f015281816108af0152818161097701528181610b0401528181610b6501528181610c35015281816111e60152818161128d015261131301526126296000f3fe6080604052600436106100ec5760003560e01c8063886ee7b51161008a578063ad5c464811610059578063ad5c4648146102c0578063ad615dec1461030c578063c45a01551461032c578063f0b54b091461036057600080fd5b8063886ee7b5146102335780638df94767146102535780639ec505b5146102735780639f48b439146102a057600080fd5b8063337141b1116100c6578063337141b1146101b85780634a60791e146101d85780634e1ae7721461021357806367a863001461023357600080fd5b8063076e4b6d146101305780631d58730b146101635780631e82f87b1461019857600080fd5b3661012b57336001600160a01b037f0000000000000000000000000000000000000000000000000000000000000000161461012957610129611d49565b005b600080fd5b34801561013c57600080fd5b5061015061014b366004611d8f565b610373565b6040519081526020015b60405180910390f35b34801561016f57600080fd5b5061018361017e366004611ed2565b61045e565b6040805192835260208301919091520161015a565b3480156101a457600080fd5b506101836101b3366004611f65565b610542565b3480156101c457600080fd5b506101836101d3366004611fe5565b610644565b3480156101e457600080fd5b506101f86101f3366004612068565b61086e565b6040805193845260208401929092529082015260600161015a565b34801561021f57600080fd5b5061015061022e366004611f65565b61096f565b34801561023f57600080fd5b5061015061024e3660046120f5565b610a6b565b34801561025f57600080fd5b5061018361026e366004611d8f565b610a82565b34801561027f57600080fd5b5061029361028e366004612179565b610afd565b60405161015a919061225b565b3480156102ac57600080fd5b506102936102bb366004612179565b610b5e565b3480156102cc57600080fd5b506102f47f000000000000000000000000000000000000000000000000000000000000000081565b6040516001600160a01b03909116815260200161015a565b34801561031857600080fd5b5061015061032736600461229f565b610bbf565b34801561033857600080fd5b506102f47f000000000000000000000000000000000000000000000000000000000000000081565b6101f861036e366004611d8f565b610bd4565b6000814281101561039f5760405162461bcd60e51b8152600401610396906122cb565b60405180910390fd5b6103cf897f00000000000000000000000000000000000000000000000000000000000000008a8a8a8a308a610644565b6040516370a0823160e01b815230600482015290935061044891508a9086906001600160a01b038316906370a0823190602401602060405180830381865afa15801561041f573d6000803e3d6000fd5b505050506040513d601f19601f8201168201806040525081019061044391906122f7565b610e36565b6104528483610f67565b50979650505050505050565b600080600061048f7f00000000000000000000000000000000000000000000000000000000000000008d8d8d611010565b9050600084600001516104a257896104a6565b6000195b9050816001600160a01b031663d505accf3330848a8a602001518b604001518c606001516040518863ffffffff1660e01b81526004016104ec9796959493929190612310565b600060405180830381600087803b15801561050657600080fd5b505af115801561051a573d6000803e3d6000fd5b5050505061052e8d8d8d8d8d8d8d8d610644565b909e909d509b505050505050505050505050565b60008060006105937f00000000000000000000000000000000000000000000000000000000000000008c7f00000000000000000000000000000000000000000000000000000000000000008d611010565b9050600084600001516105a657896105aa565b6000195b9050816001600160a01b031663d505accf3330848a8a602001518b604001518c606001516040518863ffffffff1660e01b81526004016105f09796959493929190612310565b600060405180830381600087803b15801561060a57600080fd5b505af115801561061e573d6000803e3d6000fd5b505050506106318c8c8c8c8c8c8c610a82565b909d909c509a5050505050505050505050565b60008082428110156106685760405162461bcd60e51b8152600401610396906122cb565b60006106967f00000000000000000000000000000000000000000000000000000000000000008d8d8d611010565b6040516323b872dd60e01b81523360048201526001600160a01b03821660248201819052604482018c90529192506323b872dd906064016020604051808303816000875af11580156106ec573d6000803e3d6000fd5b505050506040513d601f19601f820116820180604052508101906107109190612351565b5060405163226bf2d160e21b81526001600160a01b03878116600483015260009182918416906389afcb449060240160408051808303816000875af115801561075d573d6000803e3d6000fd5b505050506040513d601f19601f820116820180604052508101906107819190612375565b9150915060006107918f8f6110d7565b509050806001600160a01b03168f6001600160a01b0316146107b45781836107b7565b82825b90975095508a87101561080c5760405162461bcd60e51b815260206004820181905260248201527f494253526f757465723a20494e53554646494349454e545f415f414d4f554e546044820152606401610396565b8986101561085c5760405162461bcd60e51b815260206004820181905260248201527f494253526f757465723a20494e53554646494349454e545f425f414d4f554e546044820152606401610396565b50505050509850989650505050505050565b600080600083428110156108945760405162461bcd60e51b8152600401610396906122cb565b6108a38d8d8d8d8d8d8d6111d0565b909450925060006108d67f00000000000000000000000000000000000000000000000000000000000000008f8f8f611010565b90506108e48e338388611452565b6108f08d338387611452565b6040516335313c2160e11b81526001600160a01b038881166004830152821690636a627842906024016020604051808303816000875af1158015610938573d6000803e3d6000fd5b505050506040513d601f19601f8201168201806040525081019061095c91906122f7565b9250505099509950999650505050505050565b6000806109be7f00000000000000000000000000000000000000000000000000000000000000008b7f00000000000000000000000000000000000000000000000000000000000000008c611010565b9050600083600001516109d157886109d5565b6000195b9050816001600160a01b031663d505accf3330848989602001518a604001518b606001516040518863ffffffff1660e01b8152600401610a1b9796959493929190612310565b600060405180830381600087803b158015610a3557600080fd5b505af1158015610a49573d6000803e3d6000fd5b50505050610a5c8b8b8b8b8b8b8b610373565b9b9a5050505050505050505050565b6000610a7985858585611590565b95945050505050565b6000808242811015610aa65760405162461bcd60e51b8152600401610396906122cb565b610ad68a7f00000000000000000000000000000000000000000000000000000000000000008b8b8b8b308b610644565b9093509150610ae68a8685610e36565b610af08583610f67565b5097509795505050505050565b6060610a797f0000000000000000000000000000000000000000000000000000000000000000868686868080602002602001604051908101604052809392919081815260200183836020028082843760009201919091525061167192505050565b6060610a797f0000000000000000000000000000000000000000000000000000000000000000868686868080602002602001604051908101604052809392919081815260200183836020028082843760009201919091525061186992505050565b6000610bcc848484611a26565b949350505050565b60008060008342811015610bfa5760405162461bcd60e51b8152600401610396906122cb565b610c298b7f00000000000000000000000000000000000000000000000000000000000000008c8c348d8d6111d0565b90945092506000610c7c7f00000000000000000000000000000000000000000000000000000000000000008d7f00000000000000000000000000000000000000000000000000000000000000008e611010565b9050610c8a8c338388611452565b7f00000000000000000000000000000000000000000000000000000000000000006001600160a01b031663d0e30db0856040518263ffffffff1660e01b81526004016000604051808303818588803b158015610ce557600080fd5b505af1158015610cf9573d6000803e3d6000fd5b505060405163a9059cbb60e01b81526001600160a01b038581166004830152602482018990527f000000000000000000000000000000000000000000000000000000000000000016935063a9059cbb925060440190506020604051808303816000875af1158015610d6e573d6000803e3d6000fd5b505050506040513d601f19601f82011682018060405250810190610d929190612351565b610d9e57610d9e611d49565b6040516335313c2160e11b81526001600160a01b038881166004830152821690636a627842906024016020604051808303816000875af1158015610de6573d6000803e3d6000fd5b505050506040513d601f19601f82011682018060405250810190610e0a91906122f7565b925083341115610e2757610e2733610e2286346123af565b611ab6565b50509750975097945050505050565b604080516001600160a01b038481166024830152604480830185905283518084039091018152606490920183526020820180516001600160e01b031663a9059cbb60e01b1790529151600092839290871691610e9291906123c8565b6000604051808303816000865af19150503d8060008114610ecf576040519150601f19603f3d011682016040523d82523d6000602084013e610ed4565b606091505b5091509150818015610efe575080511580610efe575080806020019051810190610efe9190612351565b610f605760405162461bcd60e51b815260206004820152602d60248201527f5472616e7366657248656c7065723a3a736166655472616e736665723a20747260448201526c185b9cd9995c8819985a5b1959609a1b6064820152608401610396565b5050505050565b610f7664e8d4a51000826123f7565b610f859064e8d4a51000612419565b604051632e1a7d4d60e01b8152600481018290529091507f00000000000000000000000000000000000000000000000000000000000000006001600160a01b031690632e1a7d4d90602401600060405180830381600087803b158015610fea57600080fd5b505af1158015610ffe573d6000803e3d6000fd5b5050505061100c8282611ab6565b5050565b600080600061101f86866110d7565b915091508682828660405160200161103993929190612430565b60408051601f198184030181529082905280516020918201206110b4939290917f5a46d8e7d5ac420387bd203f5fcd5593ba34af9f0ee9b781a31834bec17eda9091016001600160f81b0319815260609390931b6bffffffffffffffffffffffff191660018401526015830191909152603582015260550190565b60408051601f198184030181529190528051602090910120979650505050505050565b600080826001600160a01b0316846001600160a01b03160361114b5760405162461bcd60e51b815260206004820152602760248201527f496f7461426565537761704c6962726172793a204944454e544943414c5f41446044820152664452455353455360c81b6064820152608401610396565b826001600160a01b0316846001600160a01b03161061116b57828461116e565b83835b90925090506001600160a01b0382166111c95760405162461bcd60e51b815260206004820181905260248201527f496f7461426565537761704c6962726172793a205a45524f5f414444524553536044820152606401610396565b9250929050565b604051630b4c774160e11b8152600090819081907f00000000000000000000000000000000000000000000000000000000000000006001600160a01b031690631698ee8290611227908d908d908d90600401612430565b602060405180830381865afa158015611244573d6000803e3d6000fd5b505050506040513d601f19601f820116820180604052508101906112689190612458565b6001600160a01b03160361130b5760405163a167129560e01b81526001600160a01b037f0000000000000000000000000000000000000000000000000000000000000000169063a1671295906112c6908c908c908c90600401612430565b6020604051808303816000875af11580156112e5573d6000803e3d6000fd5b505050506040513d601f19601f820116820180604052508101906113099190612458565b505b60008061133a7f00000000000000000000000000000000000000000000000000000000000000008c8c8c611b95565b9150915081600014801561134c575080155b1561135c57879350869250611444565b6000611369898484611a26565b90508781116113cd57858110156113c25760405162461bcd60e51b815260206004820181905260248201527f494253526f757465723a20494e53554646494349454e545f425f414d4f554e546044820152606401610396565b889450925082611442565b60006113da898486611a26565b9050898111156113ec576113ec611d49565b8781101561143c5760405162461bcd60e51b815260206004820181905260248201527f494253526f757465723a20494e53554646494349454e545f415f414d4f554e546044820152606401610396565b94508793505b505b505097509795505050505050565b604080516001600160a01b0385811660248301528481166044830152606480830185905283518084039091018152608490920183526020820180516001600160e01b03166323b872dd60e01b17905291516000928392908816916114b691906123c8565b6000604051808303816000865af19150503d80600081146114f3576040519150601f19603f3d011682016040523d82523d6000602084013e6114f8565b606091505b50915091508180156115225750805115806115225750808060200190518101906115229190612351565b6115885760405162461bcd60e51b815260206004820152603160248201527f5472616e7366657248656c7065723a3a7472616e7366657246726f6d3a207472604482015270185b9cd9995c919c9bdb4819985a5b1959607a1b6064820152608401610396565b505050505050565b60008085116115e55760405162461bcd60e51b815260206004820152602d60248201526000805160206125d483398151915260448201526c17d25394155517d05353d55395609a1b6064820152608401610396565b6000841180156115f55750600083115b6116115760405162461bcd60e51b815260040161039690612475565b600061162083620186a06124ad565b61162f9062ffffff1687612419565b9050600061163d8583612419565b905060008261164f620186a089612419565b61165991906124d0565b905061166581836123f7565b98975050505050505050565b60606002835110156116c55760405162461bcd60e51b815260206004820181905260248201527f496f7461426565537761704c6962726172793a20494e56414c49445f504154486044820152606401610396565b600183516116d391906123af565b8251146116f25760405162461bcd60e51b8152600401610396906124e3565b825167ffffffffffffffff81111561170c5761170c611dff565b604051908082528060200260200182016040528015611735578160200160208202803683370190505b50905083816001835161174891906123af565b8151811061175857611758612526565b60200260200101818152505060006001845161177491906123af565b90505b8015611860576000806117e188876117906001876123af565b815181106117a0576117a0612526565b60200260200101518886815181106117ba576117ba612526565b60200260200101518887815181106117d4576117d4612526565b6020026020010151611b95565b915091506118238484815181106117fa576117fa612526565b6020026020010151838388878151811061181657611816612526565b6020026020010151611c61565b8461182f6001866123af565b8151811061183f5761183f612526565b602002602001018181525050505080806118589061253c565b915050611777565b50949350505050565b60606002835110156118bd5760405162461bcd60e51b815260206004820181905260248201527f496f7461426565537761704c6962726172793a20494e56414c49445f504154486044820152606401610396565b600183516118cb91906123af565b8251146118ea5760405162461bcd60e51b8152600401610396906124e3565b825167ffffffffffffffff81111561190457611904611dff565b60405190808252806020026020018201604052801561192d578160200160208202803683370190505b509050838160008151811061194457611944612526565b60200260200101818152505060005b6001845161196191906123af565b811015611860576000806119a78887858151811061198157611981612526565b60200260200101518886600161199791906124d0565b815181106117ba576117ba612526565b915091506119e98484815181106119c0576119c0612526565b602002602001015183838887815181106119dc576119dc612526565b6020026020010151611590565b846119f58560016124d0565b81518110611a0557611a05612526565b60200260200101818152505050508080611a1e90612553565b915050611953565b6000808411611a755760405162461bcd60e51b815260206004820152602760248201526000805160206125d483398151915260448201526617d05353d5539560ca1b6064820152608401610396565b600083118015611a855750600082115b611aa15760405162461bcd60e51b815260040161039690612475565b82611aac8386612419565b610bcc91906123f7565b604080516000808252602082019092526001600160a01b038416908390604051611ae091906123c8565b60006040518083038185875af1925050503d8060008114611b1d576040519150601f19603f3d011682016040523d82523d6000602084013e611b22565b606091505b5050905080611b905760405162461bcd60e51b815260206004820152603460248201527f5472616e7366657248656c7065723a3a736166655472616e736665724554483a60448201527308115512081d1c985b9cd9995c8819985a5b195960621b6064820152608401610396565b505050565b6000806000611ba486866110d7565b509050600080611bb689898989611010565b6001600160a01b0316630902f1ac6040518163ffffffff1660e01b8152600401606060405180830381865afa158015611bf3573d6000803e3d6000fd5b505050506040513d601f19601f82011682018060405250810190611c179190612583565b506001600160701b031691506001600160701b03169150826001600160a01b0316886001600160a01b031614611c4e578082611c51565b81815b909a909950975050505050505050565b6000808511611cb75760405162461bcd60e51b815260206004820152602e60248201526000805160206125d483398151915260448201526d17d3d55514155517d05353d5539560921b6064820152608401610396565b600084118015611cc75750600083115b611ce35760405162461bcd60e51b815260040161039690612475565b6000620186a0611cf38787612419565b611cfd9190612419565b90506000611d0e84620186a06124ad565b62ffffff16611d1d88876123af565b611d279190612419565b9050611d3381836123f7565b611d3e9060016124d0565b979650505050505050565b634e487b7160e01b600052600160045260246000fd5b6001600160a01b0381168114611d7457600080fd5b50565b803562ffffff81168114611d8a57600080fd5b919050565b600080600080600080600060e0888a031215611daa57600080fd5b8735611db581611d5f565b9650611dc360208901611d77565b955060408801359450606088013593506080880135925060a0880135611de881611d5f565b8092505060c0880135905092959891949750929550565b634e487b7160e01b600052604160045260246000fd5b604051601f8201601f1916810167ffffffffffffffff81118282101715611e3e57611e3e611dff565b604052919050565b8015158114611d7457600080fd5b600060808284031215611e6657600080fd5b6040516080810181811067ffffffffffffffff82111715611e8957611e89611dff565b6040529050808235611e9a81611e46565b8152602083013560ff81168114611eb057600080fd5b8060208301525060408301356040820152606083013560608201525092915050565b60008060008060008060008060006101808a8c031215611ef157600080fd5b8935611efc81611d5f565b985060208a0135611f0c81611d5f565b9750611f1a60408b01611d77565b965060608a0135955060808a0135945060a08a0135935060c08a0135611f3f81611d5f565b925060e08a01359150611f568b6101008c01611e54565b90509295985092959850929598565b600080600080600080600080610160898b031215611f8257600080fd5b8835611f8d81611d5f565b9750611f9b60208a01611d77565b965060408901359550606089013594506080890135935060a0890135611fc081611d5f565b925060c08901359150611fd68a60e08b01611e54565b90509295985092959890939650565b600080600080600080600080610100898b03121561200257600080fd5b883561200d81611d5f565b9750602089013561201d81611d5f565b965061202b60408a01611d77565b9550606089013594506080890135935060a0890135925060c089013561205081611d5f565b8092505060e089013590509295985092959890939650565b60008060008060008060008060006101208a8c03121561208757600080fd5b893561209281611d5f565b985060208a01356120a281611d5f565b97506120b060408b01611d77565b965060608a0135955060808a0135945060a08a0135935060c08a0135925060e08a01356120dc81611d5f565b809250506101008a013590509295985092959850929598565b6000806000806080858703121561210b57600080fd5b84359350602085013592506040850135915061212960608601611d77565b905092959194509250565b60008083601f84011261214657600080fd5b50813567ffffffffffffffff81111561215e57600080fd5b6020830191508360208260051b85010111156111c957600080fd5b6000806000806060858703121561218f57600080fd5b8435935060208086013567ffffffffffffffff808211156121af57600080fd5b818801915088601f8301126121c357600080fd5b8135818111156121d5576121d5611dff565b8060051b6121e4858201611e15565b918252838101850191858101908c8411156121fe57600080fd5b948601945b83861015612228578535925061221883611d5f565b8282529486019490860190612203565b9850505050604088013592508083111561224157600080fd5b505061224f87828801612134565b95989497509550505050565b6020808252825182820181905260009190848201906040850190845b8181101561229357835183529284019291840191600101612277565b50909695505050505050565b6000806000606084860312156122b457600080fd5b505081359360208301359350604090920135919050565b602080825260129082015271125094d49bdd5d195c8e881156141254915160721b604082015260600190565b60006020828403121561230957600080fd5b5051919050565b6001600160a01b0397881681529590961660208601526040850193909352606084019190915260ff16608083015260a082015260c081019190915260e00190565b60006020828403121561236357600080fd5b815161236e81611e46565b9392505050565b6000806040838503121561238857600080fd5b505080516020909101519092909150565b634e487b7160e01b600052601160045260246000fd5b818103818111156123c2576123c2612399565b92915050565b6000825160005b818110156123e957602081860181015185830152016123cf565b506000920191825250919050565b60008261241457634e487b7160e01b600052601260045260246000fd5b500490565b80820281158282048414176123c2576123c2612399565b6001600160a01b03938416815291909216602082015262ffffff909116604082015260600190565b60006020828403121561246a57600080fd5b815161236e81611d5f565b6020808252602a908201526000805160206125d48339815191526040820152695f4c495155494449545960b01b606082015260800190565b62ffffff8281168282160390808211156124c9576124c9612399565b5092915050565b808201808211156123c2576123c2612399565b60208082526023908201527f496f7461426565537761704c6962726172793a20494e56414c49445f4645455260408201526241544560e81b606082015260800190565b634e487b7160e01b600052603260045260246000fd5b60008161254b5761254b612399565b506000190190565b60006001820161256557612565612399565b5060010190565b80516001600160701b0381168114611d8a57600080fd5b60008060006060848603121561259857600080fd5b6125a18461256c565b92506125af6020850161256c565b9150604084015163ffffffff811681146125c857600080fd5b80915050925092509256fe496f7461426565537761704c6962726172793a20494e53554646494349454e54a264697066735822122068705768c5a001805b53a8a9bc8bd613aff1877810097e574594c757918d2e3d64736f6c63430008110033",
  "linkReferences": {},
  "deployedLinkReferences": {}
}