{
  "_format": "hh-sol-artifact-1",
  "contractName": "MockTimeUniswapV3Pool",
  "sourceName": "contracts/test/MockTimeUniswapV3Pool.sol",
  "abi": [
    {
      "anonymous": false,
      "inputs": [
        {
          "indexed": true,
          "internalType": "address",
          "name": "owner",
          "type": "address"
        },
        {
          "indexed": true,
          "internalType": "int24",
          "name": "tickLower",
          "type": "int24"
        },
        {
          "indexed": true,
          "internalType": "int24",
          "name": "tickUpper",
          "type": "int24"
        },
        {
          "indexed": false,
          "internalType": "uint128",
          "name": "amount",
          "type": "uint128"
        },
        {
          "indexed": false,
          "internalType": "uint256",
          "name": "amount0",
          "type": "uint256"
        },
        {
          "indexed": false,
          "internalType": "uint256",
          "name": "amount1",
          "type": "uint256"
        }
      ],
      "name": "Burn",
      "type": "event"
    },
    {
      "anonymous": false,
      "inputs": [
        {
          "indexed": true,
          "internalType": "address",
          "name": "owner",
          "type": "address"
        },
        {
          "indexed": false,
          "internalType": "address",
          "name": "recipient",
          "type": "address"
        },
        {
          "indexed": true,
          "internalType": "int24",
          "name": "tickLower",
          "type": "int24"
        },
        {
          "indexed": true,
          "internalType": "int24",
          "name": "tickUpper",
          "type": "int24"
        },
        {
          "indexed": false,
          "internalType": "uint128",
          "name": "amount0",
          "type": "uint128"
        },
        {
          "indexed": false,
          "internalType": "uint128",
          "name": "amount1",
          "type": "uint128"
        }
      ],
      "name": "Collect",
      "type": "event"
    },
    {
      "anonymous": false,
      "inputs": [
        {
          "indexed": true,
          "internalType": "address",
          "name": "sender",
          "type": "address"
        },
        {
          "indexed": true,
          "internalType": "address",
          "name": "recipient",
          "type": "address"
        },
        {
          "indexed": false,
          "internalType": "uint128",
          "name": "amount0",
          "type": "uint128"
        },
        {
          "indexed": false,
          "internalType": "uint128",
          "name": "amount1",
          "type": "uint128"
        }
      ],
      "name": "CollectProtocol",
      "type": "event"
    },
    {
      "anonymous": false,
      "inputs": [
        {
          "indexed": true,
          "internalType": "address",
          "name": "sender",
          "type": "address"
        },
        {
          "indexed": true,
          "internalType": "address",
          "name": "recipient",
          "type": "address"
        },
        {
          "indexed": false,
          "internalType": "uint256",
          "name": "amount0",
          "type": "uint256"
        },
        {
          "indexed": false,
          "internalType": "uint256",
          "name": "amount1",
          "type": "uint256"
        },
        {
          "indexed": false,
          "internalType": "uint256",
          "name": "paid0",
          "type": "uint256"
        },
        {
          "indexed": false,
          "internalType": "uint256",
          "name": "paid1",
          "type": "uint256"
        }
      ],
      "name": "Flash",
      "type": "event"
    },
    {
      "anonymous": false,
      "inputs": [
        {
          "indexed": false,
          "internalType": "uint16",
          "name": "observationCardinalityNextOld",
          "type": "uint16"
        },
        {
          "indexed": false,
          "internalType": "uint16",
          "name": "observationCardinalityNextNew",
          "type": "uint16"
        }
      ],
      "name": "IncreaseObservationCardinalityNext",
      "type": "event"
    },
    {
      "anonymous": false,
      "inputs": [
        {
          "indexed": false,
          "internalType": "uint160",
          "name": "sqrtPriceX96",
          "type": "uint160"
        },
        {
          "indexed": false,
          "internalType": "int24",
          "name": "tick",
          "type": "int24"
        }
      ],
      "name": "Initialize",
      "type": "event"
    },
    {
      "anonymous": false,
      "inputs": [
        {
          "indexed": false,
          "internalType": "address",
          "name": "sender",
          "type": "address"
        },
        {
          "indexed": true,
          "internalType": "address",
          "name": "owner",
          "type": "address"
        },
        {
          "indexed": true,
          "internalType": "int24",
          "name": "tickLower",
          "type": "int24"
        },
        {
          "indexed": true,
          "internalType": "int24",
          "name": "tickUpper",
          "type": "int24"
        },
        {
          "indexed": false,
          "internalType": "uint128",
          "name": "amount",
          "type": "uint128"
        },
        {
          "indexed": false,
          "internalType": "uint256",
          "name": "amount0",
          "type": "uint256"
        },
        {
          "indexed": false,
          "internalType": "uint256",
          "name": "amount1",
          "type": "uint256"
        }
      ],
      "name": "Mint",
      "type": "event"
    },
    {
      "anonymous": false,
      "inputs": [
        {
          "indexed": false,
          "internalType": "uint8",
          "name": "feeProtocol0Old",
          "type": "uint8"
        },
        {
          "indexed": false,
          "internalType": "uint8",
          "name": "feeProtocol1Old",
          "type": "uint8"
        },
        {
          "indexed": false,
          "internalType": "uint8",
          "name": "feeProtocol0New",
          "type": "uint8"
        },
        {
          "indexed": false,
          "internalType": "uint8",
          "name": "feeProtocol1New",
          "type": "uint8"
        }
      ],
      "name": "SetFeeProtocol",
      "type": "event"
    },
    {
      "anonymous": false,
      "inputs": [
        {
          "indexed": true,
          "internalType": "address",
          "name": "sender",
          "type": "address"
        },
        {
          "indexed": true,
          "internalType": "address",
          "name": "recipient",
          "type": "address"
        },
        {
          "indexed": false,
          "internalType": "int256",
          "name": "amount0",
          "type": "int256"
        },
        {
          "indexed": false,
          "internalType": "int256",
          "name": "amount1",
          "type": "int256"
        },
        {
          "indexed": false,
          "internalType": "uint160",
          "name": "sqrtPriceX96",
          "type": "uint160"
        },
        {
          "indexed": false,
          "internalType": "uint128",
          "name": "liquidity",
          "type": "uint128"
        },
        {
          "indexed": false,
          "internalType": "int24",
          "name": "tick",
          "type": "int24"
        }
      ],
      "name": "Swap",
      "type": "event"
    },
    {
      "inputs": [
        {
          "internalType": "uint256",
          "name": "by",
          "type": "uint256"
        }
      ],
      "name": "advanceTime",
      "outputs": [],
      "stateMutability": "nonpayable",
      "type": "function"
    },
    {
      "inputs": [
        {
          "internalType": "int24",
          "name": "tickLower",
          "type": "int24"
        },
        {
          "internalType": "int24",
          "name": "tickUpper",
          "type": "int24"
        },
        {
          "internalType": "uint128",
          "name": "amount",
          "type": "uint128"
        }
      ],
      "name": "burn",
      "outputs": [
        {
          "internalType": "uint256",
          "name": "amount0",
          "type": "uint256"
        },
        {
          "internalType": "uint256",
          "name": "amount1",
          "type": "uint256"
        }
      ],
      "stateMutability": "nonpayable",
      "type": "function"
    },
    {
      "inputs": [
        {
          "internalType": "address",
          "name": "recipient",
          "type": "address"
        },
        {
          "internalType": "int24",
          "name": "tickLower",
          "type": "int24"
        },
        {
          "internalType": "int24",
          "name": "tickUpper",
          "type": "int24"
        },
        {
          "internalType": "uint128",
          "name": "amount0Requested",
          "type": "uint128"
        },
        {
          "internalType": "uint128",
          "name": "amount1Requested",
          "type": "uint128"
        }
      ],
      "name": "collect",
      "outputs": [
        {
          "internalType": "uint128",
          "name": "amount0",
          "type": "uint128"
        },
        {
          "internalType": "uint128",
          "name": "amount1",
          "type": "uint128"
        }
      ],
      "stateMutability": "nonpayable",
      "type": "function"
    },
    {
      "inputs": [
        {
          "internalType": "address",
          "name": "recipient",
          "type": "address"
        },
        {
          "internalType": "uint128",
          "name": "amount0Requested",
          "type": "uint128"
        },
        {
          "internalType": "uint128",
          "name": "amount1Requested",
          "type": "uint128"
        }
      ],
      "name": "collectProtocol",
      "outputs": [
        {
          "internalType": "uint128",
          "name": "amount0",
          "type": "uint128"
        },
        {
          "internalType": "uint128",
          "name": "amount1",
          "type": "uint128"
        }
      ],
      "stateMutability": "nonpayable",
      "type": "function"
    },
    {
      "inputs": [],
      "name": "factory",
      "outputs": [
        {
          "internalType": "address",
          "name": "",
          "type": "address"
        }
      ],
      "stateMutability": "view",
      "type": "function"
    },
    {
      "inputs": [],
      "name": "fee",
      "outputs": [
        {
          "internalType": "uint24",
          "name": "",
          "type": "uint24"
        }
      ],
      "stateMutability": "view",
      "type": "function"
    },
    {
      "inputs": [],
      "name": "feeGrowthGlobal0X128",
      "outputs": [
        {
          "internalType": "uint256",
          "name": "",
          "type": "uint256"
        }
      ],
      "stateMutability": "view",
      "type": "function"
    },
    {
      "inputs": [],
      "name": "feeGrowthGlobal1X128",
      "outputs": [
        {
          "internalType": "uint256",
          "name": "",
          "type": "uint256"
        }
      ],
      "stateMutability": "view",
      "type": "function"
    },
    {
      "inputs": [
        {
          "internalType": "address",
          "name": "recipient",
          "type": "address"
        },
        {
          "internalType": "uint256",
          "name": "amount0",
          "type": "uint256"
        },
        {
          "internalType": "uint256",
          "name": "amount1",
          "type": "uint256"
        },
        {
          "internalType": "bytes",
          "name": "data",
          "type": "bytes"
        }
      ],
      "name": "flash",
      "outputs": [],
      "stateMutability": "nonpayable",
      "type": "function"
    },
    {
      "inputs": [
        {
          "internalType": "uint16",
          "name": "observationCardinalityNext",
          "type": "uint16"
        }
      ],
      "name": "increaseObservationCardinalityNext",
      "outputs": [],
      "stateMutability": "nonpayable",
      "type": "function"
    },
    {
      "inputs": [
        {
          "internalType": "uint160",
          "name": "sqrtPriceX96",
          "type": "uint160"
        }
      ],
      "name": "initialize",
      "outputs": [],
      "stateMutability": "nonpayable",
      "type": "function"
    },
    {
      "inputs": [],
      "name": "liquidity",
      "outputs": [
        {
          "internalType": "uint128",
          "name": "",
          "type": "uint128"
        }
      ],
      "stateMutability": "view",
      "type": "function"
    },
    {
      "inputs": [],
      "name": "maxLiquidityPerTick",
      "outputs": [
        {
          "internalType": "uint128",
          "name": "",
          "type": "uint128"
        }
      ],
      "stateMutability": "view",
      "type": "function"
    },
    {
      "inputs": [
        {
          "internalType": "address",
          "name": "recipient",
          "type": "address"
        },
        {
          "internalType": "int24",
          "name": "tickLower",
          "type": "int24"
        },
        {
          "internalType": "int24",
          "name": "tickUpper",
          "type": "int24"
        },
        {
          "internalType": "uint128",
          "name": "amount",
          "type": "uint128"
        },
        {
          "internalType": "bytes",
          "name": "data",
          "type": "bytes"
        }
      ],
      "name": "mint",
      "outputs": [
        {
          "internalType": "uint256",
          "name": "amount0",
          "type": "uint256"
        },
        {
          "internalType": "uint256",
          "name": "amount1",
          "type": "uint256"
        }
      ],
      "stateMutability": "nonpayable",
      "type": "function"
    },
    {
      "inputs": [],
      "name": "nftEquip",
      "outputs": [
        {
          "internalType": "address",
          "name": "",
          "type": "address"
        }
      ],
      "stateMutability": "view",
      "type": "function"
    },
    {
      "inputs": [
        {
          "internalType": "uint256",
          "name": "",
          "type": "uint256"
        }
      ],
      "name": "observations",
      "outputs": [
        {
          "internalType": "uint32",
          "name": "blockTimestamp",
          "type": "uint32"
        },
        {
          "internalType": "int56",
          "name": "tickCumulative",
          "type": "int56"
        },
        {
          "internalType": "uint160",
          "name": "secondsPerLiquidityCumulativeX128",
          "type": "uint160"
        },
        {
          "internalType": "bool",
          "name": "initialized",
          "type": "bool"
        }
      ],
      "stateMutability": "view",
      "type": "function"
    },
    {
      "inputs": [
        {
          "internalType": "uint32[]",
          "name": "secondsAgos",
          "type": "uint32[]"
        }
      ],
      "name": "observe",
      "outputs": [
        {
          "internalType": "int56[]",
          "name": "tickCumulatives",
          "type": "int56[]"
        },
        {
          "internalType": "uint160[]",
          "name": "secondsPerLiquidityCumulativeX128s",
          "type": "uint160[]"
        }
      ],
      "stateMutability": "view",
      "type": "function"
    },
    {
      "inputs": [
        {
          "internalType": "bytes32",
          "name": "",
          "type": "bytes32"
        }
      ],
      "name": "positions",
      "outputs": [
        {
          "internalType": "uint128",
          "name": "liquidity",
          "type": "uint128"
        },
        {
          "internalType": "uint256",
          "name": "feeGrowthInside0LastX128",
          "type": "uint256"
        },
        {
          "internalType": "uint256",
          "name": "feeGrowthInside1LastX128",
          "type": "uint256"
        },
        {
          "internalType": "uint128",
          "name": "tokensOwed0",
          "type": "uint128"
        },
        {
          "internalType": "uint128",
          "name": "tokensOwed1",
          "type": "uint128"
        }
      ],
      "stateMutability": "view",
      "type": "function"
    },
    {
      "inputs": [],
      "name": "protocolFees",
      "outputs": [
        {
          "internalType": "uint128",
          "name": "token0",
          "type": "uint128"
        },
        {
          "internalType": "uint128",
          "name": "token1",
          "type": "uint128"
        }
      ],
      "stateMutability": "view",
      "type": "function"
    },
    {
      "inputs": [
        {
          "internalType": "uint256",
          "name": "_feeGrowthGlobal0X128",
          "type": "uint256"
        }
      ],
      "name": "setFeeGrowthGlobal0X128",
      "outputs": [],
      "stateMutability": "nonpayable",
      "type": "function"
    },
    {
      "inputs": [
        {
          "internalType": "uint256",
          "name": "_feeGrowthGlobal1X128",
          "type": "uint256"
        }
      ],
      "name": "setFeeGrowthGlobal1X128",
      "outputs": [],
      "stateMutability": "nonpayable",
      "type": "function"
    },
    {
      "inputs": [
        {
          "internalType": "uint8",
          "name": "feeProtocol0",
          "type": "uint8"
        },
        {
          "internalType": "uint8",
          "name": "feeProtocol1",
          "type": "uint8"
        }
      ],
      "name": "setFeeProtocol",
      "outputs": [],
      "stateMutability": "nonpayable",
      "type": "function"
    },
    {
      "inputs": [
        {
          "internalType": "address",
          "name": "equip",
          "type": "address"
        }
      ],
      "name": "setIIbswapNftEquip",
      "outputs": [],
      "stateMutability": "nonpayable",
      "type": "function"
    },
    {
      "inputs": [],
      "name": "slot0",
      "outputs": [
        {
          "internalType": "uint160",
          "name": "sqrtPriceX96",
          "type": "uint160"
        },
        {
          "internalType": "int24",
          "name": "tick",
          "type": "int24"
        },
        {
          "internalType": "uint16",
          "name": "observationIndex",
          "type": "uint16"
        },
        {
          "internalType": "uint16",
          "name": "observationCardinality",
          "type": "uint16"
        },
        {
          "internalType": "uint16",
          "name": "observationCardinalityNext",
          "type": "uint16"
        },
        {
          "internalType": "uint8",
          "name": "feeProtocol",
          "type": "uint8"
        },
        {
          "internalType": "bool",
          "name": "unlocked",
          "type": "bool"
        }
      ],
      "stateMutability": "view",
      "type": "function"
    },
    {
      "inputs": [
        {
          "internalType": "int24",
          "name": "tickLower",
          "type": "int24"
        },
        {
          "internalType": "int24",
          "name": "tickUpper",
          "type": "int24"
        }
      ],
      "name": "snapshotCumulativesInside",
      "outputs": [
        {
          "internalType": "int56",
          "name": "tickCumulativeInside",
          "type": "int56"
        },
        {
          "internalType": "uint160",
          "name": "secondsPerLiquidityInsideX128",
          "type": "uint160"
        },
        {
          "internalType": "uint32",
          "name": "secondsInside",
          "type": "uint32"
        }
      ],
      "stateMutability": "view",
      "type": "function"
    },
    {
      "inputs": [
        {
          "internalType": "address",
          "name": "recipient",
          "type": "address"
        },
        {
          "internalType": "bool",
          "name": "zeroForOne",
          "type": "bool"
        },
        {
          "internalType": "int256",
          "name": "amountSpecified",
          "type": "int256"
        },
        {
          "internalType": "uint160",
          "name": "sqrtPriceLimitX96",
          "type": "uint160"
        },
        {
          "internalType": "bytes",
          "name": "data",
          "type": "bytes"
        }
      ],
      "name": "swap",
      "outputs": [
        {
          "internalType": "int256",
          "name": "amount0",
          "type": "int256"
        },
        {
          "internalType": "int256",
          "name": "amount1",
          "type": "int256"
        }
      ],
      "stateMutability": "nonpayable",
      "type": "function"
    },
    {
      "inputs": [
        {
          "internalType": "int16",
          "name": "",
          "type": "int16"
        }
      ],
      "name": "tickBitmap",
      "outputs": [
        {
          "internalType": "uint256",
          "name": "",
          "type": "uint256"
        }
      ],
      "stateMutability": "view",
      "type": "function"
    },
    {
      "inputs": [],
      "name": "tickSpacing",
      "outputs": [
        {
          "internalType": "int24",
          "name": "",
          "type": "int24"
        }
      ],
      "stateMutability": "view",
      "type": "function"
    },
    {
      "inputs": [
        {
          "internalType": "int24",
          "name": "",
          "type": "int24"
        }
      ],
      "name": "ticks",
      "outputs": [
        {
          "internalType": "uint128",
          "name": "liquidityGross",
          "type": "uint128"
        },
        {
          "internalType": "int128",
          "name": "liquidityNet",
          "type": "int128"
        },
        {
          "internalType": "uint256",
          "name": "feeGrowthOutside0X128",
          "type": "uint256"
        },
        {
          "internalType": "uint256",
          "name": "feeGrowthOutside1X128",
          "type": "uint256"
        },
        {
          "internalType": "int56",
          "name": "tickCumulativeOutside",
          "type": "int56"
        },
        {
          "internalType": "uint160",
          "name": "secondsPerLiquidityOutsideX128",
          "type": "uint160"
        },
        {
          "internalType": "uint32",
          "name": "secondsOutside",
          "type": "uint32"
        },
        {
          "internalType": "bool",
          "name": "initialized",
          "type": "bool"
        }
      ],
      "stateMutability": "view",
      "type": "function"
    },
    {
      "inputs": [],
      "name": "time",
      "outputs": [
        {
          "internalType": "uint256",
          "name": "",
          "type": "uint256"
        }
      ],
      "stateMutability": "view",
      "type": "function"
    },
    {
      "inputs": [],
      "name": "token0",
      "outputs": [
        {
          "internalType": "address",
          "name": "",
          "type": "address"
        }
      ],
      "stateMutability": "view",
      "type": "function"
    },
    {
      "inputs": [],
      "name": "token1",
      "outputs": [
        {
          "internalType": "address",
          "name": "",
          "type": "address"
        }
      ],
      "stateMutability": "view",
      "type": "function"
    }
  ],
  "bytecode": "0x610160604052635f7b26e062010008553480156200001c57600080fd5b503060601b60805260408051630890357360e41b81529051600091339163890357309160048082019260a092909190829003018186803b1580156200006057600080fd5b505afa15801562000075573d6000803e3d6000fd5b505050506040513d60a08110156200008c57600080fd5b508051602080830151604084015160608086015160809096015160e896871b6001600160e81b0319166101005291811b6001600160601b031990811660e05292811b831660c0529390931b1660a052600282810b900b90921b6101205291506200010190829062000119811b6200292717901c565b60801b6001600160801b031916610140525062000187565b60008082600281900b620d89e719816200012f57fe5b05029050600083600281900b620d89e8816200014757fe5b0502905060008460020b83830360020b816200015f57fe5b0560010190508062ffffff166001600160801b038016816200017d57fe5b0495945050505050565b60805160601c60a05160601c60c05160601c60e05160601c6101005160e81c6101205160e81c6101405160801c6158b56200025960003980611cb3528061482e52806148655250806126d95280612b24528061489952806148cb525080610b8f528061169052806116c75280612726525080610e83528061174a5280611bb952806120ee52806126fd52806133395250806109a65280610fb152806117195280611b53528061206852806131ea525080611d405280611f2752806125f552806126b552508061299e52506158b56000f3fe608060405234801561001057600080fd5b50600436106101f05760003560e01c80638206a4d11161010f578063d0c93a7c116100a2578063f305839911610071578063f3058399146108ca578063f30dba93146108d2578063f637731d14610954578063f6eb760f1461097a576101f0565b8063d0c93a7c14610866578063d21220a714610885578063d380c6791461088d578063ddca3f43146108aa576101f0565b8063a34123a7116100de578063a34123a7146107a3578063a38807f2146107dd578063b6188fb214610838578063c45a01551461085e576101f0565b80638206a4d11461062f57806385b6672914610657578063883bdbfd14610694578063888c4dd41461079b576101f0565b80633850c7bd116101875780634f1eb3d8116101565780634f1eb3d81461055d578063514ea4bf146105ae5780635339c2961461060757806370cf754a14610627576101f0565b80633850c7bd146103d25780633c8a7d8d1461042b57806346141319146104cb578063490e6cbc146104d3576101f0565b80631a686502116101c35780631a686502146102ff5780631ad8b03b14610323578063252c09d71461035a57806332148f67146103b1576101f0565b806307e32f0a146101f55780630dfe168114610214578063128acb081461023857806316ada547146102e5575b600080fd5b6102126004803603602081101561020b57600080fd5b5035610997565b005b61021c6109a4565b604080516001600160a01b039092168252519081900360200190f35b6102cc600480360360a081101561024e57600080fd5b6001600160a01b0382358116926020810135151592604082013592606083013516919081019060a081016080820135600160201b81111561028e57600080fd5b8201836020820111156102a057600080fd5b803590602001918460018302840111600160201b831117156102c157600080fd5b5090925090506109c8565b6040805192835260208301919091528051918290030190f35b6102ed61116b565b60408051918252519081900360200190f35b610307611173565b604080516001600160801b039092168252519081900360200190f35b61032b611182565b60405180836001600160801b03168152602001826001600160801b031681526020019250505060405180910390f35b6103776004803603602081101561037057600080fd5b503561119c565b6040805163ffffffff909516855260069390930b60208501526001600160a01b039091168383015215156060830152519081900360800190f35b610212600480360360208110156103c757600080fd5b503561ffff166111e1565b6103da6112db565b604080516001600160a01b03909816885260029690960b602088015261ffff9485168787015292841660608701529216608085015260ff90911660a0840152151560c0830152519081900360e00190f35b6102cc600480360360a081101561044157600080fd5b6001600160a01b03823516916020810135600290810b92604083013590910b916001600160801b036060820135169181019060a081016080820135600160201b81111561048d57600080fd5b82018360208201111561049f57600080fd5b803590602001918460018302840111600160201b831117156104c057600080fd5b50909250905061132b565b6102ed6115e7565b610212600480360360808110156104e957600080fd5b6001600160a01b038235169160208101359160408201359190810190608081016060820135600160201b81111561051f57600080fd5b82018360208201111561053157600080fd5b803590602001918460018302840111600160201b8311171561055257600080fd5b5090925090506115ed565b61032b600480360360a081101561057357600080fd5b506001600160a01b03813516906020810135600290810b91604081013590910b906001600160801b0360608201358116916080013516611a48565b6105cb600480360360208110156105c457600080fd5b5035611c62565b604080516001600160801b0396871681526020810195909552848101939093529084166060840152909216608082015290519081900360a00190f35b6102ed6004803603602081101561061d57600080fd5b503560010b611c9f565b610307611cb1565b6102126004803603604081101561064557600080fd5b5060ff81358116916020013516611cd5565b61032b6004803603606081101561066d57600080fd5b506001600160a01b03813516906001600160801b0360208201358116916040013516611eb9565b610702600480360360208110156106aa57600080fd5b810190602081018135600160201b8111156106c457600080fd5b8201836020820111156106d657600080fd5b803590602001918460208302840111600160201b831117156106f757600080fd5b509092509050612186565b604051808060200180602001838103835285818151815260200191508051906020019060200280838360005b8381101561074657818101518382015260200161072e565b50505050905001838103825284818151815260200191508051906020019060200280838360005b8381101561078557818101518382015260200161076d565b5050505090500194505050505060405180910390f35b61021c612213565b6102cc600480360360608110156107b957600080fd5b508035600290810b91602081013590910b90604001356001600160801b0316612224565b610807600480360360408110156107f357600080fd5b508035600290810b9160200135900b61239b565b6040805160069490940b84526001600160a01b03909216602084015263ffffffff1682820152519081900360600190f35b6102126004803603602081101561084e57600080fd5b50356001600160a01b031661258a565b61021c6126b3565b61086e6126d7565b6040805160029290920b8252519081900360200190f35b61021c6126fb565b610212600480360360208110156108a357600080fd5b503561271f565b6108b2612724565b6040805162ffffff9092168252519081900360200190f35b6102ed612748565b6108f2600480360360208110156108e857600080fd5b503560020b61274e565b604080516001600160801b039099168952600f9790970b602089015287870195909552606087019390935260069190910b60808601526001600160a01b031660a085015263ffffffff1660c0840152151560e083015251908190036101000190f35b6102126004803603602081101561096a57600080fd5b50356001600160a01b03166127b8565b6102126004803603602081101561099057600080fd5b5035612922565b6201000880549091019055565b7f000000000000000000000000000000000000000000000000000000000000000081565b6000806109d3612993565b85610a0a576040805162461bcd60e51b8152602060048201526002602482015261415360f01b604482015290519081900360640190fd5b6040805160e0810182526000546001600160a01b0381168252600160a01b8104600290810b810b900b602083015261ffff600160b81b8204811693830193909352600160c81b810483166060830152600160d81b8104909216608082015260ff600160e81b8304811660a0830152600160f01b909204909116151560c08201819052610ac3576040805162461bcd60e51b81526020600482015260036024820152624c4f4b60e81b604482015290519081900360640190fd5b87610b0e5780600001516001600160a01b0316866001600160a01b0316118015610b09575073fffd8963efd1fc6a506488495d951d5263988d266001600160a01b038716105b610b40565b80600001516001600160a01b0316866001600160a01b0316108015610b4057506401000276a36001600160a01b038716115b610b77576040805162461bcd60e51b815260206004820152600360248201526214d41360ea1b604482015290519081900360640190fd5b6000805460ff60f01b191681556201000754908813907f0000000000000000000000000000000000000000000000000000000000000000906001600160a01b031615610c6057620100075460408051631dff1ce960e31b81526001600160a01b038e811660048301529151600093929092169163eff8e74891602480820192602092909190829003018186803b158015610c1057600080fd5b505afa158015610c24573d6000803e3d6000fd5b505050506040513d6020811015610c3a57600080fd5b50519050606460ff821610610c4d575060005b606490810360ff169190910262ffffff16045b600080610c718c8c8c87878a6129ca565b91509150846020015160020b816060015160020b14610d4357600080610cc387604001518560400151896020015187602001518b606001518c608001516008612eb2909695949392919063ffffffff16565b604085015160608601516000805461ffff60c81b1916600160c81b61ffff958616021761ffff60b81b1916600160b81b95909416949094029290921762ffffff60a01b1916600160a01b62ffffff60029490940b9390931692909202919091176001600160a01b0319166001600160a01b0390911617905550610d689050565b6040810151600080546001600160a01b0319166001600160a01b039092169190911790555b8060c001516001600160801b031682602001516001600160801b031614610dae5760c0810151600480546001600160801b0319166001600160801b039092169190911790555b8b15610dfe57608081015160015560a08101516001600160801b031615610df95760a0810151600380546001600160801b031981166001600160801b03918216909301169190911790555b610e44565b608081015160025560a08101516001600160801b031615610e445760a0810151600380546001600160801b03808216600160801b92839004821690940116029190911790555b8315158c151514610e5d57602081015181518c03610e6a565b80600001518b0381602001515b90975095508b15610fa3576000861215610eac57610eac7f00000000000000000000000000000000000000000000000000000000000000008e8860000361304e565b6000610eb661319c565b9050336001600160a01b031663fa461e3389898d8d6040518563ffffffff1660e01b815260040180858152602001848152602001806020018281038252848482818152602001925080828437600081840152601f19601f82011690508083019250505095505050505050600060405180830381600087803b158015610f3a57600080fd5b505af1158015610f4e573d6000803e3d6000fd5b50505050610f5a61319c565b610f64828a6132d5565b1115610f9d576040805162461bcd60e51b815260206004820152600360248201526249494160e81b604482015290519081900360640190fd5b506110cd565b6000871215610fda57610fda7f00000000000000000000000000000000000000000000000000000000000000008e8960000361304e565b6000610fe46132eb565b9050336001600160a01b031663fa461e3389898d8d6040518563ffffffff1660e01b815260040180858152602001848152602001806020018281038252848482818152602001925080828437600081840152601f19601f82011690508083019250505095505050505050600060405180830381600087803b15801561106857600080fd5b505af115801561107c573d6000803e3d6000fd5b505050506110886132eb565b61109282896132d5565b11156110cb576040805162461bcd60e51b815260206004820152600360248201526249494160e81b604482015290519081900360640190fd5b505b60408082015160c083015160608085015184518c8152602081018c90526001600160a01b03948516818701526001600160801b039093169183019190915260020b60808201529151908f169133917fc42079f94a6350d7e6235f29174924f928cc2ac818eb64fed8004e115fbcca679181900360a00190a350506000805460ff60f01b1916600160f01b179055509299919850909650505050505050565b620100085481565b6004546001600160801b031681565b6003546001600160801b0380821691600160801b90041682565b60088161ffff81106111ad57600080fd5b015463ffffffff81169150600160201b810460060b90600160581b81046001600160a01b031690600160f81b900460ff1684565b600054600160f01b900460ff16611225576040805162461bcd60e51b81526020600482015260036024820152624c4f4b60e81b604482015290519081900360640190fd5b6000805460ff60f01b1916905561123a612993565b60008054600160d81b900461ffff169061125660088385613383565b6000805461ffff808416600160d81b810261ffff60d81b19909316929092179092559192508316146112c3576040805161ffff80851682528316602082015281517fac49e518f90a358f652e4400164f05a5d8f7e35e7747279bc3a93dbf584e125a929181900390910190a15b50506000805460ff60f01b1916600160f01b17905550565b6000546001600160a01b03811690600160a01b810460020b9061ffff600160b81b8204811691600160c81b8104821691600160d81b8204169060ff600160e81b8204811691600160f01b90041687565b600080548190600160f01b900460ff16611372576040805162461bcd60e51b81526020600482015260036024820152624c4f4b60e81b604482015290519081900360640190fd5b6000805460ff60f01b191690556001600160801b03851661139257600080fd5b6000806113e060405180608001604052808c6001600160a01b031681526020018b60020b81526020018a60020b81526020016113d68a6001600160801b0316613429565b600f0b905261343a565b92509250508193508092506000806000861115611402576113ff61319c565b91505b8415611413576114106132eb565b90505b336001600160a01b031663d348799787878b8b6040518563ffffffff1660e01b815260040180858152602001848152602001806020018281038252848482818152602001925080828437600081840152601f19601f82011690508083019250505095505050505050600060405180830381600087803b15801561149557600080fd5b505af11580156114a9573d6000803e3d6000fd5b505050506000861115611500576114be61319c565b6114c883886132d5565b1115611500576040805162461bcd60e51b815260206004820152600260248201526104d360f41b604482015290519081900360640190fd5b84156115505761150e6132eb565b61151882876132d5565b1115611550576040805162461bcd60e51b81526020600482015260026024820152614d3160f01b604482015290519081900360640190fd5b8960020b8b60020b8d6001600160a01b03167f7a53080ba414158be7ec69b987b5fb7d07dee101fe85488f0853ae16239d0bde338d8b8b60405180856001600160a01b03168152602001846001600160801b0316815260200183815260200182815260200194505050505060405180910390a450506000805460ff60f01b1916600160f01b17905550919890975095505050505050565b60025481565b600054600160f01b900460ff16611631576040805162461bcd60e51b81526020600482015260036024820152624c4f4b60e81b604482015290519081900360640190fd5b6000805460ff60f01b19169055611646612993565b6004546001600160801b031680611688576040805162461bcd60e51b81526020600482015260016024820152601360fa1b604482015290519081900360640190fd5b60006116bd867f000000000000000000000000000000000000000000000000000000000000000062ffffff16620f424061367a565b905060006116f4867f000000000000000000000000000000000000000000000000000000000000000062ffffff16620f424061367a565b9050600061170061319c565b9050600061170c6132eb565b9050881561173f5761173f7f00000000000000000000000000000000000000000000000000000000000000008b8b61304e565b8715611770576117707f00000000000000000000000000000000000000000000000000000000000000008b8a61304e565b336001600160a01b031663e9cbafb085858a8a6040518563ffffffff1660e01b815260040180858152602001848152602001806020018281038252848482818152602001925080828437600081840152601f19601f82011690508083019250505095505050505050600060405180830381600087803b1580156117f257600080fd5b505af1158015611806573d6000803e3d6000fd5b50505050600061181461319c565b905060006118206132eb565b90508161182d85886132d5565b1115611865576040805162461bcd60e51b8152602060048201526002602482015261046360f41b604482015290519081900360640190fd5b8061187084876132d5565b11156118a8576040805162461bcd60e51b8152602060048201526002602482015261463160f01b604482015290519081900360640190fd5b83820383820381156119375760008054600160e81b9004600f169081156118db578160ff1684816118d557fe5b046118de565b60005b90506001600160801b0381161561191157600380546001600160801b038082168401166001600160801b03199091161790555b61192b818503600160801b8d6001600160801b03166136b4565b60018054909101905550505b80156119c25760008054600160e81b900460041c600f16908115611967578160ff16838161196157fe5b0461196a565b60005b90506001600160801b0381161561199c57600380546001600160801b03600160801b8083048216850182160291161790555b6119b6818403600160801b8d6001600160801b03166136b4565b60028054909101905550505b8d6001600160a01b0316336001600160a01b03167fbdbdb71d7860376ba52b25a5028beea23581364a40522f6bcfb86bb1f2dca6338f8f86866040518085815260200184815260200183815260200182815260200194505050505060405180910390a350506000805460ff60f01b1916600160f01b179055505050505050505050505050565b600080548190600160f01b900460ff16611a8f576040805162461bcd60e51b81526020600482015260036024820152624c4f4b60e81b604482015290519081900360640190fd5b6000805460ff60f01b19168155611aa96007338989613763565b60038101549091506001600160801b0390811690861611611aca5784611ad9565b60038101546001600160801b03165b60038201549093506001600160801b03600160801b909104811690851611611b015783611b17565b6003810154600160801b90046001600160801b03165b91506001600160801b03831615611b7c576003810180546001600160801b031981166001600160801b03918216869003821617909155611b7c907f0000000000000000000000000000000000000000000000000000000000000000908a90861661304e565b6001600160801b03821615611be2576003810180546001600160801b03600160801b808304821686900382160291811691909117909155611be2907f0000000000000000000000000000000000000000000000000000000000000000908a90851661304e565b604080516001600160a01b038a1681526001600160801b0380861660208301528416818301529051600288810b92908a900b9133917f70935338e69775456a85ddef226c395fb668b63fa0115f5f20610b388e6ca9c0919081900360600190a4506000805460ff60f01b1916600160f01b17905590969095509350505050565b60076020526000908152604090208054600182015460028301546003909301546001600160801b0392831693919281811691600160801b90041685565b60066020526000908152604090205481565b7f000000000000000000000000000000000000000000000000000000000000000081565b600054600160f01b900460ff16611d19576040805162461bcd60e51b81526020600482015260036024820152624c4f4b60e81b604482015290519081900360640190fd5b6000805460ff60f01b1916905560408051638da5cb5b60e01b815290516001600160a01b037f00000000000000000000000000000000000000000000000000000000000000001691638da5cb5b916004808301926020929190829003018186803b158015611d8657600080fd5b505afa158015611d9a573d6000803e3d6000fd5b505050506040513d6020811015611db057600080fd5b50516001600160a01b03163314611dc657600080fd5b60ff82161580611de9575060048260ff1610158015611de95750600a8260ff1611155b8015611e13575060ff81161580611e13575060048160ff1610158015611e135750600a8160ff1611155b611e1c57600080fd5b60008054610ff0600484901b16840160ff908116600160e81b90810260ff60e81b19841617909355919004167f973d8d92bb299f4af6ce49b52a8adb85ae46b9f214c4c4fc06ac77401237b1336010826040805160ff9390920683168252600f600486901c16602083015286831682820152918516606082015290519081900360800190a150506000805460ff60f01b1916600160f01b17905550565b600080548190600160f01b900460ff16611f00576040805162461bcd60e51b81526020600482015260036024820152624c4f4b60e81b604482015290519081900360640190fd5b6000805460ff60f01b1916905560408051638da5cb5b60e01b815290516001600160a01b037f00000000000000000000000000000000000000000000000000000000000000001691638da5cb5b916004808301926020929190829003018186803b158015611f6d57600080fd5b505afa158015611f81573d6000803e3d6000fd5b505050506040513d6020811015611f9757600080fd5b50516001600160a01b03163314611fad57600080fd5b6003546001600160801b0390811690851611611fc95783611fd6565b6003546001600160801b03165b6003549092506001600160801b03600160801b909104811690841611611ffc5782612010565b600354600160801b90046001600160801b03165b90506001600160801b03821615612091576003546001600160801b038381169116141561203f57600019909101905b600380546001600160801b031981166001600160801b03918216859003821617909155612091907f0000000000000000000000000000000000000000000000000000000000000000908790851661304e565b6001600160801b03811615612117576003546001600160801b03828116600160801b9092041614156120c257600019015b600380546001600160801b03600160801b808304821685900382160291811691909117909155612117907f0000000000000000000000000000000000000000000000000000000000000000908790841661304e565b604080516001600160801b0380851682528316602082015281516001600160a01b0388169233927f596b573906218d3411850b26a6b437d6c4522fdb43d2d2386263f86d50b8b151929081900390910190a36000805460ff60f01b1916600160f01b1790559094909350915050565b606080612191612993565b61220861219c6137c7565b858580806020026020016040519081016040528093929190818152602001838360200280828437600092018290525054600454600896959450600160a01b820460020b935061ffff600160b81b8304811693506001600160801b0390911691600160c81b9004166137cf565b915091509250929050565b62010007546001600160a01b031681565b600080548190600160f01b900460ff1661226b576040805162461bcd60e51b81526020600482015260036024820152624c4f4b60e81b604482015290519081900360640190fd5b6000805460ff60f01b1916815560408051608081018252338152600288810b602083015287900b91810191909152819081906122c490606081016122b76001600160801b038a16613429565b600003600f0b905261343a565b92509250925081600003945080600003935060008511806122e55750600084115b15612324576003830180546001600160801b038082168089018216600160801b93849004831689019092169092029091176001600160801b0319161790555b604080516001600160801b0388168152602081018790528082018690529051600289810b92908b900b9133917f0c396cd989a39f4459b5fa1aed6a9a8dcdbc45908acfd67e028cd568da98982c919081900360600190a450506000805460ff60f01b1916600160f01b179055509094909350915050565b60008060006123a8612993565b6123b28585613929565b600285810b810b60009081526005602052604080822087840b90930b825281206003830154600681900b93600160381b82046001600160a01b0316928492600160d81b810463ffffffff169284929091600160f81b900460ff168061241657600080fd5b6003820154600681900b9850600160381b81046001600160a01b03169650600160d81b810463ffffffff169450600160f81b900460ff168061245757600080fd5b50506040805160e0810182526000546001600160a01b0381168252600160a01b8104600290810b810b810b6020840181905261ffff600160b81b8404811695850195909552600160c81b830485166060850152600160d81b8304909416608084015260ff600160e81b8304811660a0850152600160f01b909204909116151560c08301529093508e810b91900b1215905061250057509390940396509003935090039050612583565b8a60020b816020015160020b121561257457600061251c6137c7565b6020830151604084015160045460608601519394506000938493612552936008938893879392916001600160801b0316906139f2565b9a9003989098039b505094909603929092039650909103039250612583915050565b50949093039650039350900390505b9250925092565b600054600160f01b900460ff166125ce576040805162461bcd60e51b81526020600482015260036024820152624c4f4b60e81b604482015290519081900360640190fd5b6000805460ff60f01b1916905560408051638da5cb5b60e01b815290516001600160a01b037f00000000000000000000000000000000000000000000000000000000000000001691638da5cb5b916004808301926020929190829003018186803b15801561263b57600080fd5b505afa15801561264f573d6000803e3d6000fd5b505050506040513d602081101561266557600080fd5b50516001600160a01b0316331461267b57600080fd5b6201000780546001600160a01b039092166001600160a01b03199092169190911790556000805460ff60f01b1916600160f01b179055565b7f000000000000000000000000000000000000000000000000000000000000000081565b7f000000000000000000000000000000000000000000000000000000000000000081565b7f000000000000000000000000000000000000000000000000000000000000000081565b600155565b7f000000000000000000000000000000000000000000000000000000000000000081565b60015481565b60056020526000908152604090208054600182015460028301546003909301546001600160801b03831693600160801b909304600f0b9290600681900b90600160381b81046001600160a01b031690600160d81b810463ffffffff1690600160f81b900460ff1688565b6000546001600160a01b0316156127fb576040805162461bcd60e51b8152602060048201526002602482015261414960f01b604482015290519081900360640190fd5b600061280682613b7c565b905060008061281e6128166137c7565b600890613e97565b6040805160e0810182526001600160a01b038816808252600288810b6020808501829052600085870181905261ffff898116606088018190529089166080880181905260a08801839052600160c0909801979097528154600160f01b6001600160a01b0319909116871762ffffff60a01b1916600160a01b62ffffff9787900b97909716969096029590951763ffffffff60b81b1916600160c81b9091021761ffff60d81b1916600160d81b9096029590951761ffff60e81b191692909217909355835191825281019190915281519395509193507f98636036cb66a9c19a37435efc1e90142190214e8abeb821bdba3f2990dd4c9592918290030190a150505050565b600255565b60008082600281900b620d89e7198161293c57fe5b05029050600083600281900b620d89e88161295357fe5b0502905060008460020b83830360020b8161296a57fe5b0560010190508062ffffff166001600160801b0380168161298757fe5b0493505050505b919050565b306001600160a01b037f000000000000000000000000000000000000000000000000000000000000000016146129c857600080fd5b565b6129d26157e7565b6129da61581c565b60006040518060c001604052808a6129fd5760048660a0015160ff16901c612a10565b60108660a0015160ff1681612a0e57fe5b065b60ff1681526004546001600160801b03166020820152604001612a316137c7565b63ffffffff168152602001600060060b815260200160006001600160a01b0316815260200160001515815250905060006040518060e001604052808a81526020016000815260200186600001516001600160a01b03168152602001866020015160020b81526020018b612aa657600254612aaa565b6001545b815260200160006001600160801b0316815260200183602001516001600160801b031681525090505b805115801590612af95750876001600160a01b031681604001516001600160a01b031614155b15612ea357612b0661581c565b60408201516001600160a01b031681526060820151612b49906006907f00000000000000000000000000000000000000000000000000000000000000008e613ee3565b15156040830152600290810b810b60208301819052620d89e719910b1215612b7a57620d89e7196020820152612b99565b6020810151620d89e860029190910b1315612b9957620d89e860208201525b612ba68160200151614025565b6001600160a01b031660608201526040820151612c17908c612be0578a6001600160a01b031683606001516001600160a01b031611612bfa565b8a6001600160a01b031683606001516001600160a01b0316105b612c08578260600151612c0a565b8a5b60c085015185518b614356565b60c085015260a084015260808301526001600160a01b031660408301528715612c7957612c4d8160c00151826080015101614548565b825103825260a0810151612c6f90612c6490614548565b60208401519061455e565b6020830152612cb4565b612c868160a00151614548565b825101825260c08101516080820151612cae91612ca39101614548565b602084015190614574565b60208301525b825160ff1615612cfa576000836000015160ff168260c0015181612cd457fe5b60c0840180519290910491829003905260a0840180519091016001600160801b03169052505b60c08201516001600160801b031615612d3957612d2d8160c00151600160801b8460c001516001600160801b03166136b4565b60808301805190910190525b80606001516001600160a01b031682604001516001600160a01b03161415612e6257806040015115612e39578260a00151612dc357612da1836040015160008860200151896040015187602001518b6060015160086139f2909695949392919063ffffffff16565b6001600160a01b03166080850152600690810b900b6060840152600160a08401525b6000612e0f82602001518d612dda57600154612de0565b84608001515b8e612def578560800151612df3565b6002545b6080880151606089015160408a0151600595949392919061458a565b90508b15612e1b576000035b612e298360c0015182614644565b6001600160801b031660c0840152505b8a612e48578060200151612e51565b60018160200151035b600290810b900b6060830152612e9d565b80600001516001600160a01b031682604001516001600160a01b031614612e9d57612e908260400151613b7c565b600290810b900b60608301525b50612ad3565b90999098509650505050505050565b6000806000898961ffff1661ffff8110612ec857fe5b60408051608081018252919092015463ffffffff808216808452600160201b8304600690810b810b900b6020850152600160581b83046001600160a01b031694840194909452600160f81b90910460ff161515606083015290925089161415612f375788859250925050613042565b8461ffff168461ffff16118015612f5857506001850361ffff168961ffff16145b15612f6557839150612f69565b8491505b8161ffff168960010161ffff1681612f7d57fe5b069250612f8c818989896146fa565b8a8461ffff1661ffff8110612f9d57fe5b825191018054602084015160408501516060909501511515600160f81b026001600160f81b036001600160a01b03909616600160581b027fff0000000000000000000000000000000000000000ffffffffffffffffffffff60069390930b66ffffffffffffff16600160201b026affffffffffffff000000001963ffffffff90971663ffffffff19909516949094179590951692909217169290921792909216179055505b97509795505050505050565b604080516001600160a01b038481166024830152604480830185905283518084039091018152606490920183526020820180516001600160e01b031663a9059cbb60e01b1781529251825160009485949389169392918291908083835b602083106130ca5780518252601f1990920191602091820191016130ab565b6001836020036101000a0380198251168184511680821785525050505050509050019150506000604051808303816000865af19150503d806000811461312c576040519150601f19603f3d011682016040523d82523d6000602084013e613131565b606091505b509150915081801561315f57508051158061315f575080806020019051602081101561315c57600080fd5b50515b613195576040805162461bcd60e51b81526020600482015260026024820152612a2360f11b604482015290519081900360640190fd5b5050505050565b604080513060248083019190915282518083039091018152604490910182526020810180516001600160e01b03166370a0823160e01b17815291518151600093849384936001600160a01b037f00000000000000000000000000000000000000000000000000000000000000001693919290918291908083835b602083106132355780518252601f199092019160209182019101613216565b6001836020036101000a038019825116818451168082178552505050505050905001915050600060405180830381855afa9150503d8060008114613295576040519150601f19603f3d011682016040523d82523d6000602084013e61329a565b606091505b50915091508180156132ae57506020815110155b6132b757600080fd5b8080602001905160208110156132cc57600080fd5b50519250505090565b808201828110156132e557600080fd5b92915050565b604080513060248083019190915282518083039091018152604490910182526020810180516001600160e01b03166370a0823160e01b17815291518151600093849384936001600160a01b037f0000000000000000000000000000000000000000000000000000000000000000169391929091829190808383602083106132355780518252601f199092019160209182019101613216565b6000808361ffff16116133c1576040805162461bcd60e51b81526020600482015260016024820152604960f81b604482015290519081900360640190fd5b8261ffff168261ffff16116133d7575081613422565b825b8261ffff168161ffff16101561341d576001858261ffff1661ffff81106133fc57fe5b01805463ffffffff191663ffffffff929092169190911790556001016133d9565b508190505b9392505050565b80600f81900b811461298e57600080fd5b6000806000613447612993565b61345984602001518560400151613929565b6040805160e0810182526000546001600160a01b0381168252600160a01b8104600290810b810b900b602080840182905261ffff600160b81b8404811685870152600160c81b84048116606080870191909152600160d81b8504909116608086015260ff600160e81b8504811660a0870152600160f01b909404909316151560c0850152885190890151948901519289015193946134fd949193909290919061479e565b93508460600151600f0b60001461367257846020015160020b816020015160020b12156135525761354b6135348660200151614025565b6135418760400151614025565b8760600151614953565b9250613672565b846040015160020b816020015160020b12156136485760045460408201516001600160801b03909116906135a4906135886137c7565b6020850151606086015160808701516008949392918791612eb2565b6000805461ffff60c81b1916600160c81b61ffff938416021761ffff60b81b1916600160b81b9390921692909202179055815160408701516135f491906135ea90614025565b8860600151614953565b93506136126136068760200151614025565b83516060890151614997565b9250613622818760600151614644565b600480546001600160801b0319166001600160801b039290921691909117905550613672565b61366f6136588660200151614025565b6136658760400151614025565b8760600151614997565b91505b509193909250565b60006136878484846136b4565b90506000828061369357fe5b84860911156134225760001981106136aa57600080fd5b6001019392505050565b60008080600019858709868602925082811090839003039050806136ea57600084116136df57600080fd5b508290049050613422565b8084116136f657600080fd5b6000848688096000868103871696879004966002600389028118808a02820302808a02820302808a02820302808a02820302808a02820302808a02909103029181900381900460010186841190950394909402919094039290920491909117919091029150509392505050565b6040805160609490941b6bffffffffffffffffffffffff1916602080860191909152600293840b60e890811b60348701529290930b90911b60378401528051808403601a018152603a90930181528251928201929092206000908152929052902090565b620100085490565b60608060008361ffff161161380f576040805162461bcd60e51b81526020600482015260016024820152604960f81b604482015290519081900360640190fd5b865167ffffffffffffffff8111801561382757600080fd5b50604051908082528060200260200182016040528015613851578160200160208202803683370190505b509150865167ffffffffffffffff8111801561386c57600080fd5b50604051908082528060200260200182016040528015613896578160200160208202803683370190505b50905060005b875181101561391c576138c78a8a8a84815181106138b657fe5b60200260200101518a8a8a8a6139f2565b8483815181106138d357fe5b602002602001018484815181106138e657fe5b60200260200101826001600160a01b03166001600160a01b03168152508260060b60060b8152505050808060010191505061389c565b5097509795505050505050565b8060020b8260020b12613969576040805162461bcd60e51b8152602060048201526003602482015262544c5560e81b604482015290519081900360640190fd5b620d89e719600283900b12156139ac576040805162461bcd60e51b8152602060048201526003602482015262544c4d60e81b604482015290519081900360640190fd5b620d89e8600282900b13156139ee576040805162461bcd60e51b815260206004820152600360248201526254554d60e81b604482015290519081900360640190fd5b5050565b60008063ffffffff8716613a98576000898661ffff1661ffff8110613a1357fe5b60408051608081018252919092015463ffffffff808216808452600160201b8304600690810b810b900b6020850152600160581b83046001600160a01b031694840194909452600160f81b90910460ff16151560608301529092508a1614613a8457613a81818a89886146fa565b90505b806020015181604001519250925050613042565b868803600080613aad8c8c858c8c8c8c6149c6565b91509150816000015163ffffffff168363ffffffff161415613adf578160200151826040015194509450505050613042565b805163ffffffff84811691161415613b07578060200151816040015194509450505050613042565b8151815160208085015190840151918390039286039163ffffffff80841692908516910360060b81613b3557fe5b05028460200151018263ffffffff168263ffffffff1686604001518660400151036001600160a01b03160281613b6757fe5b04856040015101965096505050505050613042565b60006401000276a36001600160a01b03831610801590613bb8575073fffd8963efd1fc6a506488495d951d5263988d266001600160a01b038316105b613bed576040805162461bcd60e51b81526020600482015260016024820152602960f91b604482015290519081900360640190fd5b640100000000600160c01b03602083901b166001600160801b03811160071b81811c67ffffffffffffffff811160061b90811c63ffffffff811160051b90811c61ffff811160041b90811c60ff8111600390811b91821c600f811160021b90811c918211600190811b92831c97908811961790941790921717909117171760808110613c8157607f810383901c9150613c8b565b80607f0383901b91505b908002607f81811c60ff83811c9190911c800280831c81831c1c800280841c81841c1c800280851c81851c1c800280861c81861c1c800280871c81871c1c800280881c81881c1c800280891c81891c1c8002808a1c818a1c1c8002808b1c818b1c1c8002808c1c818c1c1c8002808d1c818d1c1c8002808e1c9c81901c9c909c1c80029c8d901c9e9d607f198f0160401b60c09190911c678000000000000000161760c19b909b1c674000000000000000169a909a1760c29990991c672000000000000000169890981760c39790971c671000000000000000169690961760c49590951c670800000000000000169490941760c59390931c670400000000000000169290921760c69190911c670200000000000000161760c79190911c600160381b161760c89190911c6680000000000000161760c99190911c6640000000000000161760ca9190911c6620000000000000161760cb9190911c6610000000000000161760cc9190911c6608000000000000161760cd9190911c66040000000000001617693627a301d71055774c8581026f028f6481ab7f045a5af012a19d003aa9198101608090811d906fdb2df09e81959a81455e260799a0632f8301901d600281810b9083900b14613e8857886001600160a01b0316613e6c82614025565b6001600160a01b03161115613e815781613e83565b805b613e8a565b815b9998505050505050505050565b6040805160808101825263ffffffff9283168082526000602083018190529282019290925260016060909101819052835463ffffffff1916909117909116600160f81b17909155908190565b60008060008460020b8660020b81613ef757fe5b05905060008660020b128015613f1e57508460020b8660020b81613f1757fe5b0760020b15155b15613f2857600019015b8315613f9d57600080613f3a83614bc0565b600182810b810b600090815260208d9052604090205460ff83169190911b80016000190190811680151597509294509092509085613f7f57888360ff16860302613f92565b88613f8982614bd2565b840360ff168603025b96505050505061401b565b600080613fac83600101614bc0565b91509150600060018260ff166001901b031990506000818b60008660010b60010b8152602001908152602001600020541690508060001415955085613ffe57888360ff0360ff16866001010102614014565b888361400983614c71565b0360ff168660010101025b9650505050505b5094509492505050565b60008060008360020b1261403c578260020b614044565b8260020b6000035b9050620d89e8811115614082576040805162461bcd60e51b81526020600482015260016024820152601560fa1b604482015290519081900360640190fd5b60006001821661409657600160801b6140a8565b6ffffcb933bd6fad37aa2d162d1a5940015b70ffffffffffffffffffffffffffffffffff16905060028216156140dc576ffff97272373d413259a46990580e213a0260801c5b60048216156140fb576ffff2e50f5f656932ef12357cf3c7fdcc0260801c5b600882161561411a576fffe5caca7e10e4e61c3624eaa0941cd00260801c5b6010821615614139576fffcb9843d60f6159c9db58835c9266440260801c5b6020821615614158576fff973b41fa98c081472e6896dfb254c00260801c5b6040821615614177576fff2ea16466c96a3843ec78b326b528610260801c5b6080821615614196576ffe5dee046a99a2a811c461f1969c30530260801c5b6101008216156141b6576ffcbe86c7900a88aedcffc83b479aa3a40260801c5b6102008216156141d6576ff987a7253ac413176f2b074cf7815e540260801c5b6104008216156141f6576ff3392b0822b70005940c7a398e4b70f30260801c5b610800821615614216576fe7159475a2c29b7443b29c7fa6e889d90260801c5b611000821615614236576fd097f3bdfd2022b8845ad8f792aa58250260801c5b612000821615614256576fa9f746462d870fdf8a65dc1f90e061e50260801c5b614000821615614276576f70d869a156d2a1b890bb3df62baf32f70260801c5b618000821615614296576f31be135f97d08fd981231505542fcfa60260801c5b620100008216156142b7576f09aa508b5b7a84e1c677de54f3e99bc90260801c5b620200008216156142d7576e5d6af8dedb81196699c329225ee6040260801c5b620400008216156142f6576d2216e584f5fa1ea926041bedfe980260801c5b62080000821615614313576b048a170391f7dc42444e8fa20260801c5b60008460020b131561432e57806000198161432a57fe5b0490505b600160201b810615614341576001614344565b60005b60ff16602082901c0192505050919050565b60008080806001600160a01b03808916908a1610158187128015906143db57600061438f8989620f42400362ffffff16620f42406136b4565b9050826143a8576143a38c8c8c6001614d5b565b6143b5565b6143b58b8d8c6001614dd4565b95508581106143c6578a96506143d5565b6143d28c8b8386614e7f565b96505b50614425565b816143f2576143ed8b8b8b6000614dd4565b6143ff565b6143ff8a8c8b6000614d5b565b935083886000031061441357899550614425565b6144228b8a8a60000385614ecb565b95505b6001600160a01b038a8116908716148215614488578080156144445750815b61445a57614455878d8c6001614dd4565b61445c565b855b9550808015614469575081155b61447f5761447a878d8c6000614d5b565b614481565b845b94506144d2565b8080156144925750815b6144a8576144a38c888c6001614d5b565b6144aa565b855b95508080156144b7575081155b6144cd576144c88c888c6000614dd4565b6144cf565b845b94505b811580156144e257508860000385115b156144ee578860000394505b81801561450d57508a6001600160a01b0316876001600160a01b031614155b1561451c578589039350614539565b614536868962ffffff168a620f42400362ffffff1661367a565b93505b50505095509550955095915050565b6000600160ff1b821061455a57600080fd5b5090565b808203828113156000831215146132e557600080fd5b818101828112156000831215146132e557600080fd5b600295860b860b60009081526020979097526040909620600181018054909503909455938301805490920390915560038201805463ffffffff600160d81b6001600160a01b03600160381b808504821690960316909402600160381b600160d81b031990921691909117600681810b90960390950b66ffffffffffffff1666ffffffffffffff199095169490941782810485169095039093160263ffffffff60d81b1990931692909217905554600160801b9004600f0b90565b60008082600f0b12156146a957826001600160801b03168260000384039150816001600160801b0316106146a4576040805162461bcd60e51b81526020600482015260026024820152614c5360f01b604482015290519081900360640190fd5b6132e5565b826001600160801b03168284019150816001600160801b031610156132e5576040805162461bcd60e51b81526020600482015260026024820152614c4160f01b604482015290519081900360640190fd5b614702615858565b600085600001518503905060405180608001604052808663ffffffff1681526020018263ffffffff168660020b0288602001510160060b81526020016000856001600160801b031611614756576001614758565b845b6001600160801b031663ffffffff60801b608085901b168161477657fe5b048860400151016001600160a01b03168152602001600115158152509150505b949350505050565b60006147ad6007878787613763565b60015460025491925090600080600f87900b156148f35760006147ce6137c7565b60008054600454929350909182916148189160089186918591600160a01b810460020b9161ffff600160b81b83048116926001600160801b0390921691600160c81b9004166139f2565b909250905061485260058d8b8d8b8b87898b60007f0000000000000000000000000000000000000000000000000000000000000000614f17565b945061488960058c8b8d8b8b87898b60017f0000000000000000000000000000000000000000000000000000000000000000614f17565b935084156148bd576148bd60068d7f00000000000000000000000000000000000000000000000000000000000000006150d0565b83156148ef576148ef60068c7f00000000000000000000000000000000000000000000000000000000000000006150d0565b5050505b60008061490560058c8c8b8a8a615136565b9092509050614916878a84846151e2565b600089600f0b12156149445783156149335761493360058c615377565b82156149445761494460058b615377565b50505050505095945050505050565b60008082600f0b126149795761497461496f8585856001614dd4565b614548565b614796565b61498c61496f8585856000036000614dd4565b600003949350505050565b60008082600f0b126149b35761497461496f8585856001614d5b565b61498c61496f8585856000036000614d5b565b6149ce615858565b6149d6615858565b888561ffff1661ffff81106149e757fe5b60408051608081018252919092015463ffffffff8116808352600160201b8204600690810b810b900b6020840152600160581b82046001600160a01b031693830193909352600160f81b900460ff16151560608201529250614a4b908990896153a3565b15614a83578663ffffffff16826000015163ffffffff161415614a6d57613042565b81614a7a838989886146fa565b91509150613042565b888361ffff168660010161ffff1681614a9857fe5b0661ffff1661ffff8110614aa857fe5b60408051608081018252929091015463ffffffff81168352600160201b8104600690810b810b900b60208401526001600160a01b03600160581b8204169183019190915260ff600160f81b90910416151560608201819052909250614b5d57604080516080810182528a5463ffffffff81168252600160201b8104600690810b810b900b6020830152600160581b81046001600160a01b031692820192909252600160f81b90910460ff161515606082015291505b614b6c888360000151896153a3565b614ba3576040805162461bcd60e51b815260206004820152600360248201526213d31160ea1b604482015290519081900360640190fd5b614bb08989898887615464565b9150915097509795505050505050565b60020b600881901d9161010090910790565b6000808211614be057600080fd5b600160801b8210614bf357608091821c91015b680100000000000000008210614c0b57604091821c91015b600160201b8210614c1e57602091821c91015b620100008210614c3057601091821c91015b6101008210614c4157600891821c91015b60108210614c5157600491821c91015b60048210614c6157600291821c91015b6002821061298e57600101919050565b6000808211614c7f57600080fd5b5060ff6001600160801b03821615614c9a57607f1901614ca2565b608082901c91505b67ffffffffffffffff821615614cbb57603f1901614cc3565b604082901c91505b63ffffffff821615614cd857601f1901614ce0565b602082901c91505b61ffff821615614cf357600f1901614cfb565b601082901c91505b60ff821615614d0d5760071901614d15565b600882901c91505b600f821615614d275760031901614d2f565b600482901c91505b6003821615614d415760011901614d49565b600282901c91505b600182161561298e5760001901919050565b6000836001600160a01b0316856001600160a01b03161115614d7b579293925b81614da857614da3836001600160801b03168686036001600160a01b0316600160601b6136b4565b614dcb565b614dcb836001600160801b03168686036001600160a01b0316600160601b61367a565b95945050505050565b6000836001600160a01b0316856001600160a01b03161115614df4579293925b600160601b600160e01b03606084901b166001600160a01b038686038116908716614e1e57600080fd5b83614e4e57866001600160a01b0316614e418383896001600160a01b03166136b4565b81614e4857fe5b04614e74565b614e74614e658383896001600160a01b031661367a565b886001600160a01b0316615602565b979650505050505050565b600080856001600160a01b031611614e9657600080fd5b6000846001600160801b031611614eac57600080fd5b81614ebe57614da3858585600161560d565b614dcb85858560016156ee565b600080856001600160a01b031611614ee257600080fd5b6000846001600160801b031611614ef857600080fd5b81614f0a57614da385858560006156ee565b614dcb858585600061560d565b60028a810b900b600090815260208c90526040812080546001600160801b031682614f42828d614644565b9050846001600160801b0316816001600160801b03161115614f90576040805162461bcd60e51b81526020600482015260026024820152614c4f60f01b604482015290519081900360640190fd5b6001600160801b038281161590821615811415945015615035578c60020b8e60020b1361501d57600183018b9055600283018a9055600383018054600160381b600160d81b031916600160381b6001600160a01b038c16021766ffffffffffffff191666ffffffffffffff60068b900b161763ffffffff60d81b1916600160d81b63ffffffff8a16021790555b6003830180546001600160f81b0316600160f81b1790555b82546001600160801b0319166001600160801b0382161783558561507e5782546150799061507490600160801b9004600f90810b810b908f900b614574565b613429565b61509f565b825461509f9061507490600160801b9004600f90810b810b908f900b61455e565b8354600f9190910b6001600160801b03908116600160801b0291161790925550909c9b505050505050505050505050565b8060020b8260020b816150df57fe5b0760020b156150ed57600080fd5b6000806151088360020b8560020b8161510257fe5b05614bc0565b600191820b820b60009081526020979097526040909620805460ff9097169190911b90951890945550505050565b600285810b80820b60009081526020899052604080822088850b850b83529082209193849391929184918291908a900b1261517c5750506001820154600283015461518f565b8360010154880391508360020154870390505b6000808b60020b8b60020b12156151b1575050600183015460028401546151c4565b84600101548a0391508460020154890390505b92909803979097039b96909503949094039850939650505050505050565b6040805160a08101825285546001600160801b0390811682526001870154602083015260028701549282019290925260038601548083166060830152600160801b900490911660808201526000600f85900b6152815781516001600160801b0316615279576040805162461bcd60e51b815260206004820152600260248201526104e560f41b604482015290519081900360640190fd5b508051615290565b815161528d9086614644565b90505b60006152b48360200151860384600001516001600160801b0316600160801b6136b4565b905060006152da8460400151860385600001516001600160801b0316600160801b6136b4565b905086600f0b6000146153015787546001600160801b0319166001600160801b0384161788555b60018801869055600288018590556001600160801b03821615158061532f57506000816001600160801b0316115b1561536d576003880180546001600160801b031981166001600160801b039182168501821617808216600160801b9182900483168501909216021790555b5050505050505050565b600290810b810b6000908152602092909252604082208281556001810183905590810182905560030155565b60008363ffffffff168363ffffffff16111580156153cd57508363ffffffff168263ffffffff1611155b156153e9578163ffffffff168363ffffffff1611159050613422565b60008463ffffffff168463ffffffff1611615410578363ffffffff16600160201b01615418565b8363ffffffff165b64ffffffffff16905060008563ffffffff168463ffffffff1611615448578363ffffffff16600160201b01615450565b8363ffffffff165b64ffffffffff169091111595945050505050565b61546c615858565b615474615858565b60008361ffff168560010161ffff168161548a57fe5b0661ffff169050600060018561ffff16830103905060005b506002818301048961ffff871682816154b757fe5b0661ffff81106154c357fe5b60408051608081018252929091015463ffffffff81168352600160201b8104600690810b810b900b60208401526001600160a01b03600160581b8204169183019190915260ff600160f81b9091041615156060820181905290955061552d578060010192506154a2565b898661ffff16826001018161553e57fe5b0661ffff811061554a57fe5b60408051608081018252929091015463ffffffff81168352600160201b8104600690810b810b900b60208401526001600160a01b03600160581b8204169183019190915260ff600160f81b909104161515606082015285519094506000906155b4908b908b6153a3565b90508080156155cd57506155cd8a8a87600001516153a3565b156155d857506155f5565b806155e8576001820392506155ef565b8160010193505b506154a2565b5050509550959350505050565b808204910615150190565b600081156156805760006001600160a01b038411156156435761563e84600160601b876001600160801b03166136b4565b61565b565b6001600160801b038516606085901b8161565957fe5b045b90506156786156736001600160a01b038816836132d5565b6157d1565b915050614796565b60006001600160a01b038411156156ae576156a984600160601b876001600160801b031661367a565b6156c5565b6156c5606085901b6001600160801b038716615602565b905080866001600160a01b0316116156dc57600080fd5b6001600160a01b038616039050614796565b6000826156fc575083614796565b600160601b600160e01b03606085901b16821561578a576001600160a01b0386168481029085828161572a57fe5b04141561575b578181018281106157595761574f83896001600160a01b03168361367a565b9350505050614796565b505b6157818261577c878a6001600160a01b0316868161577557fe5b04906132d5565b615602565b92505050614796565b6001600160a01b038616848102908582816157a157fe5b041480156157ae57508082115b6157b757600080fd5b80820361574f615673846001600160a01b038b168461367a565b806001600160a01b038116811461298e57600080fd5b6040805160c081018252600080825260208201819052918101829052606081018290526080810182905260a081019190915290565b6040805160e081018252600080825260208201819052918101829052606081018290526080810182905260a0810182905260c081019190915290565b6040805160808101825260008082526020820181905291810182905260608101919091529056fea2646970667358221220e782c47c657d9ad4cdd59b08bc2da10a138ab41313221f588fcfc8c58f693b4564736f6c63430007060033",
  "linkReferences": {},
  "deployedLinkReferences": {}
}